{
  "_format": "hh-sol-artifact-1",
  "contractName": "Appraiser",
  "sourceName": "contracts/Appraiser.sol",
  "abi": [
    {
      "inputs": [
        {
          "internalType": "address",
          "name": "reviewerContract_",
          "type": "address"
        }
      ],
      "stateMutability": "nonpayable",
      "type": "constructor"
    },
    {
      "inputs": [],
      "name": "Appraiser__DuplicateOrgName",
      "type": "error"
    },
    {
      "anonymous": false,
      "inputs": [
        {
          "indexed": false,
          "internalType": "uint256",
          "name": "orgId",
          "type": "uint256"
        }
      ],
      "name": "LogAddOrganization",
      "type": "event"
    },
    {
      "anonymous": false,
      "inputs": [
        {
          "indexed": true,
          "internalType": "address",
          "name": "previousOwner",
          "type": "address"
        },
        {
          "indexed": true,
          "internalType": "address",
          "name": "newOwner",
          "type": "address"
        }
      ],
      "name": "OwnershipTransferred",
      "type": "event"
    },
    {
      "inputs": [
        {
          "internalType": "string",
          "name": "name_",
          "type": "string"
        },
        {
          "internalType": "address",
          "name": "addr_",
          "type": "address"
        },
        {
          "internalType": "string",
          "name": "URI_",
          "type": "string"
        }
      ],
      "name": "addOrganization",
      "outputs": [],
      "stateMutability": "nonpayable",
      "type": "function"
    },
    {
      "inputs": [],
      "name": "numberOrganizations",
      "outputs": [
        {
          "internalType": "uint256",
          "name": "",
          "type": "uint256"
        }
      ],
      "stateMutability": "view",
      "type": "function"
    },
    {
      "inputs": [],
      "name": "owner",
      "outputs": [
        {
          "internalType": "address",
          "name": "",
          "type": "address"
        }
      ],
      "stateMutability": "view",
      "type": "function"
    },
    {
      "inputs": [],
      "name": "renounceOwnership",
      "outputs": [],
      "stateMutability": "nonpayable",
      "type": "function"
    },
    {
      "inputs": [
        {
          "internalType": "uint256",
          "name": "",
          "type": "uint256"
        }
      ],
      "name": "s_deployedContracts",
      "outputs": [
        {
          "internalType": "address",
          "name": "AppraiserOrganization",
          "type": "address"
        },
        {
          "internalType": "address",
          "name": "Verifier",
          "type": "address"
        }
      ],
      "stateMutability": "view",
      "type": "function"
    },
    {
      "inputs": [],
      "name": "s_orgIds",
      "outputs": [
        {
          "internalType": "uint256",
          "name": "_value",
          "type": "uint256"
        }
      ],
      "stateMutability": "view",
      "type": "function"
    },
    {
      "inputs": [
        {
          "internalType": "uint256",
          "name": "",
          "type": "uint256"
        }
      ],
      "name": "s_organizations",
      "outputs": [
        {
          "internalType": "uint256",
          "name": "",
          "type": "uint256"
        }
      ],
      "stateMutability": "view",
      "type": "function"
    },
    {
      "inputs": [
        {
          "internalType": "address",
          "name": "newOwner",
          "type": "address"
        }
      ],
      "name": "transferOwnership",
      "outputs": [],
      "stateMutability": "nonpayable",
      "type": "function"
    }
  ],
  "bytecode": "0x608060405234801561001057600080fd5b5060405161602538038061602583398101604081905261002f916100ad565b6100383361005d565b600580546001600160a01b0319166001600160a01b03929092169190911790556100db565b600080546001600160a01b038381166001600160a01b0319831681178455604051919092169283917f8be0079c531659141344cd1fd0a4f28419497f9722a3daafe3b4186f6b6457e09190a35050565b6000602082840312156100be578081fd5b81516001600160a01b03811681146100d4578182fd5b9392505050565b615f3b806100ea6000396000f3fe60806040523480156200001157600080fd5b5060043610620000935760003560e01c80639b90d2d511620000625780639b90d2d5146200014e578063c22dea711462000165578063f190b803146200016f578063f2fde38b146200017a57600080fd5b8063715018a61462000098578063777ccdc814620000a4578063863e0ea414620000da5780638da5cb5b1462000132575b600080fd5b620000a262000191565b005b620000c7620000b536600462000721565b60026020526000908152604090205481565b6040519081526020015b60405180910390f35b62000111620000eb36600462000721565b600360205260009081526040902080546001909101546001600160a01b03918216911682565b604080516001600160a01b03938416815292909116602083015201620000d1565b6000546040516001600160a01b039091168152602001620000d1565b620000a26200015f36600462000697565b620001d5565b620000c762000438565b600154620000c79081565b620000a26200018b36600462000673565b62000449565b6000546001600160a01b03163314620001c75760405162461bcd60e51b8152600401620001be90620007c1565b60405180910390fd5b620001d36000620004eb565b565b6000546001600160a01b03163314620002025760405162461bcd60e51b8152600401620001be90620007c1565b6004858560405162000216929190620007b1565b908152602001604051809103902054600114156200024757604051630460a91f60e51b815260040160405180910390fd5b60006200025360015490565b90506001600260008381526020019081526020016000208190555060016004878760405162000284929190620007b1565b90815260405190819003602001902055620002a3600180546001019055565b60006200031d8288888080601f01602080910402602001604051908101604052809392919081815260200183838082843760009201919091525050604080516020601f8b018190048102820181019092528981528b9350915089908990819084018382808284376000920191909152506200053b92505050565b9050600062000332838989898989886200059b565b600554604051636397eef160e11b8152600481018690526001600160a01b03808416602483015292935091169063c72fdde290604401600060405180830381600087803b1580156200038357600080fd5b505af115801562000398573d6000803e3d6000fd5b50506040805180820182526001600160a01b038086168252868116602080840191825260008a81526003909152849020925183549083166001600160a01b0319918216178455905160019093018054939092169216919091179055517f72b340853204e185bbbdf872eae9ed3a78da0b4aa9bf86fbc99364f273fabacf925062000426915085815260200190565b60405180910390a15050505050505050565b60006200044460015490565b905090565b6000546001600160a01b03163314620004765760405162461bcd60e51b8152600401620001be90620007c1565b6001600160a01b038116620004dd5760405162461bcd60e51b815260206004820152602660248201527f4f776e61626c653a206e6577206f776e657220697320746865207a65726f206160448201526564647265737360d01b6064820152608401620001be565b620004e881620004eb565b50565b600080546001600160a01b038381166001600160a01b0319831681178455604051919092169283917f8be0079c531659141344cd1fd0a4f28419497f9722a3daafe3b4186f6b6457e09190a35050565b60008085858585620005556000546001600160a01b031690565b6040516200056390620005f0565b620005739594939291906200084f565b604051809103906000f08015801562000590573d6000803e3d6000fd5b509695505050505050565b60008088888888888888604051620005b390620005fe565b620005c59796959493929190620007f6565b604051809103906000f080158015620005e2573d6000803e3d6000fd5b509998505050505050505050565b6130f680620008a583390190565b61256b806200399b83390190565b80356001600160a01b03811681146200062457600080fd5b919050565b60008083601f8401126200063b578182fd5b50813567ffffffffffffffff81111562000653578182fd5b6020830191508360208285010111156200066c57600080fd5b9250929050565b60006020828403121562000685578081fd5b62000690826200060c565b9392505050565b600080600080600060608688031215620006af578081fd5b853567ffffffffffffffff80821115620006c7578283fd5b620006d589838a0162000629565b9097509550859150620006eb602089016200060c565b9450604088013591508082111562000701578283fd5b50620007108882890162000629565b969995985093965092949392505050565b60006020828403121562000733578081fd5b5035919050565b81835281816020850137506000828201602090810191909152601f909101601f19169091010190565b60008151808452815b818110156200078a576020818501810151868301820152016200076c565b818111156200079c5782602083870101525b50601f01601f19169290920160200192915050565b8183823760009101908152919050565b6020808252818101527f4f776e61626c653a2063616c6c6572206973206e6f7420746865206f776e6572604082015260600190565b87815260a0602082015260006200081260a08301888a6200073a565b6001600160a01b0387811660408501528382036060850152620008378287896200073a565b92508085166080850152505098975050505050505050565b85815260a0602082015260006200086a60a083018762000763565b6001600160a01b03868116604085015283820360608501526200088e828762000763565b925080851660808501525050969550505050505056fe6080604052655af3107a40006005553480156200001b57600080fd5b50604051620030f6380380620030f68339810160408190526200003e91620007b2565b816200004a81620000ec565b50620000563362000105565b620000618162000157565b600685905583516200007b90600790602087019062000648565b50620000a28360006103e8604051806020016040528060008152506200022c60201b60201c565b620000ce7fa49807205ce4d355092ef5a8a18f56e8913cf4a201fbe287825b095693c21775846200034a565b5050600980546001600160a01b031916331790555062000a55915050565b80516200010190600290602084019062000648565b5050565b600380546001600160a01b038381166001600160a01b0319831681179093556040519116919082907f8be0079c531659141344cd1fd0a4f28419497f9722a3daafe3b4186f6b6457e090600090a35050565b6003546001600160a01b03163314620001b75760405162461bcd60e51b815260206004820181905260248201527f4f776e61626c653a2063616c6c6572206973206e6f7420746865206f776e657260448201526064015b60405180910390fd5b6001600160a01b0381166200021e5760405162461bcd60e51b815260206004820152602660248201527f4f776e61626c653a206e6577206f776e657220697320746865207a65726f206160448201526564647265737360d01b6064820152608401620001ae565b620002298162000105565b50565b6001600160a01b0384166200028e5760405162461bcd60e51b815260206004820152602160248201527f455243313135353a206d696e7420746f20746865207a65726f206164647265736044820152607360f81b6064820152608401620001ae565b3360006200029c8562000356565b90506000620002ab8562000356565b90506000868152602081815260408083206001600160a01b038b16845290915281208054879290620002df908490620008d3565b909155505060408051878152602081018790526001600160a01b03808a1692600092918716917fc3d58168c5ae7397731d063d5bbf3d657854427343f4c083240f7aacaa2d0f62910160405180910390a46200034183600089898989620003b8565b50505050505050565b62000101828262000595565b604080516001808252818301909252606091600091906020808301908036833701905050905082816000815181106200039f57634e487b7160e01b600052603260045260246000fd5b602090810291909101015292915050565b505050505050565b620003d7846001600160a01b03166200063960201b62000e9a1760201c565b15620003b05760405163f23a6e6160e01b81526001600160a01b0385169063f23a6e619062000413908990899088908890889060040162000877565b602060405180830381600087803b1580156200042e57600080fd5b505af192505050801562000461575060408051601f3d908101601f191682019092526200045e9181019062000781565b60015b620005225762000470620009ad565b806308c379a01415620004b1575062000488620009c6565b80620004955750620004b3565b8060405162461bcd60e51b8152600401620001ae9190620008be565b505b60405162461bcd60e51b815260206004820152603460248201527f455243313135353a207472616e7366657220746f206e6f6e204552433131353560448201527f526563656976657220696d706c656d656e7465720000000000000000000000006064820152608401620001ae565b6001600160e01b0319811663f23a6e6160e01b14620003415760405162461bcd60e51b815260206004820152602860248201527f455243313135353a204552433131353552656365697665722072656a656374656044820152676420746f6b656e7360c01b6064820152608401620001ae565b60008281526004602090815260408083206001600160a01b038516845290915290205460ff16620001015760008281526004602090815260408083206001600160a01b03851684529091529020805460ff19166001179055620005f53390565b6001600160a01b0316816001600160a01b0316837f2f8788117e7eff1d82e926ec794901d17c78024a50270940304540a733656f0d60405160405180910390a45050565b6001600160a01b03163b151590565b82805462000656906200092b565b90600052602060002090601f0160209004810192826200067a5760008555620006c5565b82601f106200069557805160ff1916838001178555620006c5565b82800160010185558215620006c5579182015b82811115620006c5578251825591602001919060010190620006a8565b50620006d3929150620006d7565b5090565b5b80821115620006d35760008155600101620006d8565b80516001600160a01b03811681146200070657600080fd5b919050565b600082601f8301126200071c578081fd5b81516001600160401b0381111562000738576200073862000997565b60405162000751601f8301601f19166020018262000968565b81815284602083860101111562000766578283fd5b62000779826020830160208701620008f8565b949350505050565b60006020828403121562000793578081fd5b81516001600160e01b031981168114620007ab578182fd5b9392505050565b600080600080600060a08688031215620007ca578081fd5b855160208701519095506001600160401b0380821115620007e9578283fd5b620007f789838a016200070b565b95506200080760408901620006ee565b945060608801519150808211156200081d578283fd5b506200082c888289016200070b565b9250506200083d60808701620006ee565b90509295509295909350565b6000815180845262000863816020860160208601620008f8565b601f01601f19169290920160200192915050565b6001600160a01b03868116825285166020820152604081018490526060810183905260a060808201819052600090620008b39083018462000849565b979650505050505050565b602081526000620007ab602083018462000849565b60008219821115620008f357634e487b7160e01b81526011600452602481fd5b500190565b60005b8381101562000915578181015183820152602001620008fb565b8381111562000925576000848401525b50505050565b600181811c908216806200094057607f821691505b602082108114156200096257634e487b7160e01b600052602260045260246000fd5b50919050565b601f8201601f191681016001600160401b038111828210171562000990576200099062000997565b6040525050565b634e487b7160e01b600052604160045260246000fd5b600060033d1115620009c357600481823e5160e01c5b90565b600060443d1015620009d55790565b6040516003193d81016004833e81513d6001600160401b03808311602484018310171562000a0557505050505090565b828501915081518181111562000a1e5750505050505090565b843d870101602082850101111562000a395750505050505090565b62000a4a6020828601018762000968565b509095945050505050565b6126918062000a656000396000f3fe6080604052600436106101915760003560e01c806375b238fc116100e7578063b76968c111610095578063dc75be8c11610064578063dc75be8c146104dd578063e985e9c5146104fd578063f242432a14610546578063f2fde38b1461056657600080fd5b8063b76968c114610462578063bba1964f14610478578063c0bda8de1461048d578063d547741f146104bd57600080fd5b806375b238fc146103a75780638da5cb5b146103db57806390ffedf0146103f957806391d148541461040c578063a217fddf146101f9578063a22cb4651461042c578063a71f48a41461044c57600080fd5b80632eb2c2d6116101445780632eb2c2d6146102ad5780632f2ff15d146102cd57806336568abe146102ed5780633c62afb51461030d5780634751b422146103455780634e1273f414610365578063715018a61461039257600080fd5b8062fdd58e1461019657806301ffc9a7146101c957806308c84e70146101f95780630e89341c1461020e57806321cd4f0a1461023b578063248a9ca31461025d57806324d7806c1461028d575b600080fd5b3480156101a257600080fd5b506101b66101b1366004611f14565b610586565b6040519081526020015b60405180910390f35b3480156101d557600080fd5b506101e96101e43660046120b1565b61061d565b60405190151581526020016101c0565b34801561020557600080fd5b506101b6600081565b34801561021a57600080fd5b5061022e610229366004612077565b61062e565b6040516101c091906122a2565b34801561024757600080fd5b5061025b610256366004611d87565b6106c2565b005b34801561026957600080fd5b506101b6610278366004612077565b60009081526004602052604090206001015490565b34801561029957600080fd5b506101e96102a8366004611d87565b610706565b3480156102b957600080fd5b5061025b6102c8366004611dd3565b610732565b3480156102d957600080fd5b5061025b6102e836600461208f565b6107c9565b3480156102f957600080fd5b5061025b61030836600461208f565b6107f3565b34801561031957600080fd5b5060095461032d906001600160a01b031681565b6040516001600160a01b0390911681526020016101c0565b34801561035157600080fd5b5061025b610360366004612007565b610871565b34801561037157600080fd5b50610385610380366004611f3d565b6108b6565b6040516101c09190612261565b34801561039e57600080fd5b5061025b610a17565b3480156103b357600080fd5b506101b67fa49807205ce4d355092ef5a8a18f56e8913cf4a201fbe287825b095693c2177581565b3480156103e757600080fd5b506003546001600160a01b031661032d565b61025b610407366004611d87565b610a4d565b34801561041857600080fd5b506101e961042736600461208f565b610bb1565b34801561043857600080fd5b5061025b610447366004611eda565b610bdc565b34801561045857600080fd5b506101b660055481565b34801561046e57600080fd5b506101b660065481565b34801561048457600080fd5b5061022e610be7565b34801561049957600080fd5b506104ad6104a8366004612077565b610c75565b6040516101c09493929190612409565b3480156104c957600080fd5b5061025b6104d836600461208f565b610d26565b3480156104e957600080fd5b5061025b6104f8366004611d87565b610d4b565b34801561050957600080fd5b506101e9610518366004611da1565b6001600160a01b03918216600090815260016020908152604080832093909416825291909152205460ff1690565b34801561055257600080fd5b5061025b610561366004611e78565b610d97565b34801561057257600080fd5b5061025b610581366004611d87565b610e02565b60006001600160a01b0383166105f75760405162461bcd60e51b815260206004820152602b60248201527f455243313135353a2062616c616e636520717565727920666f7220746865207a60448201526a65726f206164647265737360a81b60648201526084015b60405180910390fd5b506000908152602081815260408083206001600160a01b03949094168352929052205490565b600061062882610ea9565b92915050565b60606002805461063d906124f6565b80601f0160208091040260200160405190810160405280929190818152602001828054610669906124f6565b80156106b65780601f1061068b576101008083540402835291602001916106b6565b820191906000526020600020905b81548152906001019060200180831161069957829003601f168201915b50505050509050919050565b6009546001600160a01b0316336001600160a01b0316146106f657604051630d65e9b960e41b815260040160405180910390fd5b6107038160006001610ece565b50565b60006106287fa49807205ce4d355092ef5a8a18f56e8913cf4a201fbe287825b095693c2177583610bb1565b6001600160a01b03851633148061074e575061074e8533610518565b6107b55760405162461bcd60e51b815260206004820152603260248201527f455243313135353a207472616e736665722063616c6c6572206973206e6f74206044820152711bdddb995c881b9bdc88185c1c1c9bdd995960721b60648201526084016105ee565b6107c2858585858561104f565b5050505050565b6000828152600460205260409020600101546107e481611207565b6107ee8383611211565b505050565b6001600160a01b03811633146108635760405162461bcd60e51b815260206004820152602f60248201527f416363657373436f6e74726f6c3a2063616e206f6e6c792072656e6f756e636560448201526e103937b632b9903337b91039b2b63360891b60648201526084016105ee565b61086d8282611297565b5050565b6003546001600160a01b0316331461089b5760405162461bcd60e51b81526004016105ee9061238c565b6107ee818484604051806020016040528060008152506112fe565b6060815183511461091b5760405162461bcd60e51b815260206004820152602960248201527f455243313135353a206163636f756e747320616e6420696473206c656e677468604482015268040dad2e6dac2e8c6d60bb1b60648201526084016105ee565b600083516001600160401b0381111561094457634e487b7160e01b600052604160045260246000fd5b60405190808252806020026020018201604052801561096d578160200160208202803683370190505b50905060005b8451811015610a0f576109d485828151811061099f57634e487b7160e01b600052603260045260246000fd5b60200260200101518583815181106109c757634e487b7160e01b600052603260045260246000fd5b6020026020010151610586565b8282815181106109f457634e487b7160e01b600052603260045260246000fd5b6020908102919091010152610a088161255d565b9050610973565b509392505050565b6003546001600160a01b03163314610a415760405162461bcd60e51b81526004016105ee9061238c565b610a4b600061149f565b565b610a556114f1565b610a7257604051638197c7f960e01b815260040160405180910390fd5b6005543490811015610a9757604051632583b35b60e21b815260040160405180910390fd5b600060055482610aa79190612470565b9050610abb6003546001600160a01b031690565b6001600160a01b03166108fc839081150290604051600060405180830381858888f19350505050158015610af3573d6000803e3d6000fd5b50604080516001808252818301909252600091602080830190803683375050604080516001808252818301909252929350600092915060208083019080368337019050509050600081600081518110610b5c57634e487b7160e01b600052603260045260246000fd5b6020026020010181815250508282600081518110610b8a57634e487b7160e01b600052603260045260246000fd5b6020026020010181815250506107c2858284604051806020016040528060008152506112fe565b60009182526004602090815260408084206001600160a01b0393909316845291905290205460ff1690565b61086d338383611546565b60078054610bf4906124f6565b80601f0160208091040260200160405190810160405280929190818152602001828054610c20906124f6565b8015610c6d5780601f10610c4257610100808354040283529160200191610c6d565b820191906000526020600020905b815481529060010190602001808311610c5057829003601f168201915b505050505081565b60086020526000908152604090208054600182018054919291610c97906124f6565b80601f0160208091040260200160405190810160405280929190818152602001828054610cc3906124f6565b8015610d105780601f10610ce557610100808354040283529160200191610d10565b820191906000526020600020905b815481529060010190602001808311610cf357829003601f168201915b5050505050908060020154908060030154905084565b600082815260046020526040902060010154610d4181611207565b6107ee8383611297565b6003546001600160a01b03163314610d755760405162461bcd60e51b81526004016105ee9061238c565b600980546001600160a01b0319166001600160a01b0392909216919091179055565b6001600160a01b038516331480610db35750610db38533610518565b610dd057604051638afbcef960e01b815260040160405180910390fd5b610dd86114f1565b610df557604051630735731160e21b815260040160405180910390fd5b6107c28585858585611627565b6003546001600160a01b03163314610e2c5760405162461bcd60e51b81526004016105ee9061238c565b6001600160a01b038116610e915760405162461bcd60e51b815260206004820152602660248201527f4f776e61626c653a206e6577206f776e657220697320746865207a65726f206160448201526564647265737360d01b60648201526084016105ee565b6107038161149f565b6001600160a01b03163b151590565b60006001600160e01b03198216637965db0b60e01b1480610628575061062882611751565b6001600160a01b038316610f305760405162461bcd60e51b815260206004820152602360248201527f455243313135353a206275726e2066726f6d20746865207a65726f206164647260448201526265737360e81b60648201526084016105ee565b336000610f3c846117a1565b90506000610f49846117a1565b60408051602080820183526000918290528882528181528282206001600160a01b038b1683529052205490915084811015610fd25760405162461bcd60e51b8152602060048201526024808201527f455243313135353a206275726e20616d6f756e7420657863656564732062616c604482015263616e636560e01b60648201526084016105ee565b6000868152602081815260408083206001600160a01b038b81168086529184528285208a8703905582518b81529384018a90529092908816917fc3d58168c5ae7397731d063d5bbf3d657854427343f4c083240f7aacaa2d0f62910160405180910390a46040805160208101909152600090525b50505050505050565b81518351146110705760405162461bcd60e51b81526004016105ee906123c1565b6001600160a01b0384166110965760405162461bcd60e51b81526004016105ee906122fd565b3360005b84518110156111995760008582815181106110c557634e487b7160e01b600052603260045260246000fd5b6020026020010151905060008583815181106110f157634e487b7160e01b600052603260045260246000fd5b602090810291909101810151600084815280835260408082206001600160a01b038e1683529093529190912054909150818110156111415760405162461bcd60e51b81526004016105ee90612342565b6000838152602081815260408083206001600160a01b038e8116855292528083208585039055908b1682528120805484929061117e908490612458565b92505081905550505050806111929061255d565b905061109a565b50846001600160a01b0316866001600160a01b0316826001600160a01b03167f4a39dc06d4c0dbc64b70af90fd698a233a518aa5d07e595d983b8c0526c8f7fb87876040516111e9929190612274565b60405180910390a46111ff8187878787876117fa565b505050505050565b610703813361196c565b61121b8282610bb1565b61086d5760008281526004602090815260408083206001600160a01b03851684529091529020805460ff191660011790556112533390565b6001600160a01b0316816001600160a01b0316837f2f8788117e7eff1d82e926ec794901d17c78024a50270940304540a733656f0d60405160405180910390a45050565b6112a18282610bb1565b1561086d5760008281526004602090815260408083206001600160a01b0385168085529252808320805460ff1916905551339285917ff6391f5c32d9c69d2a47ea670b442974b53935d1edc7fd64eb21e047a839171b9190a45050565b6001600160a01b03841661135e5760405162461bcd60e51b815260206004820152602160248201527f455243313135353a206d696e7420746f20746865207a65726f206164647265736044820152607360f81b60648201526084016105ee565b815183511461137f5760405162461bcd60e51b81526004016105ee906123c1565b3360005b8451811015611437578381815181106113ac57634e487b7160e01b600052603260045260246000fd5b60200260200101516000808784815181106113d757634e487b7160e01b600052603260045260246000fd5b602002602001015181526020019081526020016000206000886001600160a01b03166001600160a01b03168152602001908152602001600020600082825461141f9190612458565b9091555081905061142f8161255d565b915050611383565b50846001600160a01b031660006001600160a01b0316826001600160a01b03167f4a39dc06d4c0dbc64b70af90fd698a233a518aa5d07e595d983b8c0526c8f7fb8787604051611488929190612274565b60405180910390a46107c2816000878787876117fa565b600380546001600160a01b038381166001600160a01b0319831681179093556040519116919082907f8be0079c531659141344cd1fd0a4f28419497f9722a3daafe3b4186f6b6457e090600090a35050565b600061151d7fa49807205ce4d355092ef5a8a18f56e8913cf4a201fbe287825b095693c2177533610bb1565b15801561153557506003546001600160a01b03163314155b156115405750600090565b50600190565b816001600160a01b0316836001600160a01b031614156115ba5760405162461bcd60e51b815260206004820152602960248201527f455243313135353a2073657474696e6720617070726f76616c20737461747573604482015268103337b91039b2b63360b91b60648201526084016105ee565b6001600160a01b03838116600081815260016020908152604080832094871680845294825291829020805460ff191686151590811790915591519182527f17307eab39ab6107e8899845ad3d59bd9653f200f220920489ca2b5937696c31910160405180910390a3505050565b6001600160a01b03841661164d5760405162461bcd60e51b81526004016105ee906122fd565b336000611659856117a1565b90506000611666856117a1565b90506000868152602081815260408083206001600160a01b038c168452909152902054858110156116a95760405162461bcd60e51b81526004016105ee90612342565b6000878152602081815260408083206001600160a01b038d8116855292528083208985039055908a168252812080548892906116e6908490612458565b909155505060408051888152602081018890526001600160a01b03808b16928c821692918816917fc3d58168c5ae7397731d063d5bbf3d657854427343f4c083240f7aacaa2d0f62910160405180910390a4611746848a8a8a8a8a6119d0565b505050505050505050565b60006001600160e01b03198216636cdb3d1360e11b148061178257506001600160e01b031982166303a24d0760e21b145b8061062857506301ffc9a760e01b6001600160e01b0319831614610628565b604080516001808252818301909252606091600091906020808301908036833701905050905082816000815181106117e957634e487b7160e01b600052603260045260246000fd5b602090810291909101015292915050565b61180c846001600160a01b0316610e9a565b156111ff5760405163bc197c8160e01b81526001600160a01b0385169063bc197c819061184590899089908890889088906004016121be565b602060405180830381600087803b15801561185f57600080fd5b505af192505050801561188f575060408051601f3d908101601f1916820190925261188c918101906120cd565b60015b61193c5761189b6125a4565b806308c379a014156118d557506118b06125bc565b806118bb57506118d7565b8060405162461bcd60e51b81526004016105ee91906122a2565b505b60405162461bcd60e51b815260206004820152603460248201527f455243313135353a207472616e7366657220746f206e6f6e20455243313135356044820152732932b1b2b4bb32b91034b6b83632b6b2b73a32b960611b60648201526084016105ee565b6001600160e01b0319811663bc197c8160e01b146110465760405162461bcd60e51b81526004016105ee906122b5565b6119768282610bb1565b61086d5761198e816001600160a01b03166014611aa1565b611999836020611aa1565b6040516020016119aa92919061214f565b60408051601f198184030181529082905262461bcd60e51b82526105ee916004016122a2565b6119e2846001600160a01b0316610e9a565b156111ff5760405163f23a6e6160e01b81526001600160a01b0385169063f23a6e6190611a1b908990899088908890889060040161221c565b602060405180830381600087803b158015611a3557600080fd5b505af1925050508015611a65575060408051601f3d908101601f19168201909252611a62918101906120cd565b60015b611a715761189b6125a4565b6001600160e01b0319811663f23a6e6160e01b146110465760405162461bcd60e51b81526004016105ee906122b5565b60606000611ab0836002612490565b611abb906002612458565b6001600160401b03811115611ae057634e487b7160e01b600052604160045260246000fd5b6040519080825280601f01601f191660200182016040528015611b0a576020820181803683370190505b509050600360fc1b81600081518110611b3357634e487b7160e01b600052603260045260246000fd5b60200101906001600160f81b031916908160001a905350600f60fb1b81600181518110611b7057634e487b7160e01b600052603260045260246000fd5b60200101906001600160f81b031916908160001a9053506000611b94846002612490565b611b9f906001612458565b90505b6001811115611c33576f181899199a1a9b1b9c1cb0b131b232b360811b85600f1660108110611be157634e487b7160e01b600052603260045260246000fd5b1a60f81b828281518110611c0557634e487b7160e01b600052603260045260246000fd5b60200101906001600160f81b031916908160001a90535060049490941c93611c2c816124df565b9050611ba2565b508315611c825760405162461bcd60e51b815260206004820181905260248201527f537472696e67733a20686578206c656e67746820696e73756666696369656e7460448201526064016105ee565b9392505050565b80356001600160a01b0381168114611ca057600080fd5b919050565b600082601f830112611cb5578081fd5b81356020611cc282612435565b604051611ccf8282612531565b8381528281019150858301600585901b87018401881015611cee578586fd5b855b85811015611d0c57813584529284019290840190600101611cf0565b5090979650505050505050565b600082601f830112611d29578081fd5b81356001600160401b03811115611d4257611d4261258e565b604051611d59601f8301601f191660200182612531565b818152846020838601011115611d6d578283fd5b816020850160208301379081016020019190915292915050565b600060208284031215611d98578081fd5b611c8282611c89565b60008060408385031215611db3578081fd5b611dbc83611c89565b9150611dca60208401611c89565b90509250929050565b600080600080600060a08688031215611dea578081fd5b611df386611c89565b9450611e0160208701611c89565b935060408601356001600160401b0380821115611e1c578283fd5b611e2889838a01611ca5565b94506060880135915080821115611e3d578283fd5b611e4989838a01611ca5565b93506080880135915080821115611e5e578283fd5b50611e6b88828901611d19565b9150509295509295909350565b600080600080600060a08688031215611e8f578081fd5b611e9886611c89565b9450611ea660208701611c89565b9350604086013592506060860135915060808601356001600160401b03811115611ece578182fd5b611e6b88828901611d19565b60008060408385031215611eec578182fd5b611ef583611c89565b915060208301358015158114611f09578182fd5b809150509250929050565b60008060408385031215611f26578182fd5b611f2f83611c89565b946020939093013593505050565b60008060408385031215611f4f578182fd5b82356001600160401b0380821115611f65578384fd5b818501915085601f830112611f78578384fd5b81356020611f8582612435565b604051611f928282612531565b8381528281019150858301600585901b870184018b1015611fb1578889fd5b8896505b84871015611fda57611fc681611c89565b835260019690960195918301918301611fb5565b5096505086013592505080821115611ff0578283fd5b50611ffd85828601611ca5565b9150509250929050565b60008060006060848603121561201b578283fd5b83356001600160401b0380821115612031578485fd5b61203d87838801611ca5565b94506020860135915080821115612052578384fd5b5061205f86828701611ca5565b92505061206e60408501611c89565b90509250925092565b600060208284031215612088578081fd5b5035919050565b600080604083850312156120a1578182fd5b82359150611dca60208401611c89565b6000602082840312156120c2578081fd5b8135611c8281612645565b6000602082840312156120de578081fd5b8151611c8281612645565b6000815180845260208085019450808401835b83811015612118578151875295820195908201906001016120fc565b509495945050505050565b6000815180845261213b8160208601602086016124af565b601f01601f19169290920160200192915050565b76020b1b1b2b9b9a1b7b73a3937b61d1030b1b1b7bab73a1604d1b8152600083516121818160178501602088016124af565b7001034b99036b4b9b9b4b733903937b6329607d1b60179184019182015283516121b28160288401602088016124af565b01602801949350505050565b6001600160a01b0386811682528516602082015260a0604082018190526000906121ea908301866120e9565b82810360608401526121fc81866120e9565b905082810360808401526122108185612123565b98975050505050505050565b6001600160a01b03868116825285166020820152604081018490526060810183905260a06080820181905260009061225690830184612123565b979650505050505050565b602081526000611c8260208301846120e9565b60408152600061228760408301856120e9565b828103602084015261229981856120e9565b95945050505050565b602081526000611c826020830184612123565b60208082526028908201527f455243313135353a204552433131353552656365697665722072656a656374656040820152676420746f6b656e7360c01b606082015260800190565b60208082526025908201527f455243313135353a207472616e7366657220746f20746865207a65726f206164604082015264647265737360d81b606082015260800190565b6020808252602a908201527f455243313135353a20696e73756666696369656e742062616c616e636520666f60408201526939103a3930b739b332b960b11b606082015260800190565b6020808252818101527f4f776e61626c653a2063616c6c6572206973206e6f7420746865206f776e6572604082015260600190565b60208082526028908201527f455243313135353a2069647320616e6420616d6f756e7473206c656e677468206040820152670dad2e6dac2e8c6d60c31b606082015260800190565b8481526080602082015260006124226080830186612123565b6040830194909452506060015292915050565b60006001600160401b0382111561244e5761244e61258e565b5060051b60200190565b6000821982111561246b5761246b612578565b500190565b60008261248b57634e487b7160e01b81526012600452602481fd5b500490565b60008160001904831182151516156124aa576124aa612578565b500290565b60005b838110156124ca5781810151838201526020016124b2565b838111156124d9576000848401525b50505050565b6000816124ee576124ee612578565b506000190190565b600181811c9082168061250a57607f821691505b6020821081141561252b57634e487b7160e01b600052602260045260246000fd5b50919050565b601f8201601f191681016001600160401b03811182821017156125565761255661258e565b6040525050565b600060001982141561257157612571612578565b5060010190565b634e487b7160e01b600052601160045260246000fd5b634e487b7160e01b600052604160045260246000fd5b600060033d11156125b957600481823e5160e01c5b90565b600060443d10156125ca5790565b6040516003193d81016004833e81513d6001600160401b0381602484011181841117156125f957505050505090565b82850191508151818111156126115750505050505090565b843d870101602082850101111561262b5750505050505090565b61263a60208286010187612531565b509095945050505050565b6001600160e01b03198116811461070357600080fdfea2646970667358221220bfb9a8760ed2e78fc1481a8bee917a676f5382464d67c0f9edfe974402b8df9064736f6c6343000804003360a06040523480156200001157600080fd5b506040516200256b3803806200256b8339810160408190526200003491620003a8565b816200004081620001a5565b506200004c33620001be565b6040805160a08101825286815260208082018790526001600160a01b038616928201929092526001606082018190526080820152600a8781558651919290916200009d91600b919089019062000219565b506040828101516002909201805460608501516080909501511515600160a81b0260ff60a81b19951515600160a01b026001600160a81b03199092166001600160a01b0395861617919091179490941693909317909255600d80549184166001600160a01b031992909216821790558151628c84e760e41b8152915190916308c84e70916004808301926020929190829003018186803b1580156200014157600080fd5b505afa15801562000156573d6000803e3d6000fd5b505050506040513d601f19601f820116820180604052508101906200017c91906200038f565b608081815250506200019a60096200021060201b62000e851760201c565b505050505062000492565b8051620001ba90600290602084019062000219565b5050565b600380546001600160a01b038381166001600160a01b0319831681179093556040519116919082907f8be0079c531659141344cd1fd0a4f28419497f9722a3daafe3b4186f6b6457e090600090a35050565b80546001019055565b82805462000227906200043f565b90600052602060002090601f0160209004810192826200024b576000855562000296565b82601f106200026657805160ff191683800117855562000296565b8280016001018555821562000296579182015b828111156200029657825182559160200191906001019062000279565b50620002a4929150620002a8565b5090565b5b80821115620002a45760008155600101620002a9565b80516001600160a01b0381168114620002d757600080fd5b919050565b600082601f830112620002ed578081fd5b81516001600160401b03808211156200030a576200030a6200047c565b604051601f8301601f19908116603f011681019082821181831017156200033557620003356200047c565b8160405283815260209250868385880101111562000351578485fd5b8491505b8382101562000374578582018301518183018401529082019062000355565b838211156200038557848385830101525b9695505050505050565b600060208284031215620003a1578081fd5b5051919050565b600080600080600060a08688031215620003c0578081fd5b855160208701519095506001600160401b0380821115620003df578283fd5b620003ed89838a01620002dc565b9550620003fd60408901620002bf565b9450606088015191508082111562000413578283fd5b506200042288828901620002dc565b9250506200043360808701620002bf565b90509295509295909350565b600181811c908216806200045457607f821691505b602082108114156200047657634e487b7160e01b600052602260045260246000fd5b50919050565b634e487b7160e01b600052604160045260246000fd5b6080516120bd620004ae60003960006106db01526120bd6000f3fe608060405234801561001057600080fd5b50600436106101205760003560e01c80638da5cb5b116100ad578063e985e9c511610071578063e985e9c51461026f578063f22f34f1146102ab578063f242432a146102d0578063f2fde38b146102e3578063fecb24ef146102f657600080fd5b80638da5cb5b1461021357806397e994931461022e578063a22cb46514610241578063a2782a5114610254578063ca8883101461025c57600080fd5b806323bd4d7a116100f457806323bd4d7a146101ae5780632eb2c2d6146101c35780633c0d92d1146101d85780634e1273f4146101eb578063715018a61461020b57600080fd5b8062fdd58e1461012557806301ffc9a71461014b5780630e89341c1461016e578063114f8eed1461018e575b600080fd5b6101386101333660046119ba565b610316565b6040519081526020015b60405180910390f35b61015e610159366004611b51565b6103ad565b6040519015158152602001610142565b61018161017c366004611b89565b6103ff565b6040516101429190611d22565b61013861019c366004611b89565b60086020526000908152604090205481565b6101b6610493565b6040516101429190611e41565b6101d66101d1366004611888565b6105a2565b005b6101386101e6366004611a1e565b610639565b6101fe6101f9366004611a86565b6108bc565b6040516101429190611ce1565b6101d6610a1e565b6003546040516001600160a01b039091168152602001610142565b61015e61023c3660046119e3565b610a54565b6101d661024f366004611991565b610abc565b610138610acb565b6101d661026a3660046119e3565b610adb565b61015e61027d366004611856565b6001600160a01b03918216600090815260016020908152604080832093909416825291909152205460ff1690565b6102be6102b9366004611b89565b610c96565b60405161014296959493929190611e9d565b6101d66102de36600461192e565b610d63565b6101d66102f136600461183c565b610dea565b610138610304366004611b89565b60066020526000908152604090205481565b60006001600160a01b0383166103875760405162461bcd60e51b815260206004820152602b60248201527f455243313135353a2062616c616e636520717565727920666f7220746865207a60448201526a65726f206164647265737360a81b60648201526084015b60405180910390fd5b506000908152602081815260408083206001600160a01b03949094168352929052205490565b60006001600160e01b03198216636cdb3d1360e11b14806103de57506001600160e01b031982166303a24d0760e21b145b806103f957506301ffc9a760e01b6001600160e01b03198316145b92915050565b60606002805461040e90611f20565b80601f016020809104026020016040519081016040528092919081815260200182805461043a90611f20565b80156104875780601f1061045c57610100808354040283529160200191610487565b820191906000526020600020905b81548152906001019060200180831161046a57829003601f168201915b50505050509050919050565b6040805160a081018252600080825260606020830181905292820181905291810182905260808101919091526040805160a08101909152600a80548252600b80546020840191906104e390611f20565b80601f016020809104026020016040519081016040528092919081815260200182805461050f90611f20565b801561055c5780601f106105315761010080835404028352916020019161055c565b820191906000526020600020905b81548152906001019060200180831161053f57829003601f168201915b5050509183525050600291909101546001600160a01b038116602083015260ff600160a01b8204811615156040840152600160a81b909104161515606090910152919050565b6001600160a01b0385163314806105be57506105be853361027d565b6106255760405162461bcd60e51b815260206004820152603260248201527f455243313135353a207472616e736665722063616c6c6572206973206e6f74206044820152711bdddb995c881b9bdc88185c1c1c9bdd995960721b606482015260840161037e565b6106328585858585610e8e565b5050505050565b6000828015806106495750606481115b15610667576040516312f3735d60e31b815260040160405180910390fd5b6003546001600160a01b031633146106915760405162461bcd60e51b815260040161037e90611e0c565b600061069c60095490565b90506106ba8682600160405180602001604052806000815250611087565b600d54604051627eeac760e11b81526001600160a01b0388811660048301527f0000000000000000000000000000000000000000000000000000000000000000602483015260009216908290829062fdd58e9060440160206040518083038186803b15801561072857600080fd5b505afa15801561073c573d6000803e3d6000fd5b505050506040513d601f19601f820116820180604052508101906107609190611ba1565b11156107c6576040516310e6a78560e11b81526001600160a01b0389811660048301528216906321cd4f0a90602401600060405180830381600087803b1580156107a957600080fd5b505af11580156107bd573d6000803e3d6000fd5b50505050600191505b6040805160c0810182528481526001600160a01b038a811660208084019182528385018c8152606085018c815242608087015288151560a087015260008a815260048452969096208551815592516001840180546001600160a01b0319169190951617909355915160028201559251805192938493909261084e926003850192910190611686565b506080820151600482015560a0909101516005909101805460ff19169115159190911790556009805460010190556040518481527ffa039017104499194cbaee4a06ab081a02aff6ea3fc083959a88f5dd9544add99060200160405180910390a15091979650505050505050565b606081518351146109215760405162461bcd60e51b815260206004820152602960248201527f455243313135353a206163636f756e747320616e6420696473206c656e677468604482015268040dad2e6dac2e8c6d60bb1b606482015260840161037e565b6000835167ffffffffffffffff81111561094b57634e487b7160e01b600052604160045260246000fd5b604051908082528060200260200182016040528015610974578160200160208202803683370190505b50905060005b8451811015610a16576109db8582815181106109a657634e487b7160e01b600052603260045260246000fd5b60200260200101518583815181106109ce57634e487b7160e01b600052603260045260246000fd5b6020026020010151610316565b8282815181106109fb57634e487b7160e01b600052603260045260246000fd5b6020908102919091010152610a0f81611f88565b905061097a565b509392505050565b6003546001600160a01b03163314610a485760405162461bcd60e51b815260040161037e90611e0c565b610a52600061119b565b565b600060018215151415610a8d575060008281526005602090815260408083206001600160a01b038716845290915290205460ff16610ab5565b5060008281526007602090815260408083206001600160a01b038716845290915290205460ff165b9392505050565b610ac73383836111ed565b5050565b6000610ad660095490565b905090565b6000828152600460205260409020600101548390839083906001600160a01b0380851691161415610b1f57604051634ec7a74d60e11b815260040160405180910390fd5b60008281526007602090815260408083206001600160a01b038716845290915290205460ff16151560011480610b7c575060008281526005602090815260408083206001600160a01b038716845290915290205460ff1615156001145b15610b9a57604051632ea388a760e11b815260040160405180910390fd5b60018415151415610c025760008581526005602090815260408083206001600160a01b038a1684528252808320805460ff1916600190811790915588845260069092529091205490610bed908290611f08565b60008781526006602052604090205550610c5b565b60008581526007602090815260408083206001600160a01b038a1684528252808320805460ff1916600190811790915588845260089092529091205490610c4a908290611f08565b600087815260086020526040902055505b6040518581527f9ea1d6dcc33efa8df0347b6875147497d067d8eed15435cc7ad0db9891addd079060200160405180910390a1505050505050565b600460205260009081526040902080546001820154600283015460038401805493946001600160a01b0390931693919291610cd090611f20565b80601f0160208091040260200160405190810160405280929190818152602001828054610cfc90611f20565b8015610d495780601f10610d1e57610100808354040283529160200191610d49565b820191906000526020600020905b815481529060010190602001808311610d2c57829003601f168201915b50505050600483015460059093015491929160ff16905086565b6001600160a01b038516331480610d7f5750610d7f853361027d565b610ddd5760405162461bcd60e51b815260206004820152602960248201527f455243313135353a2063616c6c6572206973206e6f74206f776e6572206e6f7260448201526808185c1c1c9bdd995960ba1b606482015260840161037e565b61063285858585856112ce565b6003546001600160a01b03163314610e145760405162461bcd60e51b815260040161037e90611e0c565b6001600160a01b038116610e795760405162461bcd60e51b815260206004820152602660248201527f4f776e61626c653a206e6577206f776e657220697320746865207a65726f206160448201526564647265737360d01b606482015260840161037e565b610e828161119b565b50565b80546001019055565b8151835114610ef05760405162461bcd60e51b815260206004820152602860248201527f455243313135353a2069647320616e6420616d6f756e7473206c656e677468206044820152670dad2e6dac2e8c6d60c31b606482015260840161037e565b6001600160a01b038416610f165760405162461bcd60e51b815260040161037e90611d7d565b3360005b8451811015611019576000858281518110610f4557634e487b7160e01b600052603260045260246000fd5b602002602001015190506000858381518110610f7157634e487b7160e01b600052603260045260246000fd5b602090810291909101810151600084815280835260408082206001600160a01b038e168352909352919091205490915081811015610fc15760405162461bcd60e51b815260040161037e90611dc2565b6000838152602081815260408083206001600160a01b038e8116855292528083208585039055908b16825281208054849290610ffe908490611f08565b925050819055505050508061101290611f88565b9050610f1a565b50846001600160a01b0316866001600160a01b0316826001600160a01b03167f4a39dc06d4c0dbc64b70af90fd698a233a518aa5d07e595d983b8c0526c8f7fb8787604051611069929190611cf4565b60405180910390a461107f8187878787876113f8565b505050505050565b6001600160a01b0384166110e75760405162461bcd60e51b815260206004820152602160248201527f455243313135353a206d696e7420746f20746865207a65726f206164647265736044820152607360f81b606482015260840161037e565b3360006110f385611563565b9050600061110085611563565b90506000868152602081815260408083206001600160a01b038b16845290915281208054879290611132908490611f08565b909155505060408051878152602081018790526001600160a01b03808a1692600092918716917fc3d58168c5ae7397731d063d5bbf3d657854427343f4c083240f7aacaa2d0f62910160405180910390a4611192836000898989896115bc565b50505050505050565b600380546001600160a01b038381166001600160a01b0319831681179093556040519116919082907f8be0079c531659141344cd1fd0a4f28419497f9722a3daafe3b4186f6b6457e090600090a35050565b816001600160a01b0316836001600160a01b031614156112615760405162461bcd60e51b815260206004820152602960248201527f455243313135353a2073657474696e6720617070726f76616c20737461747573604482015268103337b91039b2b63360b91b606482015260840161037e565b6001600160a01b03838116600081815260016020908152604080832094871680845294825291829020805460ff191686151590811790915591519182527f17307eab39ab6107e8899845ad3d59bd9653f200f220920489ca2b5937696c31910160405180910390a3505050565b6001600160a01b0384166112f45760405162461bcd60e51b815260040161037e90611d7d565b33600061130085611563565b9050600061130d85611563565b90506000868152602081815260408083206001600160a01b038c168452909152902054858110156113505760405162461bcd60e51b815260040161037e90611dc2565b6000878152602081815260408083206001600160a01b038d8116855292528083208985039055908a1682528120805488929061138d908490611f08565b909155505060408051888152602081018890526001600160a01b03808b16928c821692918816917fc3d58168c5ae7397731d063d5bbf3d657854427343f4c083240f7aacaa2d0f62910160405180910390a46113ed848a8a8a8a8a6115bc565b505050505050505050565b6001600160a01b0384163b1561107f5760405163bc197c8160e01b81526001600160a01b0385169063bc197c819061143c9089908990889088908890600401611c3e565b602060405180830381600087803b15801561145657600080fd5b505af1925050508015611486575060408051601f3d908101601f1916820190925261148391810190611b6d565b60015b61153357611492611fcf565b806308c379a014156114cc57506114a7611fe7565b806114b257506114ce565b8060405162461bcd60e51b815260040161037e9190611d22565b505b60405162461bcd60e51b815260206004820152603460248201527f455243313135353a207472616e7366657220746f206e6f6e20455243313135356044820152732932b1b2b4bb32b91034b6b83632b6b2b73a32b960611b606482015260840161037e565b6001600160e01b0319811663bc197c8160e01b146111925760405162461bcd60e51b815260040161037e90611d35565b604080516001808252818301909252606091600091906020808301908036833701905050905082816000815181106115ab57634e487b7160e01b600052603260045260246000fd5b602090810291909101015292915050565b6001600160a01b0384163b1561107f5760405163f23a6e6160e01b81526001600160a01b0385169063f23a6e61906116009089908990889088908890600401611c9c565b602060405180830381600087803b15801561161a57600080fd5b505af192505050801561164a575060408051601f3d908101601f1916820190925261164791810190611b6d565b60015b61165657611492611fcf565b6001600160e01b0319811663f23a6e6160e01b146111925760405162461bcd60e51b815260040161037e90611d35565b82805461169290611f20565b90600052602060002090601f0160209004810192826116b457600085556116fa565b82601f106116cd57805160ff19168380011785556116fa565b828001600101855582156116fa579182015b828111156116fa5782518255916020019190600101906116df565b5061170692915061170a565b5090565b5b80821115611706576000815560010161170b565b600067ffffffffffffffff83111561173957611739611fb9565b604051611750601f8501601f191660200182611f5b565b80915083815284848401111561176557600080fd5b83836020830137600060208583010152509392505050565b80356001600160a01b038116811461179457600080fd5b919050565b600082601f8301126117a9578081fd5b813560206117b682611ee4565b6040516117c38282611f5b565b8381528281019150858301600585901b870184018810156117e2578586fd5b855b85811015611800578135845292840192908401906001016117e4565b5090979650505050505050565b8035801515811461179457600080fd5b600082601f83011261182d578081fd5b610ab58383356020850161171f565b60006020828403121561184d578081fd5b610ab58261177d565b60008060408385031215611868578081fd5b6118718361177d565b915061187f6020840161177d565b90509250929050565b600080600080600060a0868803121561189f578081fd5b6118a88661177d565b94506118b66020870161177d565b9350604086013567ffffffffffffffff808211156118d2578283fd5b6118de89838a01611799565b945060608801359150808211156118f3578283fd5b6118ff89838a01611799565b93506080880135915080821115611914578283fd5b506119218882890161181d565b9150509295509295909350565b600080600080600060a08688031215611945578081fd5b61194e8661177d565b945061195c6020870161177d565b93506040860135925060608601359150608086013567ffffffffffffffff811115611985578182fd5b6119218882890161181d565b600080604083850312156119a3578182fd5b6119ac8361177d565b915061187f6020840161180d565b600080604083850312156119cc578182fd5b6119d58361177d565b946020939093013593505050565b6000806000606084860312156119f7578283fd5b611a008461177d565b925060208401359150611a156040850161180d565b90509250925092565b600080600060608486031215611a32578081fd5b611a3b8461177d565b925060208401359150604084013567ffffffffffffffff811115611a5d578182fd5b8401601f81018613611a6d578182fd5b611a7c8682356020840161171f565b9150509250925092565b60008060408385031215611a98578182fd5b823567ffffffffffffffff80821115611aaf578384fd5b818501915085601f830112611ac2578384fd5b81356020611acf82611ee4565b604051611adc8282611f5b565b8381528281019150858301600585901b870184018b1015611afb578889fd5b8896505b84871015611b2457611b108161177d565b835260019690960195918301918301611aff565b5096505086013592505080821115611b3a578283fd5b50611b4785828601611799565b9150509250929050565b600060208284031215611b62578081fd5b8135610ab581612071565b600060208284031215611b7e578081fd5b8151610ab581612071565b600060208284031215611b9a578081fd5b5035919050565b600060208284031215611bb2578081fd5b5051919050565b6000815180845260208085019450808401835b83811015611be857815187529582019590820190600101611bcc565b509495945050505050565b60008151808452815b81811015611c1857602081850181015186830182015201611bfc565b81811115611c295782602083870101525b50601f01601f19169290920160200192915050565b6001600160a01b0386811682528516602082015260a060408201819052600090611c6a90830186611bb9565b8281036060840152611c7c8186611bb9565b90508281036080840152611c908185611bf3565b98975050505050505050565b6001600160a01b03868116825285166020820152604081018490526060810183905260a060808201819052600090611cd690830184611bf3565b979650505050505050565b602081526000610ab56020830184611bb9565b604081526000611d076040830185611bb9565b8281036020840152611d198185611bb9565b95945050505050565b602081526000610ab56020830184611bf3565b60208082526028908201527f455243313135353a204552433131353552656365697665722072656a656374656040820152676420746f6b656e7360c01b606082015260800190565b60208082526025908201527f455243313135353a207472616e7366657220746f20746865207a65726f206164604082015264647265737360d81b606082015260800190565b6020808252602a908201527f455243313135353a20696e73756666696369656e742062616c616e636520666f60408201526939103a3930b739b332b960b11b606082015260800190565b6020808252818101527f4f776e61626c653a2063616c6c6572206973206e6f7420746865206f776e6572604082015260600190565b60208152815160208201526000602083015160a06040840152611e6760c0840182611bf3565b905060018060a01b0360408501511660608401526060840151151560808401526080840151151560a08401528091505092915050565b86815260018060a01b038616602082015284604082015260c060608201526000611eca60c0830186611bf3565b60808301949094525090151560a090910152949350505050565b600067ffffffffffffffff821115611efe57611efe611fb9565b5060051b60200190565b60008219821115611f1b57611f1b611fa3565b500190565b600181811c90821680611f3457607f821691505b60208210811415611f5557634e487b7160e01b600052602260045260246000fd5b50919050565b601f8201601f1916810167ffffffffffffffff81118282101715611f8157611f81611fb9565b6040525050565b6000600019821415611f9c57611f9c611fa3565b5060010190565b634e487b7160e01b600052601160045260246000fd5b634e487b7160e01b600052604160045260246000fd5b600060033d1115611fe457600481823e5160e01c5b90565b600060443d1015611ff55790565b6040516003193d81016004833e81513d67ffffffffffffffff816024840111818411171561202557505050505090565b828501915081518181111561203d5750505050505090565b843d87010160208285010111156120575750505050505090565b61206660208286010187611f5b565b509095945050505050565b6001600160e01b031981168114610e8257600080fdfea2646970667358221220c23da9c3e9f6553249aa986b0692aff0c9f5e067069a186e936a8552ceccf94a64736f6c63430008040033a2646970667358221220909271368fa62fa2f678ee21ad3a555e8cf6ed559aa574783b1204f53a7abaff64736f6c63430008040033",
  "linkReferences": {},
  "deployedLinkReferences": {}
}