{
  "_format": "hh-sol-artifact-1",
  "contractName": "AppraiserOrganization",
  "sourceName": "contracts/AppraiserOrganization.sol",
  "abi": [
    {
      "inputs": [
        {
          "internalType": "uint256",
          "name": "orgId_",
          "type": "uint256"
        },
        {
          "internalType": "string",
          "name": "name_",
          "type": "string"
        },
        {
          "internalType": "address",
          "name": "addr_",
          "type": "address"
        },
        {
          "internalType": "string",
          "name": "URI_",
          "type": "string"
        },
        {
          "internalType": "address",
          "name": "verifierAddr_",
          "type": "address"
        },
        {
          "internalType": "address",
          "name": "reviewerAddr_",
          "type": "address"
        }
      ],
      "stateMutability": "nonpayable",
      "type": "constructor"
    },
    {
      "inputs": [],
      "name": "AppraiserOrganization__CannotVoteOnOwnReview",
      "type": "error"
    },
    {
      "inputs": [],
      "name": "AppraiserOrganization__GroupIdAlreadySet",
      "type": "error"
    },
    {
      "inputs": [],
      "name": "AppraiserOrganization__InvalidRating",
      "type": "error"
    },
    {
      "inputs": [],
      "name": "AppraiserOrganization__OneVoteAllowedPerReview",
      "type": "error"
    },
    {
      "inputs": [],
      "name": "AppraiserOrganization__OnlyReviewerContractCanCall",
      "type": "error"
    },
    {
      "anonymous": false,
      "inputs": [
        {
          "indexed": true,
          "internalType": "address",
          "name": "account",
          "type": "address"
        },
        {
          "indexed": true,
          "internalType": "address",
          "name": "operator",
          "type": "address"
        },
        {
          "indexed": false,
          "internalType": "bool",
          "name": "approved",
          "type": "bool"
        }
      ],
      "name": "ApprovalForAll",
      "type": "event"
    },
    {
      "anonymous": false,
      "inputs": [
        {
          "indexed": false,
          "internalType": "uint256",
          "name": "reviewId",
          "type": "uint256"
        }
      ],
      "name": "LogNFTReviewMinted",
      "type": "event"
    },
    {
      "anonymous": false,
      "inputs": [
        {
          "indexed": false,
          "internalType": "uint256",
          "name": "reviewId",
          "type": "uint256"
        }
      ],
      "name": "LogNFTReviewVote",
      "type": "event"
    },
    {
      "anonymous": false,
      "inputs": [
        {
          "indexed": true,
          "internalType": "address",
          "name": "previousOwner",
          "type": "address"
        },
        {
          "indexed": true,
          "internalType": "address",
          "name": "newOwner",
          "type": "address"
        }
      ],
      "name": "OwnershipTransferred",
      "type": "event"
    },
    {
      "anonymous": false,
      "inputs": [
        {
          "indexed": true,
          "internalType": "address",
          "name": "operator",
          "type": "address"
        },
        {
          "indexed": true,
          "internalType": "address",
          "name": "from",
          "type": "address"
        },
        {
          "indexed": true,
          "internalType": "address",
          "name": "to",
          "type": "address"
        },
        {
          "indexed": false,
          "internalType": "uint256[]",
          "name": "ids",
          "type": "uint256[]"
        },
        {
          "indexed": false,
          "internalType": "uint256[]",
          "name": "values",
          "type": "uint256[]"
        }
      ],
      "name": "TransferBatch",
      "type": "event"
    },
    {
      "anonymous": false,
      "inputs": [
        {
          "indexed": true,
          "internalType": "address",
          "name": "operator",
          "type": "address"
        },
        {
          "indexed": true,
          "internalType": "address",
          "name": "from",
          "type": "address"
        },
        {
          "indexed": true,
          "internalType": "address",
          "name": "to",
          "type": "address"
        },
        {
          "indexed": false,
          "internalType": "uint256",
          "name": "id",
          "type": "uint256"
        },
        {
          "indexed": false,
          "internalType": "uint256",
          "name": "value",
          "type": "uint256"
        }
      ],
      "name": "TransferSingle",
      "type": "event"
    },
    {
      "anonymous": false,
      "inputs": [
        {
          "indexed": false,
          "internalType": "string",
          "name": "value",
          "type": "string"
        },
        {
          "indexed": true,
          "internalType": "uint256",
          "name": "id",
          "type": "uint256"
        }
      ],
      "name": "URI",
      "type": "event"
    },
    {
      "inputs": [],
      "name": "ADMIN_ROLE",
      "outputs": [
        {
          "internalType": "bytes32",
          "name": "",
          "type": "bytes32"
        }
      ],
      "stateMutability": "view",
      "type": "function"
    },
    {
      "inputs": [
        {
          "internalType": "address",
          "name": "account",
          "type": "address"
        },
        {
          "internalType": "uint256",
          "name": "id",
          "type": "uint256"
        }
      ],
      "name": "balanceOf",
      "outputs": [
        {
          "internalType": "uint256",
          "name": "",
          "type": "uint256"
        }
      ],
      "stateMutability": "view",
      "type": "function"
    },
    {
      "inputs": [
        {
          "internalType": "address[]",
          "name": "accounts",
          "type": "address[]"
        },
        {
          "internalType": "uint256[]",
          "name": "ids",
          "type": "uint256[]"
        }
      ],
      "name": "balanceOfBatch",
      "outputs": [
        {
          "internalType": "uint256[]",
          "name": "",
          "type": "uint256[]"
        }
      ],
      "stateMutability": "view",
      "type": "function"
    },
    {
      "inputs": [],
      "name": "currentReviewId",
      "outputs": [
        {
          "internalType": "uint256",
          "name": "",
          "type": "uint256"
        }
      ],
      "stateMutability": "view",
      "type": "function"
    },
    {
      "inputs": [
        {
          "internalType": "address",
          "name": "reviewer_",
          "type": "address"
        },
        {
          "internalType": "uint256",
          "name": "reviewId_",
          "type": "uint256"
        }
      ],
      "name": "hasVoted",
      "outputs": [
        {
          "internalType": "bool",
          "name": "",
          "type": "bool"
        }
      ],
      "stateMutability": "view",
      "type": "function"
    },
    {
      "inputs": [
        {
          "internalType": "address",
          "name": "account",
          "type": "address"
        },
        {
          "internalType": "address",
          "name": "operator",
          "type": "address"
        }
      ],
      "name": "isApprovedForAll",
      "outputs": [
        {
          "internalType": "bool",
          "name": "",
          "type": "bool"
        }
      ],
      "stateMutability": "view",
      "type": "function"
    },
    {
      "inputs": [
        {
          "internalType": "address",
          "name": "reviewerAddr_",
          "type": "address"
        },
        {
          "internalType": "uint256",
          "name": "rating_",
          "type": "uint256"
        },
        {
          "internalType": "string",
          "name": "review_",
          "type": "string"
        }
      ],
      "name": "mintReviewNFT",
      "outputs": [
        {
          "internalType": "uint256",
          "name": "",
          "type": "uint256"
        }
      ],
      "stateMutability": "nonpayable",
      "type": "function"
    },
    {
      "inputs": [
        {
          "internalType": "address",
          "name": "author_",
          "type": "address"
        }
      ],
      "name": "numUserReviews",
      "outputs": [
        {
          "internalType": "uint256",
          "name": "",
          "type": "uint256"
        }
      ],
      "stateMutability": "view",
      "type": "function"
    },
    {
      "inputs": [],
      "name": "organization",
      "outputs": [
        {
          "components": [
            {
              "internalType": "uint256",
              "name": "orgId",
              "type": "uint256"
            },
            {
              "internalType": "string",
              "name": "name",
              "type": "string"
            },
            {
              "internalType": "address",
              "name": "addr",
              "type": "address"
            },
            {
              "internalType": "bool",
              "name": "isActive",
              "type": "bool"
            },
            {
              "internalType": "bool",
              "name": "isCreated",
              "type": "bool"
            }
          ],
          "internalType": "struct Organizations.Organization",
          "name": "",
          "type": "tuple"
        }
      ],
      "stateMutability": "view",
      "type": "function"
    },
    {
      "inputs": [],
      "name": "owner",
      "outputs": [
        {
          "internalType": "address",
          "name": "",
          "type": "address"
        }
      ],
      "stateMutability": "view",
      "type": "function"
    },
    {
      "inputs": [],
      "name": "renounceOwnership",
      "outputs": [],
      "stateMutability": "nonpayable",
      "type": "function"
    },
    {
      "inputs": [
        {
          "internalType": "uint256",
          "name": "",
          "type": "uint256"
        }
      ],
      "name": "s_downvoteCount",
      "outputs": [
        {
          "internalType": "uint256",
          "name": "",
          "type": "uint256"
        }
      ],
      "stateMutability": "view",
      "type": "function"
    },
    {
      "inputs": [
        {
          "internalType": "uint256",
          "name": "",
          "type": "uint256"
        },
        {
          "internalType": "address",
          "name": "",
          "type": "address"
        }
      ],
      "name": "s_downvotes",
      "outputs": [
        {
          "internalType": "bool",
          "name": "",
          "type": "bool"
        }
      ],
      "stateMutability": "view",
      "type": "function"
    },
    {
      "inputs": [
        {
          "internalType": "uint256",
          "name": "",
          "type": "uint256"
        }
      ],
      "name": "s_reviews",
      "outputs": [
        {
          "internalType": "uint256",
          "name": "id",
          "type": "uint256"
        },
        {
          "internalType": "address",
          "name": "author",
          "type": "address"
        },
        {
          "internalType": "uint256",
          "name": "rating",
          "type": "uint256"
        },
        {
          "internalType": "string",
          "name": "review",
          "type": "string"
        },
        {
          "internalType": "uint256",
          "name": "unixtime",
          "type": "uint256"
        },
        {
          "internalType": "uint256",
          "name": "groupId",
          "type": "uint256"
        },
        {
          "internalType": "bool",
          "name": "isVerified",
          "type": "bool"
        }
      ],
      "stateMutability": "view",
      "type": "function"
    },
    {
      "inputs": [
        {
          "internalType": "uint256",
          "name": "",
          "type": "uint256"
        }
      ],
      "name": "s_upvoteCount",
      "outputs": [
        {
          "internalType": "uint256",
          "name": "",
          "type": "uint256"
        }
      ],
      "stateMutability": "view",
      "type": "function"
    },
    {
      "inputs": [
        {
          "internalType": "uint256",
          "name": "",
          "type": "uint256"
        },
        {
          "internalType": "address",
          "name": "",
          "type": "address"
        }
      ],
      "name": "s_upvotes",
      "outputs": [
        {
          "internalType": "bool",
          "name": "",
          "type": "bool"
        }
      ],
      "stateMutability": "view",
      "type": "function"
    },
    {
      "inputs": [
        {
          "internalType": "address",
          "name": "",
          "type": "address"
        },
        {
          "internalType": "uint256",
          "name": "",
          "type": "uint256"
        }
      ],
      "name": "s_userReviews",
      "outputs": [
        {
          "internalType": "uint256",
          "name": "",
          "type": "uint256"
        }
      ],
      "stateMutability": "view",
      "type": "function"
    },
    {
      "inputs": [
        {
          "internalType": "address",
          "name": "from",
          "type": "address"
        },
        {
          "internalType": "address",
          "name": "to",
          "type": "address"
        },
        {
          "internalType": "uint256[]",
          "name": "ids",
          "type": "uint256[]"
        },
        {
          "internalType": "uint256[]",
          "name": "amounts",
          "type": "uint256[]"
        },
        {
          "internalType": "bytes",
          "name": "data",
          "type": "bytes"
        }
      ],
      "name": "safeBatchTransferFrom",
      "outputs": [],
      "stateMutability": "nonpayable",
      "type": "function"
    },
    {
      "inputs": [
        {
          "internalType": "address",
          "name": "from",
          "type": "address"
        },
        {
          "internalType": "address",
          "name": "to",
          "type": "address"
        },
        {
          "internalType": "uint256",
          "name": "id",
          "type": "uint256"
        },
        {
          "internalType": "uint256",
          "name": "amount",
          "type": "uint256"
        },
        {
          "internalType": "bytes",
          "name": "data",
          "type": "bytes"
        }
      ],
      "name": "safeTransferFrom",
      "outputs": [],
      "stateMutability": "nonpayable",
      "type": "function"
    },
    {
      "inputs": [
        {
          "internalType": "address",
          "name": "operator",
          "type": "address"
        },
        {
          "internalType": "bool",
          "name": "approved",
          "type": "bool"
        }
      ],
      "name": "setApprovalForAll",
      "outputs": [],
      "stateMutability": "nonpayable",
      "type": "function"
    },
    {
      "inputs": [
        {
          "internalType": "bytes4",
          "name": "interfaceId",
          "type": "bytes4"
        }
      ],
      "name": "supportsInterface",
      "outputs": [
        {
          "internalType": "bool",
          "name": "",
          "type": "bool"
        }
      ],
      "stateMutability": "view",
      "type": "function"
    },
    {
      "inputs": [
        {
          "internalType": "address",
          "name": "newOwner",
          "type": "address"
        }
      ],
      "name": "transferOwnership",
      "outputs": [],
      "stateMutability": "nonpayable",
      "type": "function"
    },
    {
      "inputs": [
        {
          "internalType": "uint256",
          "name": "reviewId_",
          "type": "uint256"
        },
        {
          "internalType": "uint256",
          "name": "groupId_",
          "type": "uint256"
        }
      ],
      "name": "updateReviewGroupId",
      "outputs": [],
      "stateMutability": "nonpayable",
      "type": "function"
    },
    {
      "inputs": [
        {
          "internalType": "uint256",
          "name": "",
          "type": "uint256"
        }
      ],
      "name": "uri",
      "outputs": [
        {
          "internalType": "string",
          "name": "",
          "type": "string"
        }
      ],
      "stateMutability": "view",
      "type": "function"
    },
    {
      "inputs": [
        {
          "internalType": "address",
          "name": "reviewer_",
          "type": "address"
        },
        {
          "internalType": "uint256",
          "name": "reviewId_",
          "type": "uint256"
        },
        {
          "internalType": "bool",
          "name": "isUpvote_",
          "type": "bool"
        }
      ],
      "name": "voteOnReview",
      "outputs": [],
      "stateMutability": "nonpayable",
      "type": "function"
    }
  ],
  "bytecode": "0x60a06040523480156200001157600080fd5b50604051620027cc380380620027cc8339810160408190526200003491620003bc565b826200004081620001b8565b506200004c33620001d1565b6040805160a08101825287815260208082018890526001600160a01b038716928201929092526001606082018190526080820152600b8881558751919290916200009d91600c91908a01906200022c565b506040828101516002909201805460608501516080909501511515600160a81b0260ff60a81b19951515600160a01b026001600160a81b03199092166001600160a01b0395861617919091179490941693909317909255600e80548583166001600160a01b03199182168117909255600f805493861693909116929092179091558151628c84e760e41b8152915190916308c84e70916004808301926020929190829003018186803b1580156200015357600080fd5b505afa15801562000168573d6000803e3d6000fd5b505050506040513d601f19601f820116820180604052508101906200018e919062000467565b60808181525050620001ac600a6200022360201b620010a01760201c565b505050505050620004be565b8051620001cd9060029060208401906200022c565b5050565b600380546001600160a01b038381166001600160a01b0319831681179093556040519116919082907f8be0079c531659141344cd1fd0a4f28419497f9722a3daafe3b4186f6b6457e090600090a35050565b80546001019055565b8280546200023a9062000481565b90600052602060002090601f0160209004810192826200025e5760008555620002a9565b82601f106200027957805160ff1916838001178555620002a9565b82800160010185558215620002a9579182015b82811115620002a95782518255916020019190600101906200028c565b50620002b7929150620002bb565b5090565b5b80821115620002b75760008155600101620002bc565b634e487b7160e01b600052604160045260246000fd5b600082601f830112620002fa57600080fd5b81516001600160401b0380821115620003175762000317620002d2565b604051601f8301601f19908116603f01168101908282118183101715620003425762000342620002d2565b816040528381526020925086838588010111156200035f57600080fd5b600091505b8382101562000383578582018301518183018401529082019062000364565b83821115620003955760008385830101525b9695505050505050565b80516001600160a01b0381168114620003b757600080fd5b919050565b60008060008060008060c08789031215620003d657600080fd5b865160208801519096506001600160401b0380821115620003f657600080fd5b620004048a838b01620002e8565b96506200041460408a016200039f565b955060608901519150808211156200042b57600080fd5b506200043a89828a01620002e8565b9350506200044b608088016200039f565b91506200045b60a088016200039f565b90509295509295509295565b6000602082840312156200047a57600080fd5b5051919050565b600181811c908216806200049657607f821691505b60208210811415620004b857634e487b7160e01b600052602260045260246000fd5b50919050565b6080516122f2620004da60003960006107f101526122f26000f3fe608060405234801561001057600080fd5b50600436106101625760003560e01c80638da5cb5b116100ce578063e985e9c511610087578063e985e9c51461032c578063f15f11d314610368578063f22f34f114610396578063f242432a146103bc578063f2fde38b146103cf578063f81fbe60146103e2578063fecb24ef1461040b57600080fd5b80638da5cb5b146102bd578063a22cb465146102d8578063a2782a51146102eb578063a58f502a146102f3578063be92042d14610306578063ca8883101461031957600080fd5b80633c0d92d1116101205780633c0d92d11461021a578063425458251461022d5780634e1273f4146102405780636f7fa05f14610260578063715018a61461028e57806375b238fc1461029657600080fd5b8062fdd58e1461016757806301ffc9a71461018d5780630e89341c146101b0578063114f8eed146101d057806323bd4d7a146101f05780632eb2c2d614610205575b600080fd5b61017a61017536600461192c565b61042b565b6040519081526020015b60405180910390f35b6101a061019b36600461196c565b6104c2565b6040519015158152602001610184565b6101c36101be366004611989565b610514565b60405161018491906119ef565b61017a6101de366004611989565b60086020526000908152604090205481565b6101f86105a8565b6040516101849190611a02565b610218610213366004611bb4565b6106b7565b005b61017a610228366004611c5e565b61074e565b6101a061023b36600461192c565b610a15565b61025361024e366004611cc9565b610a6f565b6040516101849190611dcf565b6101a061026e366004611de2565b600760209081526000928352604080842090915290825290205460ff1681565b610218610b99565b61017a7fa49807205ce4d355092ef5a8a18f56e8913cf4a201fbe287825b095693c2177581565b6003546040516001600160a01b039091168152602001610184565b6102186102e6366004611e1e565b610bff565b61017a610c0e565b610218610301366004611e48565b610c1e565b61017a61031436600461192c565b610c8e565b610218610327366004611e6a565b610cbf565b6101a061033a366004611ea6565b6001600160a01b03918216600090815260016020908152604080832093909416825291909152205460ff1690565b6101a0610376366004611de2565b600560209081526000928352604080842090915290825290205460ff1681565b6103a96103a4366004611989565b610e7a565b6040516101849796959493929190611ed0565b6102186103ca366004611f1e565b610f4e565b6102186103dd366004611f83565b610fd5565b61017a6103f0366004611f83565b6001600160a01b031660009081526009602052604090205490565b61017a610419366004611989565b60066020526000908152604090205481565b60006001600160a01b03831661049c5760405162461bcd60e51b815260206004820152602b60248201527f455243313135353a2062616c616e636520717565727920666f7220746865207a60448201526a65726f206164647265737360a81b60648201526084015b60405180910390fd5b506000908152602081815260408083206001600160a01b03949094168352929052205490565b60006001600160e01b03198216636cdb3d1360e11b14806104f357506001600160e01b031982166303a24d0760e21b145b8061050e57506301ffc9a760e01b6001600160e01b03198316145b92915050565b60606002805461052390611f9e565b80601f016020809104026020016040519081016040528092919081815260200182805461054f90611f9e565b801561059c5780601f106105715761010080835404028352916020019161059c565b820191906000526020600020905b81548152906001019060200180831161057f57829003601f168201915b50505050509050919050565b6040805160a081018252600080825260606020830181905292820181905291810182905260808101919091526040805160a08101909152600b80548252600c80546020840191906105f890611f9e565b80601f016020809104026020016040519081016040528092919081815260200182805461062490611f9e565b80156106715780601f1061064657610100808354040283529160200191610671565b820191906000526020600020905b81548152906001019060200180831161065457829003601f168201915b5050509183525050600291909101546001600160a01b038116602083015260ff600160a01b8204811615156040840152600160a81b909104161515606090910152919050565b6001600160a01b0385163314806106d357506106d3853361033a565b61073a5760405162461bcd60e51b815260206004820152603260248201527f455243313135353a207472616e736665722063616c6c6572206973206e6f74206044820152711bdddb995c881b9bdc88185c1c1c9bdd995960721b6064820152608401610493565b61074785858585856110a9565b5050505050565b60008280158061075e5750606481115b1561077c576040516312f3735d60e31b815260040160405180910390fd5b600f546001600160a01b031633146107a757604051639f3e0d1f60e01b815260040160405180910390fd5b60006107b2600a5490565b90506107d08682600160405180602001604052806000815250611286565b600e54604051627eeac760e11b81526001600160a01b0388811660048301527f0000000000000000000000000000000000000000000000000000000000000000602483015260009216908290829062fdd58e9060440160206040518083038186803b15801561083e57600080fd5b505afa158015610852573d6000803e3d6000fd5b505050506040513d601f19601f820116820180604052508101906108769190611fd9565b11156108dc576040516310e6a78560e11b81526001600160a01b0389811660048301528216906321cd4f0a90602401600060405180830381600087803b1580156108bf57600080fd5b505af11580156108d3573d6000803e3d6000fd5b50505050600191505b6040805160e0810182528481526001600160a01b038a811660208084019182528385018c8152606085018c8152426080870152600060a0870181905289151560c08801528a815260048452969096208551815592516001840180546001600160a01b0319169190951617909355915160028201559251805192938493909261096b926003850192910190611877565b506080820151600482015560a0820151600582015560c0909101516006909101805491151560ff199092169190911790556001600160a01b0389166000908152600960209081526040822080546001810182559083529120018490556109d5600a80546001019055565b6040518481527ffa039017104499194cbaee4a06ab081a02aff6ea3fc083959a88f5dd9544add99060200160405180910390a15091979650505050505050565b60008181526005602090815260408083206001600160a01b038616845290915281205460ff1680610a68575060008281526007602090815260408083206001600160a01b038716845290915290205460ff165b9392505050565b60608151835114610ad45760405162461bcd60e51b815260206004820152602960248201527f455243313135353a206163636f756e747320616e6420696473206c656e677468604482015268040dad2e6dac2e8c6d60bb1b6064820152608401610493565b6000835167ffffffffffffffff811115610af057610af0611a5e565b604051908082528060200260200182016040528015610b19578160200160208202803683370190505b50905060005b8451811015610b9157610b64858281518110610b3d57610b3d611ff2565b6020026020010151858381518110610b5757610b57611ff2565b602002602001015161042b565b828281518110610b7657610b76611ff2565b6020908102919091010152610b8a8161201e565b9050610b1f565b509392505050565b6003546001600160a01b03163314610bf35760405162461bcd60e51b815260206004820181905260248201527f4f776e61626c653a2063616c6c6572206973206e6f7420746865206f776e65726044820152606401610493565b610bfd600061139a565b565b610c0a3383836113ec565b5050565b6000610c19600a5490565b905090565b600f546001600160a01b03163314610c4957604051639f3e0d1f60e01b815260040160405180910390fd5b60008281526004602052604090206005015415610c7957604051636bed3e5d60e11b815260040160405180910390fd5b60009182526004602052604090912060050155565b60096020528160005260406000208181548110610caa57600080fd5b90600052602060002001600091509150505481565b6000828152600460205260409020600101548390839083906001600160a01b0380851691161415610d0357604051634ec7a74d60e11b815260040160405180910390fd5b60008281526007602090815260408083206001600160a01b038716845290915290205460ff16151560011480610d60575060008281526005602090815260408083206001600160a01b038716845290915290205460ff1615156001145b15610d7e57604051632ea388a760e11b815260040160405180910390fd5b60018415151415610de65760008581526005602090815260408083206001600160a01b038a1684528252808320805460ff1916600190811790915588845260069092529091205490610dd1908290612039565b60008781526006602052604090205550610e3f565b60008581526007602090815260408083206001600160a01b038a1684528252808320805460ff1916600190811790915588845260089092529091205490610e2e908290612039565b600087815260086020526040902055505b6040518581527f9ea1d6dcc33efa8df0347b6875147497d067d8eed15435cc7ad0db9891addd079060200160405180910390a1505050505050565b600460205260009081526040902080546001820154600283015460038401805493946001600160a01b0390931693919291610eb490611f9e565b80601f0160208091040260200160405190810160405280929190818152602001828054610ee090611f9e565b8015610f2d5780601f10610f0257610100808354040283529160200191610f2d565b820191906000526020600020905b815481529060010190602001808311610f1057829003601f168201915b50505050600483015460058401546006909401549293909290915060ff1687565b6001600160a01b038516331480610f6a5750610f6a853361033a565b610fc85760405162461bcd60e51b815260206004820152602960248201527f455243313135353a2063616c6c6572206973206e6f74206f776e6572206e6f7260448201526808185c1c1c9bdd995960ba1b6064820152608401610493565b61074785858585856114cd565b6003546001600160a01b0316331461102f5760405162461bcd60e51b815260206004820181905260248201527f4f776e61626c653a2063616c6c6572206973206e6f7420746865206f776e65726044820152606401610493565b6001600160a01b0381166110945760405162461bcd60e51b815260206004820152602660248201527f4f776e61626c653a206e6577206f776e657220697320746865207a65726f206160448201526564647265737360d01b6064820152608401610493565b61109d8161139a565b50565b80546001019055565b815183511461110b5760405162461bcd60e51b815260206004820152602860248201527f455243313135353a2069647320616e6420616d6f756e7473206c656e677468206044820152670dad2e6dac2e8c6d60c31b6064820152608401610493565b6001600160a01b0384166111315760405162461bcd60e51b815260040161049390612051565b3360005b845181101561121857600085828151811061115257611152611ff2565b60200260200101519050600085838151811061117057611170611ff2565b602090810291909101810151600084815280835260408082206001600160a01b038e1683529093529190912054909150818110156111c05760405162461bcd60e51b815260040161049390612096565b6000838152602081815260408083206001600160a01b038e8116855292528083208585039055908b168252812080548492906111fd908490612039565b92505081905550505050806112119061201e565b9050611135565b50846001600160a01b0316866001600160a01b0316826001600160a01b03167f4a39dc06d4c0dbc64b70af90fd698a233a518aa5d07e595d983b8c0526c8f7fb87876040516112689291906120e0565b60405180910390a461127e8187878787876115f7565b505050505050565b6001600160a01b0384166112e65760405162461bcd60e51b815260206004820152602160248201527f455243313135353a206d696e7420746f20746865207a65726f206164647265736044820152607360f81b6064820152608401610493565b3360006112f285611762565b905060006112ff85611762565b90506000868152602081815260408083206001600160a01b038b16845290915281208054879290611331908490612039565b909155505060408051878152602081018790526001600160a01b03808a1692600092918716917fc3d58168c5ae7397731d063d5bbf3d657854427343f4c083240f7aacaa2d0f62910160405180910390a4611391836000898989896117ad565b50505050505050565b600380546001600160a01b038381166001600160a01b0319831681179093556040519116919082907f8be0079c531659141344cd1fd0a4f28419497f9722a3daafe3b4186f6b6457e090600090a35050565b816001600160a01b0316836001600160a01b031614156114605760405162461bcd60e51b815260206004820152602960248201527f455243313135353a2073657474696e6720617070726f76616c20737461747573604482015268103337b91039b2b63360b91b6064820152608401610493565b6001600160a01b03838116600081815260016020908152604080832094871680845294825291829020805460ff191686151590811790915591519182527f17307eab39ab6107e8899845ad3d59bd9653f200f220920489ca2b5937696c31910160405180910390a3505050565b6001600160a01b0384166114f35760405162461bcd60e51b815260040161049390612051565b3360006114ff85611762565b9050600061150c85611762565b90506000868152602081815260408083206001600160a01b038c1684529091529020548581101561154f5760405162461bcd60e51b815260040161049390612096565b6000878152602081815260408083206001600160a01b038d8116855292528083208985039055908a1682528120805488929061158c908490612039565b909155505060408051888152602081018890526001600160a01b03808b16928c821692918816917fc3d58168c5ae7397731d063d5bbf3d657854427343f4c083240f7aacaa2d0f62910160405180910390a46115ec848a8a8a8a8a6117ad565b505050505050505050565b6001600160a01b0384163b1561127e5760405163bc197c8160e01b81526001600160a01b0385169063bc197c819061163b908990899088908890889060040161210e565b602060405180830381600087803b15801561165557600080fd5b505af1925050508015611685575060408051601f3d908101601f191682019092526116829181019061216c565b60015b61173257611691612189565b806308c379a014156116cb57506116a66121a5565b806116b157506116cd565b8060405162461bcd60e51b815260040161049391906119ef565b505b60405162461bcd60e51b815260206004820152603460248201527f455243313135353a207472616e7366657220746f206e6f6e20455243313135356044820152732932b1b2b4bb32b91034b6b83632b6b2b73a32b960611b6064820152608401610493565b6001600160e01b0319811663bc197c8160e01b146113915760405162461bcd60e51b81526004016104939061222f565b6040805160018082528183019092526060916000919060208083019080368337019050509050828160008151811061179c5761179c611ff2565b602090810291909101015292915050565b6001600160a01b0384163b1561127e5760405163f23a6e6160e01b81526001600160a01b0385169063f23a6e61906117f19089908990889088908890600401612277565b602060405180830381600087803b15801561180b57600080fd5b505af192505050801561183b575060408051601f3d908101601f191682019092526118389181019061216c565b60015b61184757611691612189565b6001600160e01b0319811663f23a6e6160e01b146113915760405162461bcd60e51b81526004016104939061222f565b82805461188390611f9e565b90600052602060002090601f0160209004810192826118a557600085556118eb565b82601f106118be57805160ff19168380011785556118eb565b828001600101855582156118eb579182015b828111156118eb5782518255916020019190600101906118d0565b506118f79291506118fb565b5090565b5b808211156118f757600081556001016118fc565b80356001600160a01b038116811461192757600080fd5b919050565b6000806040838503121561193f57600080fd5b61194883611910565b946020939093013593505050565b6001600160e01b03198116811461109d57600080fd5b60006020828403121561197e57600080fd5b8135610a6881611956565b60006020828403121561199b57600080fd5b5035919050565b6000815180845260005b818110156119c8576020818501810151868301820152016119ac565b818111156119da576000602083870101525b50601f01601f19169290920160200192915050565b602081526000610a6860208301846119a2565b60208152815160208201526000602083015160a06040840152611a2860c08401826119a2565b905060018060a01b0360408501511660608401526060840151151560808401526080840151151560a08401528091505092915050565b634e487b7160e01b600052604160045260246000fd5b601f8201601f1916810167ffffffffffffffff81118282101715611a9a57611a9a611a5e565b6040525050565b600067ffffffffffffffff821115611abb57611abb611a5e565b5060051b60200190565b600082601f830112611ad657600080fd5b81356020611ae382611aa1565b604051611af08282611a74565b83815260059390931b8501820192828101915086841115611b1057600080fd5b8286015b84811015611b2b5780358352918301918301611b14565b509695505050505050565b600067ffffffffffffffff831115611b5057611b50611a5e565b604051611b67601f8501601f191660200182611a74565b809150838152848484011115611b7c57600080fd5b83836020830137600060208583010152509392505050565b600082601f830112611ba557600080fd5b610a6883833560208501611b36565b600080600080600060a08688031215611bcc57600080fd5b611bd586611910565b9450611be360208701611910565b9350604086013567ffffffffffffffff80821115611c0057600080fd5b611c0c89838a01611ac5565b94506060880135915080821115611c2257600080fd5b611c2e89838a01611ac5565b93506080880135915080821115611c4457600080fd5b50611c5188828901611b94565b9150509295509295909350565b600080600060608486031215611c7357600080fd5b611c7c84611910565b925060208401359150604084013567ffffffffffffffff811115611c9f57600080fd5b8401601f81018613611cb057600080fd5b611cbf86823560208401611b36565b9150509250925092565b60008060408385031215611cdc57600080fd5b823567ffffffffffffffff80821115611cf457600080fd5b818501915085601f830112611d0857600080fd5b81356020611d1582611aa1565b604051611d228282611a74565b83815260059390931b8501820192828101915089841115611d4257600080fd5b948201945b83861015611d6757611d5886611910565b82529482019490820190611d47565b96505086013592505080821115611d7d57600080fd5b50611d8a85828601611ac5565b9150509250929050565b600081518084526020808501945080840160005b83811015611dc457815187529582019590820190600101611da8565b509495945050505050565b602081526000610a686020830184611d94565b60008060408385031215611df557600080fd5b82359150611e0560208401611910565b90509250929050565b8035801515811461192757600080fd5b60008060408385031215611e3157600080fd5b611e3a83611910565b9150611e0560208401611e0e565b60008060408385031215611e5b57600080fd5b50508035926020909101359150565b600080600060608486031215611e7f57600080fd5b611e8884611910565b925060208401359150611e9d60408501611e0e565b90509250925092565b60008060408385031215611eb957600080fd5b611ec283611910565b9150611e0560208401611910565b87815260018060a01b038716602082015285604082015260e060608201526000611efd60e08301876119a2565b60808301959095525060a0810192909252151560c090910152949350505050565b600080600080600060a08688031215611f3657600080fd5b611f3f86611910565b9450611f4d60208701611910565b93506040860135925060608601359150608086013567ffffffffffffffff811115611f7757600080fd5b611c5188828901611b94565b600060208284031215611f9557600080fd5b610a6882611910565b600181811c90821680611fb257607f821691505b60208210811415611fd357634e487b7160e01b600052602260045260246000fd5b50919050565b600060208284031215611feb57600080fd5b5051919050565b634e487b7160e01b600052603260045260246000fd5b634e487b7160e01b600052601160045260246000fd5b600060001982141561203257612032612008565b5060010190565b6000821982111561204c5761204c612008565b500190565b60208082526025908201527f455243313135353a207472616e7366657220746f20746865207a65726f206164604082015264647265737360d81b606082015260800190565b6020808252602a908201527f455243313135353a20696e73756666696369656e742062616c616e636520666f60408201526939103a3930b739b332b960b11b606082015260800190565b6040815260006120f36040830185611d94565b82810360208401526121058185611d94565b95945050505050565b6001600160a01b0386811682528516602082015260a06040820181905260009061213a90830186611d94565b828103606084015261214c8186611d94565b9050828103608084015261216081856119a2565b98975050505050505050565b60006020828403121561217e57600080fd5b8151610a6881611956565b600060033d11156121a25760046000803e5060005160e01c5b90565b600060443d10156121b35790565b6040516003193d81016004833e81513d67ffffffffffffffff81602484011181841117156121e357505050505090565b82850191508151818111156121fb5750505050505090565b843d87010160208285010111156122155750505050505090565b61222460208286010187611a74565b509095945050505050565b60208082526028908201527f455243313135353a204552433131353552656365697665722072656a656374656040820152676420746f6b656e7360c01b606082015260800190565b6001600160a01b03868116825285166020820152604081018490526060810183905260a0608082018190526000906122b1908301846119a2565b97965050505050505056fea26469706673582212207602940f32f6af37da1f7430b0edaed5ed9216cf7aa1cf773cbd915c2ab6d99464736f6c63430008090033",
  "linkReferences": {},
  "deployedLinkReferences": {}
}