{
  "_format": "hh-sol-artifact-1",
  "contractName": "Appraiser",
  "sourceName": "contracts/Appraiser.sol",
  "abi": [
    {
      "inputs": [
        {
          "internalType": "address",
          "name": "reviewerContract_",
          "type": "address"
        }
      ],
      "stateMutability": "nonpayable",
      "type": "constructor"
    },
    {
      "inputs": [],
      "name": "Appraiser__DuplicateOrgName",
      "type": "error"
    },
    {
      "anonymous": false,
      "inputs": [
        {
          "indexed": false,
          "internalType": "uint256",
          "name": "orgId",
          "type": "uint256"
        }
      ],
      "name": "LogAddOrganization",
      "type": "event"
    },
    {
      "anonymous": false,
      "inputs": [
        {
          "indexed": true,
          "internalType": "address",
          "name": "previousOwner",
          "type": "address"
        },
        {
          "indexed": true,
          "internalType": "address",
          "name": "newOwner",
          "type": "address"
        }
      ],
      "name": "OwnershipTransferred",
      "type": "event"
    },
    {
      "inputs": [
        {
          "internalType": "string",
          "name": "name_",
          "type": "string"
        },
        {
          "internalType": "address",
          "name": "addr_",
          "type": "address"
        },
        {
          "internalType": "string",
          "name": "URI_",
          "type": "string"
        }
      ],
      "name": "addOrganization",
      "outputs": [],
      "stateMutability": "nonpayable",
      "type": "function"
    },
    {
      "inputs": [],
      "name": "numberOrganizations",
      "outputs": [
        {
          "internalType": "uint256",
          "name": "",
          "type": "uint256"
        }
      ],
      "stateMutability": "view",
      "type": "function"
    },
    {
      "inputs": [],
      "name": "owner",
      "outputs": [
        {
          "internalType": "address",
          "name": "",
          "type": "address"
        }
      ],
      "stateMutability": "view",
      "type": "function"
    },
    {
      "inputs": [],
      "name": "renounceOwnership",
      "outputs": [],
      "stateMutability": "nonpayable",
      "type": "function"
    },
    {
      "inputs": [
        {
          "internalType": "uint256",
          "name": "",
          "type": "uint256"
        }
      ],
      "name": "s_deployedContracts",
      "outputs": [
        {
          "internalType": "address",
          "name": "AppraiserOrganization",
          "type": "address"
        },
        {
          "internalType": "address",
          "name": "Verifier",
          "type": "address"
        }
      ],
      "stateMutability": "view",
      "type": "function"
    },
    {
      "inputs": [],
      "name": "s_orgIds",
      "outputs": [
        {
          "internalType": "uint256",
          "name": "_value",
          "type": "uint256"
        }
      ],
      "stateMutability": "view",
      "type": "function"
    },
    {
      "inputs": [
        {
          "internalType": "uint256",
          "name": "",
          "type": "uint256"
        }
      ],
      "name": "s_organizations",
      "outputs": [
        {
          "internalType": "uint256",
          "name": "",
          "type": "uint256"
        }
      ],
      "stateMutability": "view",
      "type": "function"
    },
    {
      "inputs": [
        {
          "internalType": "address",
          "name": "newOwner",
          "type": "address"
        }
      ],
      "name": "transferOwnership",
      "outputs": [],
      "stateMutability": "nonpayable",
      "type": "function"
    }
  ],
  "bytecode": "0x608060405234801561001057600080fd5b506040516162f43803806162f483398101604081905261002f916100ad565b6100383361005d565b600580546001600160a01b0319166001600160a01b03929092169190911790556100db565b600080546001600160a01b038381166001600160a01b0319831681178455604051919092169283917f8be0079c531659141344cd1fd0a4f28419497f9722a3daafe3b4186f6b6457e09190a35050565b6000602082840312156100be578081fd5b81516001600160a01b03811681146100d4578182fd5b9392505050565b61620a806100ea6000396000f3fe60806040523480156200001157600080fd5b5060043610620000935760003560e01c80639b90d2d511620000625780639b90d2d5146200014e578063c22dea711462000165578063f190b803146200016f578063f2fde38b146200017a57600080fd5b8063715018a61462000098578063777ccdc814620000a4578063863e0ea414620000da5780638da5cb5b1462000132575b600080fd5b620000a262000191565b005b620000c7620000b536600462000738565b60026020526000908152604090205481565b6040519081526020015b60405180910390f35b62000111620000eb36600462000738565b600360205260009081526040902080546001909101546001600160a01b03918216911682565b604080516001600160a01b03938416815292909116602083015201620000d1565b6000546040516001600160a01b039091168152602001620000d1565b620000a26200015f366004620006ae565b620001d5565b620000c762000438565b600154620000c79081565b620000a26200018b3660046200068a565b62000449565b6000546001600160a01b03163314620001c75760405162461bcd60e51b8152600401620001be90620007d8565b60405180910390fd5b620001d36000620004eb565b565b6000546001600160a01b03163314620002025760405162461bcd60e51b8152600401620001be90620007d8565b6004858560405162000216929190620007c8565b908152602001604051809103902054600114156200024757604051630460a91f60e51b815260040160405180910390fd5b60006200025360015490565b90506001600260008381526020019081526020016000208190555060016004878760405162000284929190620007c8565b90815260405190819003602001902055620002a3600180546001019055565b60006200031d8288888080601f01602080910402602001604051908101604052809392919081815260200183838082843760009201919091525050604080516020601f8b018190048102820181019092528981528b9350915089908990819084018382808284376000920191909152506200053b92505050565b9050600062000332838989898989886200059b565b600554604051636397eef160e11b8152600481018690526001600160a01b03808416602483015292935091169063c72fdde290604401600060405180830381600087803b1580156200038357600080fd5b505af115801562000398573d6000803e3d6000fd5b50506040805180820182526001600160a01b038086168252868116602080840191825260008a81526003909152849020925183549083166001600160a01b0319918216178455905160019093018054939092169216919091179055517f72b340853204e185bbbdf872eae9ed3a78da0b4aa9bf86fbc99364f273fabacf925062000426915085815260200190565b60405180910390a15050505050505050565b60006200044460015490565b905090565b6000546001600160a01b03163314620004765760405162461bcd60e51b8152600401620001be90620007d8565b6001600160a01b038116620004dd5760405162461bcd60e51b815260206004820152602660248201527f4f776e61626c653a206e6577206f776e657220697320746865207a65726f206160448201526564647265737360d01b6064820152608401620001be565b620004e881620004eb565b50565b600080546001600160a01b038381166001600160a01b0319831681178455604051919092169283917f8be0079c531659141344cd1fd0a4f28419497f9722a3daafe3b4186f6b6457e09190a35050565b60008085858585620005556000546001600160a01b031690565b604051620005639062000607565b620005739594939291906200086f565b604051809103906000f08015801562000590573d6000803e3d6000fd5b509695505050505050565b60008088888888888888600560009054906101000a90046001600160a01b0316604051620005c99062000615565b620005dc9897969594939291906200080d565b604051809103906000f080158015620005f9573d6000803e3d6000fd5b509998505050505050505050565b6131e880620008c583390190565b6127288062003aad83390190565b80356001600160a01b03811681146200063b57600080fd5b919050565b60008083601f84011262000652578182fd5b50813567ffffffffffffffff8111156200066a578182fd5b6020830191508360208285010111156200068357600080fd5b9250929050565b6000602082840312156200069c578081fd5b620006a78262000623565b9392505050565b600080600080600060608688031215620006c6578081fd5b853567ffffffffffffffff80821115620006de578283fd5b620006ec89838a0162000640565b9097509550859150620007026020890162000623565b9450604088013591508082111562000718578283fd5b50620007278882890162000640565b969995985093965092949392505050565b6000602082840312156200074a578081fd5b5035919050565b81835281816020850137506000828201602090810191909152601f909101601f19169091010190565b60008151808452815b81811015620007a15760208185018101518683018201520162000783565b81811115620007b35782602083870101525b50601f01601f19169290920160200192915050565b8183823760009101908152919050565b6020808252818101527f4f776e61626c653a2063616c6c6572206973206e6f7420746865206f776e6572604082015260600190565b88815260c0602082015260006200082960c08301898b62000751565b6001600160a01b03888116604085015283820360608501526200084e82888a62000751565b9250808616608085015280851660a085015250509998505050505050505050565b85815260a0602082015260006200088a60a08301876200077a565b6001600160a01b0386811660408501528382036060850152620008ae82876200077a565b925080851660808501525050969550505050505056fe6080604052655af3107a40006005553480156200001b57600080fd5b50604051620031e8380380620031e88339810160408190526200003e91620007b2565b816200004a81620000ec565b50620000563362000105565b620000618162000157565b600685905583516200007b90600790602087019062000648565b50620000a28360006103e8604051806020016040528060008152506200022c60201b60201c565b620000ce7fa49807205ce4d355092ef5a8a18f56e8913cf4a201fbe287825b095693c21775846200034a565b5050600980546001600160a01b031916331790555062000a55915050565b80516200010190600290602084019062000648565b5050565b600380546001600160a01b038381166001600160a01b0319831681179093556040519116919082907f8be0079c531659141344cd1fd0a4f28419497f9722a3daafe3b4186f6b6457e090600090a35050565b6003546001600160a01b03163314620001b75760405162461bcd60e51b815260206004820181905260248201527f4f776e61626c653a2063616c6c6572206973206e6f7420746865206f776e657260448201526064015b60405180910390fd5b6001600160a01b0381166200021e5760405162461bcd60e51b815260206004820152602660248201527f4f776e61626c653a206e6577206f776e657220697320746865207a65726f206160448201526564647265737360d01b6064820152608401620001ae565b620002298162000105565b50565b6001600160a01b0384166200028e5760405162461bcd60e51b815260206004820152602160248201527f455243313135353a206d696e7420746f20746865207a65726f206164647265736044820152607360f81b6064820152608401620001ae565b3360006200029c8562000356565b90506000620002ab8562000356565b90506000868152602081815260408083206001600160a01b038b16845290915281208054879290620002df908490620008d3565b909155505060408051878152602081018790526001600160a01b03808a1692600092918716917fc3d58168c5ae7397731d063d5bbf3d657854427343f4c083240f7aacaa2d0f62910160405180910390a46200034183600089898989620003b8565b50505050505050565b62000101828262000595565b604080516001808252818301909252606091600091906020808301908036833701905050905082816000815181106200039f57634e487b7160e01b600052603260045260246000fd5b602090810291909101015292915050565b505050505050565b620003d7846001600160a01b03166200063960201b62000f391760201c565b15620003b05760405163f23a6e6160e01b81526001600160a01b0385169063f23a6e619062000413908990899088908890889060040162000877565b602060405180830381600087803b1580156200042e57600080fd5b505af192505050801562000461575060408051601f3d908101601f191682019092526200045e9181019062000781565b60015b620005225762000470620009ad565b806308c379a01415620004b1575062000488620009c6565b80620004955750620004b3565b8060405162461bcd60e51b8152600401620001ae9190620008be565b505b60405162461bcd60e51b815260206004820152603460248201527f455243313135353a207472616e7366657220746f206e6f6e204552433131353560448201527f526563656976657220696d706c656d656e7465720000000000000000000000006064820152608401620001ae565b6001600160e01b0319811663f23a6e6160e01b14620003415760405162461bcd60e51b815260206004820152602860248201527f455243313135353a204552433131353552656365697665722072656a656374656044820152676420746f6b656e7360c01b6064820152608401620001ae565b60008281526004602090815260408083206001600160a01b038516845290915290205460ff16620001015760008281526004602090815260408083206001600160a01b03851684529091529020805460ff19166001179055620005f53390565b6001600160a01b0316816001600160a01b0316837f2f8788117e7eff1d82e926ec794901d17c78024a50270940304540a733656f0d60405160405180910390a45050565b6001600160a01b03163b151590565b82805462000656906200092b565b90600052602060002090601f0160209004810192826200067a5760008555620006c5565b82601f106200069557805160ff1916838001178555620006c5565b82800160010185558215620006c5579182015b82811115620006c5578251825591602001919060010190620006a8565b50620006d3929150620006d7565b5090565b5b80821115620006d35760008155600101620006d8565b80516001600160a01b03811681146200070657600080fd5b919050565b600082601f8301126200071c578081fd5b81516001600160401b0381111562000738576200073862000997565b60405162000751601f8301601f19166020018262000968565b81815284602083860101111562000766578283fd5b62000779826020830160208701620008f8565b949350505050565b60006020828403121562000793578081fd5b81516001600160e01b031981168114620007ab578182fd5b9392505050565b600080600080600060a08688031215620007ca578081fd5b855160208701519095506001600160401b0380821115620007e9578283fd5b620007f789838a016200070b565b95506200080760408901620006ee565b945060608801519150808211156200081d578283fd5b506200082c888289016200070b565b9250506200083d60808701620006ee565b90509295509295909350565b6000815180845262000863816020860160208601620008f8565b601f01601f19169290920160200192915050565b6001600160a01b03868116825285166020820152604081018490526060810183905260a060808201819052600090620008b39083018462000849565b979650505050505050565b602081526000620007ab602083018462000849565b60008219821115620008f357634e487b7160e01b81526011600452602481fd5b500190565b60005b8381101562000915578181015183820152602001620008fb565b8381111562000925576000848401525b50505050565b600181811c908216806200094057607f821691505b602082108114156200096257634e487b7160e01b600052602260045260246000fd5b50919050565b601f8201601f191681016001600160401b038111828210171562000990576200099062000997565b6040525050565b634e487b7160e01b600052604160045260246000fd5b600060033d1115620009c357600481823e5160e01c5b90565b600060443d1015620009d55790565b6040516003193d81016004833e81513d6001600160401b03808311602484018310171562000a0557505050505090565b828501915081518181111562000a1e5750505050505090565b843d870101602082850101111562000a395750505050505090565b62000a4a6020828601018762000968565b509095945050505050565b6127838062000a656000396000f3fe6080604052600436106101915760003560e01c806375b238fc116100e7578063b76968c111610095578063dc75be8c11610064578063dc75be8c146104df578063e985e9c5146104ff578063f242432a14610548578063f2fde38b1461056857600080fd5b8063b76968c114610462578063bba1964f14610478578063c0bda8de1461048d578063d547741f146104bf57600080fd5b806375b238fc146103a75780638da5cb5b146103db57806390ffedf0146103f957806391d148541461040c578063a217fddf146101f9578063a22cb4651461042c578063a71f48a41461044c57600080fd5b80632eb2c2d6116101445780632eb2c2d6146102ad5780632f2ff15d146102cd57806336568abe146102ed5780633c62afb51461030d5780634751b422146103455780634e1273f414610365578063715018a61461039257600080fd5b8062fdd58e1461019657806301ffc9a7146101c957806308c84e70146101f95780630e89341c1461020e57806321cd4f0a1461023b578063248a9ca31461025d57806324d7806c1461028d575b600080fd5b3480156101a257600080fd5b506101b66101b1366004611fcc565b610588565b6040519081526020015b60405180910390f35b3480156101d557600080fd5b506101e96101e4366004612173565b61061f565b60405190151581526020016101c0565b34801561020557600080fd5b506101b6600081565b34801561021a57600080fd5b5061022e610229366004612137565b610630565b6040516101c09190612364565b34801561024757600080fd5b5061025b610256366004611e0a565b6106c4565b005b34801561026957600080fd5b506101b6610278366004612137565b60009081526004602052604090206001015490565b34801561029957600080fd5b506101e96102a8366004611e0a565b61078b565b3480156102b957600080fd5b5061025b6102c8366004611e8c565b6107b7565b3480156102d957600080fd5b5061025b6102e836600461214f565b61084e565b3480156102f957600080fd5b5061025b61030836600461214f565b610873565b34801561031957600080fd5b5060095461032d906001600160a01b031681565b6040516001600160a01b0390911681526020016101c0565b34801561035157600080fd5b5061025b6103603660046120c3565b6108f1565b34801561037157600080fd5b50610385610380366004611ff7565b610936565b6040516101c09190612323565b34801561039e57600080fd5b5061025b610a97565b3480156103b357600080fd5b506101b67fa49807205ce4d355092ef5a8a18f56e8913cf4a201fbe287825b095693c2177581565b3480156103e757600080fd5b506003546001600160a01b031661032d565b61025b610407366004611e0a565b610acd565b34801561041857600080fd5b506101e961042736600461214f565b610c31565b34801561043857600080fd5b5061025b610447366004611f9b565b610c5c565b34801561045857600080fd5b506101b660055481565b34801561046e57600080fd5b506101b660065481565b34801561048457600080fd5b5061022e610c67565b34801561049957600080fd5b506104ad6104a8366004612137565b610cf5565b6040516101c0969594939291906124cb565b3480156104cb57600080fd5b5061025b6104da36600461214f565b610dc2565b3480156104eb57600080fd5b5061025b6104fa366004611e0a565b610de7565b34801561050b57600080fd5b506101e961051a366004611e26565b6001600160a01b03918216600090815260016020908152604080832093909416825291909152205460ff1690565b34801561055457600080fd5b5061025b610563366004611f35565b610e33565b34801561057457600080fd5b5061025b610583366004611e0a565b610e9e565b60006001600160a01b0383166105f95760405162461bcd60e51b815260206004820152602b60248201527f455243313135353a2062616c616e636520717565727920666f7220746865207a60448201526a65726f206164647265737360a81b60648201526084015b60405180910390fd5b506000908152602081815260408083206001600160a01b03949094168352929052205490565b600061062a82610f48565b92915050565b60606002805461063f906125d3565b80601f016020809104026020016040519081016040528092919081815260200182805461066b906125d3565b80156106b85780601f1061068d576101008083540402835291602001916106b8565b820191906000526020600020905b81548152906001019060200180831161069b57829003601f168201915b50505050509050919050565b60095460065460405163218f83a960e21b81526001600160a01b0390921691600091839163863e0ea4916106fe9160040190815260200190565b604080518083038186803b15801561071557600080fd5b505afa158015610729573d6000803e3d6000fd5b505050506040513d601f19601f8201168201806040525081019061074d9190611e5e565b509050336001600160a01b0382161461077957604051630d65e9b960e41b815260040160405180910390fd5b6107868360006001610f6d565b505050565b600061062a7fa49807205ce4d355092ef5a8a18f56e8913cf4a201fbe287825b095693c2177583610c31565b6001600160a01b0385163314806107d357506107d3853361051a565b61083a5760405162461bcd60e51b815260206004820152603260248201527f455243313135353a207472616e736665722063616c6c6572206973206e6f74206044820152711bdddb995c881b9bdc88185c1c1c9bdd995960721b60648201526084016105f0565b61084785858585856110ee565b5050505050565b600082815260046020526040902060010154610869816112a6565b61078683836112b0565b6001600160a01b03811633146108e35760405162461bcd60e51b815260206004820152602f60248201527f416363657373436f6e74726f6c3a2063616e206f6e6c792072656e6f756e636560448201526e103937b632b9903337b91039b2b63360891b60648201526084016105f0565b6108ed8282611336565b5050565b6003546001600160a01b0316331461091b5760405162461bcd60e51b81526004016105f09061244e565b6107868184846040518060200160405280600081525061139d565b6060815183511461099b5760405162461bcd60e51b815260206004820152602960248201527f455243313135353a206163636f756e747320616e6420696473206c656e677468604482015268040dad2e6dac2e8c6d60bb1b60648201526084016105f0565b600083516001600160401b038111156109c457634e487b7160e01b600052604160045260246000fd5b6040519080825280602002602001820160405280156109ed578160200160208202803683370190505b50905060005b8451811015610a8f57610a54858281518110610a1f57634e487b7160e01b600052603260045260246000fd5b6020026020010151858381518110610a4757634e487b7160e01b600052603260045260246000fd5b6020026020010151610588565b828281518110610a7457634e487b7160e01b600052603260045260246000fd5b6020908102919091010152610a888161263a565b90506109f3565b509392505050565b6003546001600160a01b03163314610ac15760405162461bcd60e51b81526004016105f09061244e565b610acb600061153e565b565b610ad5611590565b610af257604051638197c7f960e01b815260040160405180910390fd5b6005543490811015610b1757604051632583b35b60e21b815260040160405180910390fd5b600060055482610b27919061254d565b9050610b3b6003546001600160a01b031690565b6001600160a01b03166108fc839081150290604051600060405180830381858888f19350505050158015610b73573d6000803e3d6000fd5b50604080516001808252818301909252600091602080830190803683375050604080516001808252818301909252929350600092915060208083019080368337019050509050600081600081518110610bdc57634e487b7160e01b600052603260045260246000fd5b6020026020010181815250508282600081518110610c0a57634e487b7160e01b600052603260045260246000fd5b6020026020010181815250506108478582846040518060200160405280600081525061139d565b60009182526004602090815260408084206001600160a01b0393909316845291905290205460ff1690565b6108ed3383836115e5565b60078054610c74906125d3565b80601f0160208091040260200160405190810160405280929190818152602001828054610ca0906125d3565b8015610ced5780601f10610cc257610100808354040283529160200191610ced565b820191906000526020600020905b815481529060010190602001808311610cd057829003601f168201915b505050505081565b600860205260009081526040902080546001820154600283015460038401805493946001600160a01b0390931693919291610d2f906125d3565b80601f0160208091040260200160405190810160405280929190818152602001828054610d5b906125d3565b8015610da85780601f10610d7d57610100808354040283529160200191610da8565b820191906000526020600020905b815481529060010190602001808311610d8b57829003601f168201915b50505050600483015460059093015491929160ff16905086565b600082815260046020526040902060010154610ddd816112a6565b6107868383611336565b6003546001600160a01b03163314610e115760405162461bcd60e51b81526004016105f09061244e565b600980546001600160a01b0319166001600160a01b0392909216919091179055565b6001600160a01b038516331480610e4f5750610e4f853361051a565b610e6c57604051638afbcef960e01b815260040160405180910390fd5b610e74611590565b610e9157604051630735731160e21b815260040160405180910390fd5b61084785858585856116c6565b6003546001600160a01b03163314610ec85760405162461bcd60e51b81526004016105f09061244e565b6001600160a01b038116610f2d5760405162461bcd60e51b815260206004820152602660248201527f4f776e61626c653a206e6577206f776e657220697320746865207a65726f206160448201526564647265737360d01b60648201526084016105f0565b610f368161153e565b50565b6001600160a01b03163b151590565b60006001600160e01b03198216637965db0b60e01b148061062a575061062a826117f0565b6001600160a01b038316610fcf5760405162461bcd60e51b815260206004820152602360248201527f455243313135353a206275726e2066726f6d20746865207a65726f206164647260448201526265737360e81b60648201526084016105f0565b336000610fdb84611840565b90506000610fe884611840565b60408051602080820183526000918290528882528181528282206001600160a01b038b16835290522054909150848110156110715760405162461bcd60e51b8152602060048201526024808201527f455243313135353a206275726e20616d6f756e7420657863656564732062616c604482015263616e636560e01b60648201526084016105f0565b6000868152602081815260408083206001600160a01b038b81168086529184528285208a8703905582518b81529384018a90529092908816917fc3d58168c5ae7397731d063d5bbf3d657854427343f4c083240f7aacaa2d0f62910160405180910390a46040805160208101909152600090525b50505050505050565b815183511461110f5760405162461bcd60e51b81526004016105f090612483565b6001600160a01b0384166111355760405162461bcd60e51b81526004016105f0906123bf565b3360005b845181101561123857600085828151811061116457634e487b7160e01b600052603260045260246000fd5b60200260200101519050600085838151811061119057634e487b7160e01b600052603260045260246000fd5b602090810291909101810151600084815280835260408082206001600160a01b038e1683529093529190912054909150818110156111e05760405162461bcd60e51b81526004016105f090612404565b6000838152602081815260408083206001600160a01b038e8116855292528083208585039055908b1682528120805484929061121d908490612535565b92505081905550505050806112319061263a565b9050611139565b50846001600160a01b0316866001600160a01b0316826001600160a01b03167f4a39dc06d4c0dbc64b70af90fd698a233a518aa5d07e595d983b8c0526c8f7fb8787604051611288929190612336565b60405180910390a461129e818787878787611899565b505050505050565b610f368133611a0b565b6112ba8282610c31565b6108ed5760008281526004602090815260408083206001600160a01b03851684529091529020805460ff191660011790556112f23390565b6001600160a01b0316816001600160a01b0316837f2f8788117e7eff1d82e926ec794901d17c78024a50270940304540a733656f0d60405160405180910390a45050565b6113408282610c31565b156108ed5760008281526004602090815260408083206001600160a01b0385168085529252808320805460ff1916905551339285917ff6391f5c32d9c69d2a47ea670b442974b53935d1edc7fd64eb21e047a839171b9190a45050565b6001600160a01b0384166113fd5760405162461bcd60e51b815260206004820152602160248201527f455243313135353a206d696e7420746f20746865207a65726f206164647265736044820152607360f81b60648201526084016105f0565b815183511461141e5760405162461bcd60e51b81526004016105f090612483565b3360005b84518110156114d65783818151811061144b57634e487b7160e01b600052603260045260246000fd5b602002602001015160008087848151811061147657634e487b7160e01b600052603260045260246000fd5b602002602001015181526020019081526020016000206000886001600160a01b03166001600160a01b0316815260200190815260200160002060008282546114be9190612535565b909155508190506114ce8161263a565b915050611422565b50846001600160a01b031660006001600160a01b0316826001600160a01b03167f4a39dc06d4c0dbc64b70af90fd698a233a518aa5d07e595d983b8c0526c8f7fb8787604051611527929190612336565b60405180910390a461084781600087878787611899565b600380546001600160a01b038381166001600160a01b0319831681179093556040519116919082907f8be0079c531659141344cd1fd0a4f28419497f9722a3daafe3b4186f6b6457e090600090a35050565b60006115bc7fa49807205ce4d355092ef5a8a18f56e8913cf4a201fbe287825b095693c2177533610c31565b1580156115d457506003546001600160a01b03163314155b156115df5750600090565b50600190565b816001600160a01b0316836001600160a01b031614156116595760405162461bcd60e51b815260206004820152602960248201527f455243313135353a2073657474696e6720617070726f76616c20737461747573604482015268103337b91039b2b63360b91b60648201526084016105f0565b6001600160a01b03838116600081815260016020908152604080832094871680845294825291829020805460ff191686151590811790915591519182527f17307eab39ab6107e8899845ad3d59bd9653f200f220920489ca2b5937696c31910160405180910390a3505050565b6001600160a01b0384166116ec5760405162461bcd60e51b81526004016105f0906123bf565b3360006116f885611840565b9050600061170585611840565b90506000868152602081815260408083206001600160a01b038c168452909152902054858110156117485760405162461bcd60e51b81526004016105f090612404565b6000878152602081815260408083206001600160a01b038d8116855292528083208985039055908a16825281208054889290611785908490612535565b909155505060408051888152602081018890526001600160a01b03808b16928c821692918816917fc3d58168c5ae7397731d063d5bbf3d657854427343f4c083240f7aacaa2d0f62910160405180910390a46117e5848a8a8a8a8a611a6f565b505050505050505050565b60006001600160e01b03198216636cdb3d1360e11b148061182157506001600160e01b031982166303a24d0760e21b145b8061062a57506301ffc9a760e01b6001600160e01b031983161461062a565b6040805160018082528183019092526060916000919060208083019080368337019050509050828160008151811061188857634e487b7160e01b600052603260045260246000fd5b602090810291909101015292915050565b6118ab846001600160a01b0316610f39565b1561129e5760405163bc197c8160e01b81526001600160a01b0385169063bc197c81906118e49089908990889088908890600401612280565b602060405180830381600087803b1580156118fe57600080fd5b505af192505050801561192e575060408051601f3d908101601f1916820190925261192b9181019061218f565b60015b6119db5761193a612681565b806308c379a01415611974575061194f612699565b8061195a5750611976565b8060405162461bcd60e51b81526004016105f09190612364565b505b60405162461bcd60e51b815260206004820152603460248201527f455243313135353a207472616e7366657220746f206e6f6e20455243313135356044820152732932b1b2b4bb32b91034b6b83632b6b2b73a32b960611b60648201526084016105f0565b6001600160e01b0319811663bc197c8160e01b146110e55760405162461bcd60e51b81526004016105f090612377565b611a158282610c31565b6108ed57611a2d816001600160a01b03166014611b40565b611a38836020611b40565b604051602001611a49929190612211565b60408051601f198184030181529082905262461bcd60e51b82526105f091600401612364565b611a81846001600160a01b0316610f39565b1561129e5760405163f23a6e6160e01b81526001600160a01b0385169063f23a6e6190611aba90899089908890889088906004016122de565b602060405180830381600087803b158015611ad457600080fd5b505af1925050508015611b04575060408051601f3d908101601f19168201909252611b019181019061218f565b60015b611b105761193a612681565b6001600160e01b0319811663f23a6e6160e01b146110e55760405162461bcd60e51b81526004016105f090612377565b60606000611b4f83600261256d565b611b5a906002612535565b6001600160401b03811115611b7f57634e487b7160e01b600052604160045260246000fd5b6040519080825280601f01601f191660200182016040528015611ba9576020820181803683370190505b509050600360fc1b81600081518110611bd257634e487b7160e01b600052603260045260246000fd5b60200101906001600160f81b031916908160001a905350600f60fb1b81600181518110611c0f57634e487b7160e01b600052603260045260246000fd5b60200101906001600160f81b031916908160001a9053506000611c3384600261256d565b611c3e906001612535565b90505b6001811115611cd2576f181899199a1a9b1b9c1cb0b131b232b360811b85600f1660108110611c8057634e487b7160e01b600052603260045260246000fd5b1a60f81b828281518110611ca457634e487b7160e01b600052603260045260246000fd5b60200101906001600160f81b031916908160001a90535060049490941c93611ccb816125bc565b9050611c41565b508315611d215760405162461bcd60e51b815260206004820181905260248201527f537472696e67733a20686578206c656e67746820696e73756666696369656e7460448201526064016105f0565b9392505050565b600082601f830112611d38578081fd5b81356020611d4582612512565b604051611d52828261260e565b8381528281019150858301600585901b87018401881015611d71578586fd5b855b85811015611d8f57813584529284019290840190600101611d73565b5090979650505050505050565b600082601f830112611dac578081fd5b81356001600160401b03811115611dc557611dc561266b565b604051611ddc601f8301601f19166020018261260e565b818152846020838601011115611df0578283fd5b816020850160208301379081016020019190915292915050565b600060208284031215611e1b578081fd5b8135611d2181612722565b60008060408385031215611e38578081fd5b8235611e4381612722565b91506020830135611e5381612722565b809150509250929050565b60008060408385031215611e70578182fd5b8251611e7b81612722565b6020840151909250611e5381612722565b600080600080600060a08688031215611ea3578081fd5b8535611eae81612722565b94506020860135611ebe81612722565b935060408601356001600160401b0380821115611ed9578283fd5b611ee589838a01611d28565b94506060880135915080821115611efa578283fd5b611f0689838a01611d28565b93506080880135915080821115611f1b578283fd5b50611f2888828901611d9c565b9150509295509295909350565b600080600080600060a08688031215611f4c578081fd5b8535611f5781612722565b94506020860135611f6781612722565b9350604086013592506060860135915060808601356001600160401b03811115611f8f578182fd5b611f2888828901611d9c565b60008060408385031215611fad578182fd5b8235611fb881612722565b915060208301358015158114611e53578182fd5b60008060408385031215611fde578182fd5b8235611fe981612722565b946020939093013593505050565b60008060408385031215612009578182fd5b82356001600160401b038082111561201f578384fd5b818501915085601f830112612032578384fd5b8135602061203f82612512565b60405161204c828261260e565b8381528281019150858301600585901b870184018b101561206b578889fd5b8896505b8487101561209657803561208281612722565b83526001969096019591830191830161206f565b50965050860135925050808211156120ac578283fd5b506120b985828601611d28565b9150509250929050565b6000806000606084860312156120d7578081fd5b83356001600160401b03808211156120ed578283fd5b6120f987838801611d28565b9450602086013591508082111561210e578283fd5b5061211b86828701611d28565b925050604084013561212c81612722565b809150509250925092565b600060208284031215612148578081fd5b5035919050565b60008060408385031215612161578182fd5b823591506020830135611e5381612722565b600060208284031215612184578081fd5b8135611d2181612737565b6000602082840312156121a0578081fd5b8151611d2181612737565b6000815180845260208085019450808401835b838110156121da578151875295820195908201906001016121be565b509495945050505050565b600081518084526121fd81602086016020860161258c565b601f01601f19169290920160200192915050565b76020b1b1b2b9b9a1b7b73a3937b61d1030b1b1b7bab73a1604d1b81526000835161224381601785016020880161258c565b7001034b99036b4b9b9b4b733903937b6329607d1b601791840191820152835161227481602884016020880161258c565b01602801949350505050565b6001600160a01b0386811682528516602082015260a0604082018190526000906122ac908301866121ab565b82810360608401526122be81866121ab565b905082810360808401526122d281856121e5565b98975050505050505050565b6001600160a01b03868116825285166020820152604081018490526060810183905260a060808201819052600090612318908301846121e5565b979650505050505050565b602081526000611d2160208301846121ab565b60408152600061234960408301856121ab565b828103602084015261235b81856121ab565b95945050505050565b602081526000611d2160208301846121e5565b60208082526028908201527f455243313135353a204552433131353552656365697665722072656a656374656040820152676420746f6b656e7360c01b606082015260800190565b60208082526025908201527f455243313135353a207472616e7366657220746f20746865207a65726f206164604082015264647265737360d81b606082015260800190565b6020808252602a908201527f455243313135353a20696e73756666696369656e742062616c616e636520666f60408201526939103a3930b739b332b960b11b606082015260800190565b6020808252818101527f4f776e61626c653a2063616c6c6572206973206e6f7420746865206f776e6572604082015260600190565b60208082526028908201527f455243313135353a2069647320616e6420616d6f756e7473206c656e677468206040820152670dad2e6dac2e8c6d60c31b606082015260800190565b86815260018060a01b038616602082015284604082015260c0606082015260006124f860c08301866121e5565b60808301949094525090151560a090910152949350505050565b60006001600160401b0382111561252b5761252b61266b565b5060051b60200190565b6000821982111561254857612548612655565b500190565b60008261256857634e487b7160e01b81526012600452602481fd5b500490565b600081600019048311821515161561258757612587612655565b500290565b60005b838110156125a757818101518382015260200161258f565b838111156125b6576000848401525b50505050565b6000816125cb576125cb612655565b506000190190565b600181811c908216806125e757607f821691505b6020821081141561260857634e487b7160e01b600052602260045260246000fd5b50919050565b601f8201601f191681016001600160401b03811182821017156126335761263361266b565b6040525050565b600060001982141561264e5761264e612655565b5060010190565b634e487b7160e01b600052601160045260246000fd5b634e487b7160e01b600052604160045260246000fd5b600060033d111561269657600481823e5160e01c5b90565b600060443d10156126a75790565b6040516003193d81016004833e81513d6001600160401b0381602484011181841117156126d657505050505090565b82850191508151818111156126ee5750505050505090565b843d87010160208285010111156127085750505050505090565b6127176020828601018761260e565b509095945050505050565b6001600160a01b0381168114610f3657600080fd5b6001600160e01b031981168114610f3657600080fdfea26469706673582212201866dc90d14885d328b7279aed310ee12a469b2fb34611ce6ebb99ea70524c0f64736f6c6343000804003360a06040523480156200001157600080fd5b5060405162002728380380620027288339810160408190526200003491620003bb565b826200004081620001b8565b506200004c33620001d1565b6040805160a08101825287815260208082018890526001600160a01b038716928201929092526001606082018190526080820152600b8881558751919290916200009d91600c91908a01906200022c565b506040828101516002909201805460608501516080909501511515600160a81b0260ff60a81b19951515600160a01b026001600160a81b03199092166001600160a01b0395861617919091179490941693909317909255600e80548583166001600160a01b03199182168117909255600f805493861693909116929092179091558151628c84e760e41b8152915190916308c84e70916004808301926020929190829003018186803b1580156200015357600080fd5b505afa15801562000168573d6000803e3d6000fd5b505050506040513d601f19601f820116820180604052508101906200018e9190620003a2565b60808181525050620001ac600a6200022360201b620010311760201c565b505050505050620004b6565b8051620001cd9060029060208401906200022c565b5050565b600380546001600160a01b038381166001600160a01b0319831681179093556040519116919082907f8be0079c531659141344cd1fd0a4f28419497f9722a3daafe3b4186f6b6457e090600090a35050565b80546001019055565b8280546200023a9062000463565b90600052602060002090601f0160209004810192826200025e5760008555620002a9565b82601f106200027957805160ff1916838001178555620002a9565b82800160010185558215620002a9579182015b82811115620002a95782518255916020019190600101906200028c565b50620002b7929150620002bb565b5090565b5b80821115620002b75760008155600101620002bc565b80516001600160a01b0381168114620002ea57600080fd5b919050565b600082601f83011262000300578081fd5b81516001600160401b03808211156200031d576200031d620004a0565b604051601f8301601f19908116603f01168101908282118183101715620003485762000348620004a0565b8160405283815260209250868385880101111562000364578485fd5b8491505b8382101562000387578582018301518183018401529082019062000368565b838211156200039857848385830101525b9695505050505050565b600060208284031215620003b4578081fd5b5051919050565b60008060008060008060c08789031215620003d4578182fd5b865160208801519096506001600160401b0380821115620003f3578384fd5b620004018a838b01620002ef565b96506200041160408a01620002d2565b9550606089015191508082111562000427578384fd5b506200043689828a01620002ef565b9350506200044760808801620002d2565b91506200045760a08801620002d2565b90509295509295509295565b600181811c908216806200047857607f821691505b602082108114156200049a57634e487b7160e01b600052602260045260246000fd5b50919050565b634e487b7160e01b600052604160045260246000fd5b608051612256620004d260003960006107d201526122566000f3fe608060405234801561001057600080fd5b50600436106101575760003560e01c80638da5cb5b116100c3578063f15f11d31161007c578063f15f11d31461034a578063f22f34f114610378578063f242432a1461039d578063f2fde38b146103b0578063f81fbe60146103c3578063fecb24ef146103ec57600080fd5b80638da5cb5b146102b2578063a22cb465146102cd578063a2782a51146102e0578063be92042d146102e8578063ca888310146102fb578063e985e9c51461030e57600080fd5b80633c0d92d1116101155780633c0d92d11461020f57806342545825146102225780634e1273f4146102355780636f7fa05f14610255578063715018a61461028357806375b238fc1461028b57600080fd5b8062fdd58e1461015c57806301ffc9a7146101825780630e89341c146101a5578063114f8eed146101c557806323bd4d7a146101e55780632eb2c2d6146101fa575b600080fd5b61016f61016a366004611b66565b61040c565b6040519081526020015b60405180910390f35b610195610190366004611cfd565b6104a3565b6040519015158152602001610179565b6101b86101b3366004611d35565b6104f5565b6040516101799190611ef0565b61016f6101d3366004611d35565b60086020526000908152604090205481565b6101ed610589565b6040516101799190611fda565b61020d610208366004611a34565b610698565b005b61016f61021d366004611bca565b61072f565b610195610230366004611b66565b6109e5565b610248610243366004611c32565b610a3f565b6040516101799190611eaf565b610195610263366004611d65565b600760209081526000928352604080842090915290825290205460ff1681565b61020d610ba1565b61016f7fa49807205ce4d355092ef5a8a18f56e8913cf4a201fbe287825b095693c2177581565b6003546040516001600160a01b039091168152602001610179565b61020d6102db366004611b3d565b610c07565b61016f610c16565b61016f6102f6366004611b66565b610c26565b61020d610309366004611b8f565b610c57565b61019561031c366004611a02565b6001600160a01b03918216600090815260016020908152604080832093909416825291909152205460ff1690565b610195610358366004611d65565b600560209081526000928352604080842090915290825290205460ff1681565b61038b610386366004611d35565b610e12565b60405161017996959493929190612036565b61020d6103ab366004611ada565b610edf565b61020d6103be3660046119e8565b610f66565b61016f6103d13660046119e8565b6001600160a01b031660009081526009602052604090205490565b61016f6103fa366004611d35565b60066020526000908152604090205481565b60006001600160a01b03831661047d5760405162461bcd60e51b815260206004820152602b60248201527f455243313135353a2062616c616e636520717565727920666f7220746865207a60448201526a65726f206164647265737360a81b60648201526084015b60405180910390fd5b506000908152602081815260408083206001600160a01b03949094168352929052205490565b60006001600160e01b03198216636cdb3d1360e11b14806104d457506001600160e01b031982166303a24d0760e21b145b806104ef57506301ffc9a760e01b6001600160e01b03198316145b92915050565b606060028054610504906120b9565b80601f0160208091040260200160405190810160405280929190818152602001828054610530906120b9565b801561057d5780601f106105525761010080835404028352916020019161057d565b820191906000526020600020905b81548152906001019060200180831161056057829003601f168201915b50505050509050919050565b6040805160a081018252600080825260606020830181905292820181905291810182905260808101919091526040805160a08101909152600b80548252600c80546020840191906105d9906120b9565b80601f0160208091040260200160405190810160405280929190818152602001828054610605906120b9565b80156106525780601f1061062757610100808354040283529160200191610652565b820191906000526020600020905b81548152906001019060200180831161063557829003601f168201915b5050509183525050600291909101546001600160a01b038116602083015260ff600160a01b8204811615156040840152600160a81b909104161515606090910152919050565b6001600160a01b0385163314806106b457506106b4853361031c565b61071b5760405162461bcd60e51b815260206004820152603260248201527f455243313135353a207472616e736665722063616c6c6572206973206e6f74206044820152711bdddb995c881b9bdc88185c1c1c9bdd995960721b6064820152608401610474565b610728858585858561103a565b5050505050565b60008280158061073f5750606481115b1561075d576040516312f3735d60e31b815260040160405180910390fd5b600f546001600160a01b0316331461078857604051639f3e0d1f60e01b815260040160405180910390fd5b6000610793600a5490565b90506107b18682600160405180602001604052806000815250611233565b600e54604051627eeac760e11b81526001600160a01b0388811660048301527f0000000000000000000000000000000000000000000000000000000000000000602483015260009216908290829062fdd58e9060440160206040518083038186803b15801561081f57600080fd5b505afa158015610833573d6000803e3d6000fd5b505050506040513d601f19601f820116820180604052508101906108579190611d4d565b11156108bd576040516310e6a78560e11b81526001600160a01b0389811660048301528216906321cd4f0a90602401600060405180830381600087803b1580156108a057600080fd5b505af11580156108b4573d6000803e3d6000fd5b50505050600191505b6040805160c0810182528481526001600160a01b038a811660208084019182528385018c8152606085018c815242608087015288151560a087015260008a815260048452969096208551815592516001840180546001600160a01b03191691909516179093559151600282015592518051929384939092610945926003850192910190611832565b506080820151600482015560a0909101516005909101805491151560ff199092169190911790556001600160a01b0389166000908152600960209081526040822080546001810182559083529120018490556109a5600a80546001019055565b6040518481527ffa039017104499194cbaee4a06ab081a02aff6ea3fc083959a88f5dd9544add99060200160405180910390a15091979650505050505050565b60008181526005602090815260408083206001600160a01b038616845290915281205460ff1680610a38575060008281526007602090815260408083206001600160a01b038716845290915290205460ff165b9392505050565b60608151835114610aa45760405162461bcd60e51b815260206004820152602960248201527f455243313135353a206163636f756e747320616e6420696473206c656e677468604482015268040dad2e6dac2e8c6d60bb1b6064820152608401610474565b6000835167ffffffffffffffff811115610ace57634e487b7160e01b600052604160045260246000fd5b604051908082528060200260200182016040528015610af7578160200160208202803683370190505b50905060005b8451811015610b9957610b5e858281518110610b2957634e487b7160e01b600052603260045260246000fd5b6020026020010151858381518110610b5157634e487b7160e01b600052603260045260246000fd5b602002602001015161040c565b828281518110610b7e57634e487b7160e01b600052603260045260246000fd5b6020908102919091010152610b9281612121565b9050610afd565b509392505050565b6003546001600160a01b03163314610bfb5760405162461bcd60e51b815260206004820181905260248201527f4f776e61626c653a2063616c6c6572206973206e6f7420746865206f776e65726044820152606401610474565b610c056000611347565b565b610c12338383611399565b5050565b6000610c21600a5490565b905090565b60096020528160005260406000208181548110610c4257600080fd5b90600052602060002001600091509150505481565b6000828152600460205260409020600101548390839083906001600160a01b0380851691161415610c9b57604051634ec7a74d60e11b815260040160405180910390fd5b60008281526007602090815260408083206001600160a01b038716845290915290205460ff16151560011480610cf8575060008281526005602090815260408083206001600160a01b038716845290915290205460ff1615156001145b15610d1657604051632ea388a760e11b815260040160405180910390fd5b60018415151415610d7e5760008581526005602090815260408083206001600160a01b038a1684528252808320805460ff1916600190811790915588845260069092529091205490610d699082906120a1565b60008781526006602052604090205550610dd7565b60008581526007602090815260408083206001600160a01b038a1684528252808320805460ff1916600190811790915588845260089092529091205490610dc69082906120a1565b600087815260086020526040902055505b6040518581527f9ea1d6dcc33efa8df0347b6875147497d067d8eed15435cc7ad0db9891addd079060200160405180910390a1505050505050565b600460205260009081526040902080546001820154600283015460038401805493946001600160a01b0390931693919291610e4c906120b9565b80601f0160208091040260200160405190810160405280929190818152602001828054610e78906120b9565b8015610ec55780601f10610e9a57610100808354040283529160200191610ec5565b820191906000526020600020905b815481529060010190602001808311610ea857829003601f168201915b50505050600483015460059093015491929160ff16905086565b6001600160a01b038516331480610efb5750610efb853361031c565b610f595760405162461bcd60e51b815260206004820152602960248201527f455243313135353a2063616c6c6572206973206e6f74206f776e6572206e6f7260448201526808185c1c1c9bdd995960ba1b6064820152608401610474565b610728858585858561147a565b6003546001600160a01b03163314610fc05760405162461bcd60e51b815260206004820181905260248201527f4f776e61626c653a2063616c6c6572206973206e6f7420746865206f776e65726044820152606401610474565b6001600160a01b0381166110255760405162461bcd60e51b815260206004820152602660248201527f4f776e61626c653a206e6577206f776e657220697320746865207a65726f206160448201526564647265737360d01b6064820152608401610474565b61102e81611347565b50565b80546001019055565b815183511461109c5760405162461bcd60e51b815260206004820152602860248201527f455243313135353a2069647320616e6420616d6f756e7473206c656e677468206044820152670dad2e6dac2e8c6d60c31b6064820152608401610474565b6001600160a01b0384166110c25760405162461bcd60e51b815260040161047490611f4b565b3360005b84518110156111c55760008582815181106110f157634e487b7160e01b600052603260045260246000fd5b60200260200101519050600085838151811061111d57634e487b7160e01b600052603260045260246000fd5b602090810291909101810151600084815280835260408082206001600160a01b038e16835290935291909120549091508181101561116d5760405162461bcd60e51b815260040161047490611f90565b6000838152602081815260408083206001600160a01b038e8116855292528083208585039055908b168252812080548492906111aa9084906120a1565b92505081905550505050806111be90612121565b90506110c6565b50846001600160a01b0316866001600160a01b0316826001600160a01b03167f4a39dc06d4c0dbc64b70af90fd698a233a518aa5d07e595d983b8c0526c8f7fb8787604051611215929190611ec2565b60405180910390a461122b8187878787876115a4565b505050505050565b6001600160a01b0384166112935760405162461bcd60e51b815260206004820152602160248201527f455243313135353a206d696e7420746f20746865207a65726f206164647265736044820152607360f81b6064820152608401610474565b33600061129f8561170f565b905060006112ac8561170f565b90506000868152602081815260408083206001600160a01b038b168452909152812080548792906112de9084906120a1565b909155505060408051878152602081018790526001600160a01b03808a1692600092918716917fc3d58168c5ae7397731d063d5bbf3d657854427343f4c083240f7aacaa2d0f62910160405180910390a461133e83600089898989611768565b50505050505050565b600380546001600160a01b038381166001600160a01b0319831681179093556040519116919082907f8be0079c531659141344cd1fd0a4f28419497f9722a3daafe3b4186f6b6457e090600090a35050565b816001600160a01b0316836001600160a01b0316141561140d5760405162461bcd60e51b815260206004820152602960248201527f455243313135353a2073657474696e6720617070726f76616c20737461747573604482015268103337b91039b2b63360b91b6064820152608401610474565b6001600160a01b03838116600081815260016020908152604080832094871680845294825291829020805460ff191686151590811790915591519182527f17307eab39ab6107e8899845ad3d59bd9653f200f220920489ca2b5937696c31910160405180910390a3505050565b6001600160a01b0384166114a05760405162461bcd60e51b815260040161047490611f4b565b3360006114ac8561170f565b905060006114b98561170f565b90506000868152602081815260408083206001600160a01b038c168452909152902054858110156114fc5760405162461bcd60e51b815260040161047490611f90565b6000878152602081815260408083206001600160a01b038d8116855292528083208985039055908a168252812080548892906115399084906120a1565b909155505060408051888152602081018890526001600160a01b03808b16928c821692918816917fc3d58168c5ae7397731d063d5bbf3d657854427343f4c083240f7aacaa2d0f62910160405180910390a4611599848a8a8a8a8a611768565b505050505050505050565b6001600160a01b0384163b1561122b5760405163bc197c8160e01b81526001600160a01b0385169063bc197c81906115e89089908990889088908890600401611e0c565b602060405180830381600087803b15801561160257600080fd5b505af1925050508015611632575060408051601f3d908101601f1916820190925261162f91810190611d19565b60015b6116df5761163e612168565b806308c379a014156116785750611653612180565b8061165e575061167a565b8060405162461bcd60e51b81526004016104749190611ef0565b505b60405162461bcd60e51b815260206004820152603460248201527f455243313135353a207472616e7366657220746f206e6f6e20455243313135356044820152732932b1b2b4bb32b91034b6b83632b6b2b73a32b960611b6064820152608401610474565b6001600160e01b0319811663bc197c8160e01b1461133e5760405162461bcd60e51b815260040161047490611f03565b6040805160018082528183019092526060916000919060208083019080368337019050509050828160008151811061175757634e487b7160e01b600052603260045260246000fd5b602090810291909101015292915050565b6001600160a01b0384163b1561122b5760405163f23a6e6160e01b81526001600160a01b0385169063f23a6e61906117ac9089908990889088908890600401611e6a565b602060405180830381600087803b1580156117c657600080fd5b505af19250505080156117f6575060408051601f3d908101601f191682019092526117f391810190611d19565b60015b6118025761163e612168565b6001600160e01b0319811663f23a6e6160e01b1461133e5760405162461bcd60e51b815260040161047490611f03565b82805461183e906120b9565b90600052602060002090601f01602090048101928261186057600085556118a6565b82601f1061187957805160ff19168380011785556118a6565b828001600101855582156118a6579182015b828111156118a657825182559160200191906001019061188b565b506118b29291506118b6565b5090565b5b808211156118b257600081556001016118b7565b600067ffffffffffffffff8311156118e5576118e5612152565b6040516118fc601f8501601f1916602001826120f4565b80915083815284848401111561191157600080fd5b83836020830137600060208583010152509392505050565b80356001600160a01b038116811461194057600080fd5b919050565b600082601f830112611955578081fd5b813560206119628261207d565b60405161196f82826120f4565b8381528281019150858301600585901b8701840188101561198e578586fd5b855b858110156119ac57813584529284019290840190600101611990565b5090979650505050505050565b8035801515811461194057600080fd5b600082601f8301126119d9578081fd5b610a38838335602085016118cb565b6000602082840312156119f9578081fd5b610a3882611929565b60008060408385031215611a14578081fd5b611a1d83611929565b9150611a2b60208401611929565b90509250929050565b600080600080600060a08688031215611a4b578081fd5b611a5486611929565b9450611a6260208701611929565b9350604086013567ffffffffffffffff80821115611a7e578283fd5b611a8a89838a01611945565b94506060880135915080821115611a9f578283fd5b611aab89838a01611945565b93506080880135915080821115611ac0578283fd5b50611acd888289016119c9565b9150509295509295909350565b600080600080600060a08688031215611af1578081fd5b611afa86611929565b9450611b0860208701611929565b93506040860135925060608601359150608086013567ffffffffffffffff811115611b31578182fd5b611acd888289016119c9565b60008060408385031215611b4f578182fd5b611b5883611929565b9150611a2b602084016119b9565b60008060408385031215611b78578182fd5b611b8183611929565b946020939093013593505050565b600080600060608486031215611ba3578283fd5b611bac84611929565b925060208401359150611bc1604085016119b9565b90509250925092565b600080600060608486031215611bde578081fd5b611be784611929565b925060208401359150604084013567ffffffffffffffff811115611c09578182fd5b8401601f81018613611c19578182fd5b611c28868235602084016118cb565b9150509250925092565b60008060408385031215611c44578182fd5b823567ffffffffffffffff80821115611c5b578384fd5b818501915085601f830112611c6e578384fd5b81356020611c7b8261207d565b604051611c8882826120f4565b8381528281019150858301600585901b870184018b1015611ca7578889fd5b8896505b84871015611cd057611cbc81611929565b835260019690960195918301918301611cab565b5096505086013592505080821115611ce6578283fd5b50611cf385828601611945565b9150509250929050565b600060208284031215611d0e578081fd5b8135610a388161220a565b600060208284031215611d2a578081fd5b8151610a388161220a565b600060208284031215611d46578081fd5b5035919050565b600060208284031215611d5e578081fd5b5051919050565b60008060408385031215611d77578182fd5b82359150611a2b60208401611929565b6000815180845260208085019450808401835b83811015611db657815187529582019590820190600101611d9a565b509495945050505050565b60008151808452815b81811015611de657602081850181015186830182015201611dca565b81811115611df75782602083870101525b50601f01601f19169290920160200192915050565b6001600160a01b0386811682528516602082015260a060408201819052600090611e3890830186611d87565b8281036060840152611e4a8186611d87565b90508281036080840152611e5e8185611dc1565b98975050505050505050565b6001600160a01b03868116825285166020820152604081018490526060810183905260a060808201819052600090611ea490830184611dc1565b979650505050505050565b602081526000610a386020830184611d87565b604081526000611ed56040830185611d87565b8281036020840152611ee78185611d87565b95945050505050565b602081526000610a386020830184611dc1565b60208082526028908201527f455243313135353a204552433131353552656365697665722072656a656374656040820152676420746f6b656e7360c01b606082015260800190565b60208082526025908201527f455243313135353a207472616e7366657220746f20746865207a65726f206164604082015264647265737360d81b606082015260800190565b6020808252602a908201527f455243313135353a20696e73756666696369656e742062616c616e636520666f60408201526939103a3930b739b332b960b11b606082015260800190565b60208152815160208201526000602083015160a0604084015261200060c0840182611dc1565b905060018060a01b0360408501511660608401526060840151151560808401526080840151151560a08401528091505092915050565b86815260018060a01b038616602082015284604082015260c06060820152600061206360c0830186611dc1565b60808301949094525090151560a090910152949350505050565b600067ffffffffffffffff82111561209757612097612152565b5060051b60200190565b600082198211156120b4576120b461213c565b500190565b600181811c908216806120cd57607f821691505b602082108114156120ee57634e487b7160e01b600052602260045260246000fd5b50919050565b601f8201601f1916810167ffffffffffffffff8111828210171561211a5761211a612152565b6040525050565b60006000198214156121355761213561213c565b5060010190565b634e487b7160e01b600052601160045260246000fd5b634e487b7160e01b600052604160045260246000fd5b600060033d111561217d57600481823e5160e01c5b90565b600060443d101561218e5790565b6040516003193d81016004833e81513d67ffffffffffffffff81602484011181841117156121be57505050505090565b82850191508151818111156121d65750505050505090565b843d87010160208285010111156121f05750505050505090565b6121ff602082860101876120f4565b509095945050505050565b6001600160e01b03198116811461102e57600080fdfea26469706673582212207c01fa06ca5ab7a6741efd9e55ace2f33dba89430b4158187a63e88c167e5cef64736f6c63430008040033a2646970667358221220a41a842f628a6f8b5e1e5fbfacd97842f81103cea62e33a95ec18a0440a0e47a64736f6c63430008040033",
  "linkReferences": {},
  "deployedLinkReferences": {}
}