{
  "_format": "hh-sol-artifact-1",
  "contractName": "AppraiserOrganization",
  "sourceName": "contracts/AppraiserOrganization.sol",
  "abi": [
    {
      "inputs": [
        {
          "internalType": "uint256",
          "name": "orgId_",
          "type": "uint256"
        },
        {
          "internalType": "string",
          "name": "name_",
          "type": "string"
        },
        {
          "internalType": "address",
          "name": "addr_",
          "type": "address"
        },
        {
          "internalType": "string",
          "name": "URI_",
          "type": "string"
        },
        {
          "internalType": "address",
          "name": "verifierAddr_",
          "type": "address"
        },
        {
          "internalType": "address",
          "name": "reviewerAddr_",
          "type": "address"
        }
      ],
      "stateMutability": "nonpayable",
      "type": "constructor"
    },
    {
      "inputs": [],
      "name": "AppraiserOrganization__CannotVoteOnOwnReview",
      "type": "error"
    },
    {
      "inputs": [],
      "name": "AppraiserOrganization__InvalidRating",
      "type": "error"
    },
    {
      "inputs": [],
      "name": "AppraiserOrganization__OneVoteAllowedPerReview",
      "type": "error"
    },
    {
      "inputs": [],
      "name": "AppraiserOrganization__OnlyReviewerContractCanCall",
      "type": "error"
    },
    {
      "anonymous": false,
      "inputs": [
        {
          "indexed": true,
          "internalType": "address",
          "name": "account",
          "type": "address"
        },
        {
          "indexed": true,
          "internalType": "address",
          "name": "operator",
          "type": "address"
        },
        {
          "indexed": false,
          "internalType": "bool",
          "name": "approved",
          "type": "bool"
        }
      ],
      "name": "ApprovalForAll",
      "type": "event"
    },
    {
      "anonymous": false,
      "inputs": [
        {
          "indexed": false,
          "internalType": "uint256",
          "name": "reviewId",
          "type": "uint256"
        }
      ],
      "name": "LogNFTReviewMinted",
      "type": "event"
    },
    {
      "anonymous": false,
      "inputs": [
        {
          "indexed": false,
          "internalType": "uint256",
          "name": "reviewId",
          "type": "uint256"
        }
      ],
      "name": "LogNFTReviewVote",
      "type": "event"
    },
    {
      "anonymous": false,
      "inputs": [
        {
          "indexed": true,
          "internalType": "address",
          "name": "previousOwner",
          "type": "address"
        },
        {
          "indexed": true,
          "internalType": "address",
          "name": "newOwner",
          "type": "address"
        }
      ],
      "name": "OwnershipTransferred",
      "type": "event"
    },
    {
      "anonymous": false,
      "inputs": [
        {
          "indexed": true,
          "internalType": "address",
          "name": "operator",
          "type": "address"
        },
        {
          "indexed": true,
          "internalType": "address",
          "name": "from",
          "type": "address"
        },
        {
          "indexed": true,
          "internalType": "address",
          "name": "to",
          "type": "address"
        },
        {
          "indexed": false,
          "internalType": "uint256[]",
          "name": "ids",
          "type": "uint256[]"
        },
        {
          "indexed": false,
          "internalType": "uint256[]",
          "name": "values",
          "type": "uint256[]"
        }
      ],
      "name": "TransferBatch",
      "type": "event"
    },
    {
      "anonymous": false,
      "inputs": [
        {
          "indexed": true,
          "internalType": "address",
          "name": "operator",
          "type": "address"
        },
        {
          "indexed": true,
          "internalType": "address",
          "name": "from",
          "type": "address"
        },
        {
          "indexed": true,
          "internalType": "address",
          "name": "to",
          "type": "address"
        },
        {
          "indexed": false,
          "internalType": "uint256",
          "name": "id",
          "type": "uint256"
        },
        {
          "indexed": false,
          "internalType": "uint256",
          "name": "value",
          "type": "uint256"
        }
      ],
      "name": "TransferSingle",
      "type": "event"
    },
    {
      "anonymous": false,
      "inputs": [
        {
          "indexed": false,
          "internalType": "string",
          "name": "value",
          "type": "string"
        },
        {
          "indexed": true,
          "internalType": "uint256",
          "name": "id",
          "type": "uint256"
        }
      ],
      "name": "URI",
      "type": "event"
    },
    {
      "inputs": [],
      "name": "ADMIN_ROLE",
      "outputs": [
        {
          "internalType": "bytes32",
          "name": "",
          "type": "bytes32"
        }
      ],
      "stateMutability": "view",
      "type": "function"
    },
    {
      "inputs": [
        {
          "internalType": "address",
          "name": "account",
          "type": "address"
        },
        {
          "internalType": "uint256",
          "name": "id",
          "type": "uint256"
        }
      ],
      "name": "balanceOf",
      "outputs": [
        {
          "internalType": "uint256",
          "name": "",
          "type": "uint256"
        }
      ],
      "stateMutability": "view",
      "type": "function"
    },
    {
      "inputs": [
        {
          "internalType": "address[]",
          "name": "accounts",
          "type": "address[]"
        },
        {
          "internalType": "uint256[]",
          "name": "ids",
          "type": "uint256[]"
        }
      ],
      "name": "balanceOfBatch",
      "outputs": [
        {
          "internalType": "uint256[]",
          "name": "",
          "type": "uint256[]"
        }
      ],
      "stateMutability": "view",
      "type": "function"
    },
    {
      "inputs": [],
      "name": "currentReviewId",
      "outputs": [
        {
          "internalType": "uint256",
          "name": "",
          "type": "uint256"
        }
      ],
      "stateMutability": "view",
      "type": "function"
    },
    {
      "inputs": [
        {
          "internalType": "address",
          "name": "reviewer_",
          "type": "address"
        },
        {
          "internalType": "uint256",
          "name": "reviewId_",
          "type": "uint256"
        }
      ],
      "name": "hasVoted",
      "outputs": [
        {
          "internalType": "bool",
          "name": "",
          "type": "bool"
        }
      ],
      "stateMutability": "view",
      "type": "function"
    },
    {
      "inputs": [
        {
          "internalType": "address",
          "name": "account",
          "type": "address"
        },
        {
          "internalType": "address",
          "name": "operator",
          "type": "address"
        }
      ],
      "name": "isApprovedForAll",
      "outputs": [
        {
          "internalType": "bool",
          "name": "",
          "type": "bool"
        }
      ],
      "stateMutability": "view",
      "type": "function"
    },
    {
      "inputs": [
        {
          "internalType": "address",
          "name": "reviewerAddr_",
          "type": "address"
        },
        {
          "internalType": "uint256",
          "name": "rating_",
          "type": "uint256"
        },
        {
          "internalType": "string",
          "name": "review_",
          "type": "string"
        }
      ],
      "name": "mintReviewNFT",
      "outputs": [
        {
          "internalType": "uint256",
          "name": "",
          "type": "uint256"
        }
      ],
      "stateMutability": "nonpayable",
      "type": "function"
    },
    {
      "inputs": [
        {
          "internalType": "address",
          "name": "author_",
          "type": "address"
        }
      ],
      "name": "numUserReviews",
      "outputs": [
        {
          "internalType": "uint256",
          "name": "",
          "type": "uint256"
        }
      ],
      "stateMutability": "view",
      "type": "function"
    },
    {
      "inputs": [],
      "name": "organization",
      "outputs": [
        {
          "components": [
            {
              "internalType": "uint256",
              "name": "orgId",
              "type": "uint256"
            },
            {
              "internalType": "string",
              "name": "name",
              "type": "string"
            },
            {
              "internalType": "address",
              "name": "addr",
              "type": "address"
            },
            {
              "internalType": "bool",
              "name": "isActive",
              "type": "bool"
            },
            {
              "internalType": "bool",
              "name": "isCreated",
              "type": "bool"
            }
          ],
          "internalType": "struct Organizations.Organization",
          "name": "",
          "type": "tuple"
        }
      ],
      "stateMutability": "view",
      "type": "function"
    },
    {
      "inputs": [],
      "name": "owner",
      "outputs": [
        {
          "internalType": "address",
          "name": "",
          "type": "address"
        }
      ],
      "stateMutability": "view",
      "type": "function"
    },
    {
      "inputs": [],
      "name": "renounceOwnership",
      "outputs": [],
      "stateMutability": "nonpayable",
      "type": "function"
    },
    {
      "inputs": [
        {
          "internalType": "uint256",
          "name": "",
          "type": "uint256"
        }
      ],
      "name": "s_downvoteCount",
      "outputs": [
        {
          "internalType": "uint256",
          "name": "",
          "type": "uint256"
        }
      ],
      "stateMutability": "view",
      "type": "function"
    },
    {
      "inputs": [
        {
          "internalType": "uint256",
          "name": "",
          "type": "uint256"
        },
        {
          "internalType": "address",
          "name": "",
          "type": "address"
        }
      ],
      "name": "s_downvotes",
      "outputs": [
        {
          "internalType": "bool",
          "name": "",
          "type": "bool"
        }
      ],
      "stateMutability": "view",
      "type": "function"
    },
    {
      "inputs": [
        {
          "internalType": "uint256",
          "name": "",
          "type": "uint256"
        }
      ],
      "name": "s_reviews",
      "outputs": [
        {
          "internalType": "uint256",
          "name": "id",
          "type": "uint256"
        },
        {
          "internalType": "address",
          "name": "author",
          "type": "address"
        },
        {
          "internalType": "uint256",
          "name": "rating",
          "type": "uint256"
        },
        {
          "internalType": "string",
          "name": "review",
          "type": "string"
        },
        {
          "internalType": "uint256",
          "name": "unixtime",
          "type": "uint256"
        },
        {
          "internalType": "bool",
          "name": "isVerified",
          "type": "bool"
        }
      ],
      "stateMutability": "view",
      "type": "function"
    },
    {
      "inputs": [
        {
          "internalType": "uint256",
          "name": "",
          "type": "uint256"
        }
      ],
      "name": "s_upvoteCount",
      "outputs": [
        {
          "internalType": "uint256",
          "name": "",
          "type": "uint256"
        }
      ],
      "stateMutability": "view",
      "type": "function"
    },
    {
      "inputs": [
        {
          "internalType": "uint256",
          "name": "",
          "type": "uint256"
        },
        {
          "internalType": "address",
          "name": "",
          "type": "address"
        }
      ],
      "name": "s_upvotes",
      "outputs": [
        {
          "internalType": "bool",
          "name": "",
          "type": "bool"
        }
      ],
      "stateMutability": "view",
      "type": "function"
    },
    {
      "inputs": [
        {
          "internalType": "address",
          "name": "",
          "type": "address"
        },
        {
          "internalType": "uint256",
          "name": "",
          "type": "uint256"
        }
      ],
      "name": "s_userReviews",
      "outputs": [
        {
          "internalType": "uint256",
          "name": "",
          "type": "uint256"
        }
      ],
      "stateMutability": "view",
      "type": "function"
    },
    {
      "inputs": [
        {
          "internalType": "address",
          "name": "from",
          "type": "address"
        },
        {
          "internalType": "address",
          "name": "to",
          "type": "address"
        },
        {
          "internalType": "uint256[]",
          "name": "ids",
          "type": "uint256[]"
        },
        {
          "internalType": "uint256[]",
          "name": "amounts",
          "type": "uint256[]"
        },
        {
          "internalType": "bytes",
          "name": "data",
          "type": "bytes"
        }
      ],
      "name": "safeBatchTransferFrom",
      "outputs": [],
      "stateMutability": "nonpayable",
      "type": "function"
    },
    {
      "inputs": [
        {
          "internalType": "address",
          "name": "from",
          "type": "address"
        },
        {
          "internalType": "address",
          "name": "to",
          "type": "address"
        },
        {
          "internalType": "uint256",
          "name": "id",
          "type": "uint256"
        },
        {
          "internalType": "uint256",
          "name": "amount",
          "type": "uint256"
        },
        {
          "internalType": "bytes",
          "name": "data",
          "type": "bytes"
        }
      ],
      "name": "safeTransferFrom",
      "outputs": [],
      "stateMutability": "nonpayable",
      "type": "function"
    },
    {
      "inputs": [
        {
          "internalType": "address",
          "name": "operator",
          "type": "address"
        },
        {
          "internalType": "bool",
          "name": "approved",
          "type": "bool"
        }
      ],
      "name": "setApprovalForAll",
      "outputs": [],
      "stateMutability": "nonpayable",
      "type": "function"
    },
    {
      "inputs": [
        {
          "internalType": "bytes4",
          "name": "interfaceId",
          "type": "bytes4"
        }
      ],
      "name": "supportsInterface",
      "outputs": [
        {
          "internalType": "bool",
          "name": "",
          "type": "bool"
        }
      ],
      "stateMutability": "view",
      "type": "function"
    },
    {
      "inputs": [
        {
          "internalType": "address",
          "name": "newOwner",
          "type": "address"
        }
      ],
      "name": "transferOwnership",
      "outputs": [],
      "stateMutability": "nonpayable",
      "type": "function"
    },
    {
      "inputs": [
        {
          "internalType": "uint256",
          "name": "",
          "type": "uint256"
        }
      ],
      "name": "uri",
      "outputs": [
        {
          "internalType": "string",
          "name": "",
          "type": "string"
        }
      ],
      "stateMutability": "view",
      "type": "function"
    },
    {
      "inputs": [
        {
          "internalType": "address",
          "name": "reviewer_",
          "type": "address"
        },
        {
          "internalType": "uint256",
          "name": "reviewId_",
          "type": "uint256"
        },
        {
          "internalType": "bool",
          "name": "isUpvote_",
          "type": "bool"
        }
      ],
      "name": "voteOnReview",
      "outputs": [],
      "stateMutability": "nonpayable",
      "type": "function"
    }
  ],
  "bytecode": "0x60a06040523480156200001157600080fd5b5060405162002728380380620027288339810160408190526200003491620003bb565b826200004081620001b8565b506200004c33620001d1565b6040805160a08101825287815260208082018890526001600160a01b038716928201929092526001606082018190526080820152600b8881558751919290916200009d91600c91908a01906200022c565b506040828101516002909201805460608501516080909501511515600160a81b0260ff60a81b19951515600160a01b026001600160a81b03199092166001600160a01b0395861617919091179490941693909317909255600e80548583166001600160a01b03199182168117909255600f805493861693909116929092179091558151628c84e760e41b8152915190916308c84e70916004808301926020929190829003018186803b1580156200015357600080fd5b505afa15801562000168573d6000803e3d6000fd5b505050506040513d601f19601f820116820180604052508101906200018e9190620003a2565b60808181525050620001ac600a6200022360201b620010311760201c565b505050505050620004b6565b8051620001cd9060029060208401906200022c565b5050565b600380546001600160a01b038381166001600160a01b0319831681179093556040519116919082907f8be0079c531659141344cd1fd0a4f28419497f9722a3daafe3b4186f6b6457e090600090a35050565b80546001019055565b8280546200023a9062000463565b90600052602060002090601f0160209004810192826200025e5760008555620002a9565b82601f106200027957805160ff1916838001178555620002a9565b82800160010185558215620002a9579182015b82811115620002a95782518255916020019190600101906200028c565b50620002b7929150620002bb565b5090565b5b80821115620002b75760008155600101620002bc565b80516001600160a01b0381168114620002ea57600080fd5b919050565b600082601f83011262000300578081fd5b81516001600160401b03808211156200031d576200031d620004a0565b604051601f8301601f19908116603f01168101908282118183101715620003485762000348620004a0565b8160405283815260209250868385880101111562000364578485fd5b8491505b8382101562000387578582018301518183018401529082019062000368565b838211156200039857848385830101525b9695505050505050565b600060208284031215620003b4578081fd5b5051919050565b60008060008060008060c08789031215620003d4578182fd5b865160208801519096506001600160401b0380821115620003f3578384fd5b620004018a838b01620002ef565b96506200041160408a01620002d2565b9550606089015191508082111562000427578384fd5b506200043689828a01620002ef565b9350506200044760808801620002d2565b91506200045760a08801620002d2565b90509295509295509295565b600181811c908216806200047857607f821691505b602082108114156200049a57634e487b7160e01b600052602260045260246000fd5b50919050565b634e487b7160e01b600052604160045260246000fd5b608051612256620004d260003960006107d201526122566000f3fe608060405234801561001057600080fd5b50600436106101575760003560e01c80638da5cb5b116100c3578063f15f11d31161007c578063f15f11d31461034a578063f22f34f114610378578063f242432a1461039d578063f2fde38b146103b0578063f81fbe60146103c3578063fecb24ef146103ec57600080fd5b80638da5cb5b146102b2578063a22cb465146102cd578063a2782a51146102e0578063be92042d146102e8578063ca888310146102fb578063e985e9c51461030e57600080fd5b80633c0d92d1116101155780633c0d92d11461020f57806342545825146102225780634e1273f4146102355780636f7fa05f14610255578063715018a61461028357806375b238fc1461028b57600080fd5b8062fdd58e1461015c57806301ffc9a7146101825780630e89341c146101a5578063114f8eed146101c557806323bd4d7a146101e55780632eb2c2d6146101fa575b600080fd5b61016f61016a366004611b66565b61040c565b6040519081526020015b60405180910390f35b610195610190366004611cfd565b6104a3565b6040519015158152602001610179565b6101b86101b3366004611d35565b6104f5565b6040516101799190611ef0565b61016f6101d3366004611d35565b60086020526000908152604090205481565b6101ed610589565b6040516101799190611fda565b61020d610208366004611a34565b610698565b005b61016f61021d366004611bca565b61072f565b610195610230366004611b66565b6109e5565b610248610243366004611c32565b610a3f565b6040516101799190611eaf565b610195610263366004611d65565b600760209081526000928352604080842090915290825290205460ff1681565b61020d610ba1565b61016f7fa49807205ce4d355092ef5a8a18f56e8913cf4a201fbe287825b095693c2177581565b6003546040516001600160a01b039091168152602001610179565b61020d6102db366004611b3d565b610c07565b61016f610c16565b61016f6102f6366004611b66565b610c26565b61020d610309366004611b8f565b610c57565b61019561031c366004611a02565b6001600160a01b03918216600090815260016020908152604080832093909416825291909152205460ff1690565b610195610358366004611d65565b600560209081526000928352604080842090915290825290205460ff1681565b61038b610386366004611d35565b610e12565b60405161017996959493929190612036565b61020d6103ab366004611ada565b610edf565b61020d6103be3660046119e8565b610f66565b61016f6103d13660046119e8565b6001600160a01b031660009081526009602052604090205490565b61016f6103fa366004611d35565b60066020526000908152604090205481565b60006001600160a01b03831661047d5760405162461bcd60e51b815260206004820152602b60248201527f455243313135353a2062616c616e636520717565727920666f7220746865207a60448201526a65726f206164647265737360a81b60648201526084015b60405180910390fd5b506000908152602081815260408083206001600160a01b03949094168352929052205490565b60006001600160e01b03198216636cdb3d1360e11b14806104d457506001600160e01b031982166303a24d0760e21b145b806104ef57506301ffc9a760e01b6001600160e01b03198316145b92915050565b606060028054610504906120b9565b80601f0160208091040260200160405190810160405280929190818152602001828054610530906120b9565b801561057d5780601f106105525761010080835404028352916020019161057d565b820191906000526020600020905b81548152906001019060200180831161056057829003601f168201915b50505050509050919050565b6040805160a081018252600080825260606020830181905292820181905291810182905260808101919091526040805160a08101909152600b80548252600c80546020840191906105d9906120b9565b80601f0160208091040260200160405190810160405280929190818152602001828054610605906120b9565b80156106525780601f1061062757610100808354040283529160200191610652565b820191906000526020600020905b81548152906001019060200180831161063557829003601f168201915b5050509183525050600291909101546001600160a01b038116602083015260ff600160a01b8204811615156040840152600160a81b909104161515606090910152919050565b6001600160a01b0385163314806106b457506106b4853361031c565b61071b5760405162461bcd60e51b815260206004820152603260248201527f455243313135353a207472616e736665722063616c6c6572206973206e6f74206044820152711bdddb995c881b9bdc88185c1c1c9bdd995960721b6064820152608401610474565b610728858585858561103a565b5050505050565b60008280158061073f5750606481115b1561075d576040516312f3735d60e31b815260040160405180910390fd5b600f546001600160a01b0316331461078857604051639f3e0d1f60e01b815260040160405180910390fd5b6000610793600a5490565b90506107b18682600160405180602001604052806000815250611233565b600e54604051627eeac760e11b81526001600160a01b0388811660048301527f0000000000000000000000000000000000000000000000000000000000000000602483015260009216908290829062fdd58e9060440160206040518083038186803b15801561081f57600080fd5b505afa158015610833573d6000803e3d6000fd5b505050506040513d601f19601f820116820180604052508101906108579190611d4d565b11156108bd576040516310e6a78560e11b81526001600160a01b0389811660048301528216906321cd4f0a90602401600060405180830381600087803b1580156108a057600080fd5b505af11580156108b4573d6000803e3d6000fd5b50505050600191505b6040805160c0810182528481526001600160a01b038a811660208084019182528385018c8152606085018c815242608087015288151560a087015260008a815260048452969096208551815592516001840180546001600160a01b03191691909516179093559151600282015592518051929384939092610945926003850192910190611832565b506080820151600482015560a0909101516005909101805491151560ff199092169190911790556001600160a01b0389166000908152600960209081526040822080546001810182559083529120018490556109a5600a80546001019055565b6040518481527ffa039017104499194cbaee4a06ab081a02aff6ea3fc083959a88f5dd9544add99060200160405180910390a15091979650505050505050565b60008181526005602090815260408083206001600160a01b038616845290915281205460ff1680610a38575060008281526007602090815260408083206001600160a01b038716845290915290205460ff165b9392505050565b60608151835114610aa45760405162461bcd60e51b815260206004820152602960248201527f455243313135353a206163636f756e747320616e6420696473206c656e677468604482015268040dad2e6dac2e8c6d60bb1b6064820152608401610474565b6000835167ffffffffffffffff811115610ace57634e487b7160e01b600052604160045260246000fd5b604051908082528060200260200182016040528015610af7578160200160208202803683370190505b50905060005b8451811015610b9957610b5e858281518110610b2957634e487b7160e01b600052603260045260246000fd5b6020026020010151858381518110610b5157634e487b7160e01b600052603260045260246000fd5b602002602001015161040c565b828281518110610b7e57634e487b7160e01b600052603260045260246000fd5b6020908102919091010152610b9281612121565b9050610afd565b509392505050565b6003546001600160a01b03163314610bfb5760405162461bcd60e51b815260206004820181905260248201527f4f776e61626c653a2063616c6c6572206973206e6f7420746865206f776e65726044820152606401610474565b610c056000611347565b565b610c12338383611399565b5050565b6000610c21600a5490565b905090565b60096020528160005260406000208181548110610c4257600080fd5b90600052602060002001600091509150505481565b6000828152600460205260409020600101548390839083906001600160a01b0380851691161415610c9b57604051634ec7a74d60e11b815260040160405180910390fd5b60008281526007602090815260408083206001600160a01b038716845290915290205460ff16151560011480610cf8575060008281526005602090815260408083206001600160a01b038716845290915290205460ff1615156001145b15610d1657604051632ea388a760e11b815260040160405180910390fd5b60018415151415610d7e5760008581526005602090815260408083206001600160a01b038a1684528252808320805460ff1916600190811790915588845260069092529091205490610d699082906120a1565b60008781526006602052604090205550610dd7565b60008581526007602090815260408083206001600160a01b038a1684528252808320805460ff1916600190811790915588845260089092529091205490610dc69082906120a1565b600087815260086020526040902055505b6040518581527f9ea1d6dcc33efa8df0347b6875147497d067d8eed15435cc7ad0db9891addd079060200160405180910390a1505050505050565b600460205260009081526040902080546001820154600283015460038401805493946001600160a01b0390931693919291610e4c906120b9565b80601f0160208091040260200160405190810160405280929190818152602001828054610e78906120b9565b8015610ec55780601f10610e9a57610100808354040283529160200191610ec5565b820191906000526020600020905b815481529060010190602001808311610ea857829003601f168201915b50505050600483015460059093015491929160ff16905086565b6001600160a01b038516331480610efb5750610efb853361031c565b610f595760405162461bcd60e51b815260206004820152602960248201527f455243313135353a2063616c6c6572206973206e6f74206f776e6572206e6f7260448201526808185c1c1c9bdd995960ba1b6064820152608401610474565b610728858585858561147a565b6003546001600160a01b03163314610fc05760405162461bcd60e51b815260206004820181905260248201527f4f776e61626c653a2063616c6c6572206973206e6f7420746865206f776e65726044820152606401610474565b6001600160a01b0381166110255760405162461bcd60e51b815260206004820152602660248201527f4f776e61626c653a206e6577206f776e657220697320746865207a65726f206160448201526564647265737360d01b6064820152608401610474565b61102e81611347565b50565b80546001019055565b815183511461109c5760405162461bcd60e51b815260206004820152602860248201527f455243313135353a2069647320616e6420616d6f756e7473206c656e677468206044820152670dad2e6dac2e8c6d60c31b6064820152608401610474565b6001600160a01b0384166110c25760405162461bcd60e51b815260040161047490611f4b565b3360005b84518110156111c55760008582815181106110f157634e487b7160e01b600052603260045260246000fd5b60200260200101519050600085838151811061111d57634e487b7160e01b600052603260045260246000fd5b602090810291909101810151600084815280835260408082206001600160a01b038e16835290935291909120549091508181101561116d5760405162461bcd60e51b815260040161047490611f90565b6000838152602081815260408083206001600160a01b038e8116855292528083208585039055908b168252812080548492906111aa9084906120a1565b92505081905550505050806111be90612121565b90506110c6565b50846001600160a01b0316866001600160a01b0316826001600160a01b03167f4a39dc06d4c0dbc64b70af90fd698a233a518aa5d07e595d983b8c0526c8f7fb8787604051611215929190611ec2565b60405180910390a461122b8187878787876115a4565b505050505050565b6001600160a01b0384166112935760405162461bcd60e51b815260206004820152602160248201527f455243313135353a206d696e7420746f20746865207a65726f206164647265736044820152607360f81b6064820152608401610474565b33600061129f8561170f565b905060006112ac8561170f565b90506000868152602081815260408083206001600160a01b038b168452909152812080548792906112de9084906120a1565b909155505060408051878152602081018790526001600160a01b03808a1692600092918716917fc3d58168c5ae7397731d063d5bbf3d657854427343f4c083240f7aacaa2d0f62910160405180910390a461133e83600089898989611768565b50505050505050565b600380546001600160a01b038381166001600160a01b0319831681179093556040519116919082907f8be0079c531659141344cd1fd0a4f28419497f9722a3daafe3b4186f6b6457e090600090a35050565b816001600160a01b0316836001600160a01b0316141561140d5760405162461bcd60e51b815260206004820152602960248201527f455243313135353a2073657474696e6720617070726f76616c20737461747573604482015268103337b91039b2b63360b91b6064820152608401610474565b6001600160a01b03838116600081815260016020908152604080832094871680845294825291829020805460ff191686151590811790915591519182527f17307eab39ab6107e8899845ad3d59bd9653f200f220920489ca2b5937696c31910160405180910390a3505050565b6001600160a01b0384166114a05760405162461bcd60e51b815260040161047490611f4b565b3360006114ac8561170f565b905060006114b98561170f565b90506000868152602081815260408083206001600160a01b038c168452909152902054858110156114fc5760405162461bcd60e51b815260040161047490611f90565b6000878152602081815260408083206001600160a01b038d8116855292528083208985039055908a168252812080548892906115399084906120a1565b909155505060408051888152602081018890526001600160a01b03808b16928c821692918816917fc3d58168c5ae7397731d063d5bbf3d657854427343f4c083240f7aacaa2d0f62910160405180910390a4611599848a8a8a8a8a611768565b505050505050505050565b6001600160a01b0384163b1561122b5760405163bc197c8160e01b81526001600160a01b0385169063bc197c81906115e89089908990889088908890600401611e0c565b602060405180830381600087803b15801561160257600080fd5b505af1925050508015611632575060408051601f3d908101601f1916820190925261162f91810190611d19565b60015b6116df5761163e612168565b806308c379a014156116785750611653612180565b8061165e575061167a565b8060405162461bcd60e51b81526004016104749190611ef0565b505b60405162461bcd60e51b815260206004820152603460248201527f455243313135353a207472616e7366657220746f206e6f6e20455243313135356044820152732932b1b2b4bb32b91034b6b83632b6b2b73a32b960611b6064820152608401610474565b6001600160e01b0319811663bc197c8160e01b1461133e5760405162461bcd60e51b815260040161047490611f03565b6040805160018082528183019092526060916000919060208083019080368337019050509050828160008151811061175757634e487b7160e01b600052603260045260246000fd5b602090810291909101015292915050565b6001600160a01b0384163b1561122b5760405163f23a6e6160e01b81526001600160a01b0385169063f23a6e61906117ac9089908990889088908890600401611e6a565b602060405180830381600087803b1580156117c657600080fd5b505af19250505080156117f6575060408051601f3d908101601f191682019092526117f391810190611d19565b60015b6118025761163e612168565b6001600160e01b0319811663f23a6e6160e01b1461133e5760405162461bcd60e51b815260040161047490611f03565b82805461183e906120b9565b90600052602060002090601f01602090048101928261186057600085556118a6565b82601f1061187957805160ff19168380011785556118a6565b828001600101855582156118a6579182015b828111156118a657825182559160200191906001019061188b565b506118b29291506118b6565b5090565b5b808211156118b257600081556001016118b7565b600067ffffffffffffffff8311156118e5576118e5612152565b6040516118fc601f8501601f1916602001826120f4565b80915083815284848401111561191157600080fd5b83836020830137600060208583010152509392505050565b80356001600160a01b038116811461194057600080fd5b919050565b600082601f830112611955578081fd5b813560206119628261207d565b60405161196f82826120f4565b8381528281019150858301600585901b8701840188101561198e578586fd5b855b858110156119ac57813584529284019290840190600101611990565b5090979650505050505050565b8035801515811461194057600080fd5b600082601f8301126119d9578081fd5b610a38838335602085016118cb565b6000602082840312156119f9578081fd5b610a3882611929565b60008060408385031215611a14578081fd5b611a1d83611929565b9150611a2b60208401611929565b90509250929050565b600080600080600060a08688031215611a4b578081fd5b611a5486611929565b9450611a6260208701611929565b9350604086013567ffffffffffffffff80821115611a7e578283fd5b611a8a89838a01611945565b94506060880135915080821115611a9f578283fd5b611aab89838a01611945565b93506080880135915080821115611ac0578283fd5b50611acd888289016119c9565b9150509295509295909350565b600080600080600060a08688031215611af1578081fd5b611afa86611929565b9450611b0860208701611929565b93506040860135925060608601359150608086013567ffffffffffffffff811115611b31578182fd5b611acd888289016119c9565b60008060408385031215611b4f578182fd5b611b5883611929565b9150611a2b602084016119b9565b60008060408385031215611b78578182fd5b611b8183611929565b946020939093013593505050565b600080600060608486031215611ba3578283fd5b611bac84611929565b925060208401359150611bc1604085016119b9565b90509250925092565b600080600060608486031215611bde578081fd5b611be784611929565b925060208401359150604084013567ffffffffffffffff811115611c09578182fd5b8401601f81018613611c19578182fd5b611c28868235602084016118cb565b9150509250925092565b60008060408385031215611c44578182fd5b823567ffffffffffffffff80821115611c5b578384fd5b818501915085601f830112611c6e578384fd5b81356020611c7b8261207d565b604051611c8882826120f4565b8381528281019150858301600585901b870184018b1015611ca7578889fd5b8896505b84871015611cd057611cbc81611929565b835260019690960195918301918301611cab565b5096505086013592505080821115611ce6578283fd5b50611cf385828601611945565b9150509250929050565b600060208284031215611d0e578081fd5b8135610a388161220a565b600060208284031215611d2a578081fd5b8151610a388161220a565b600060208284031215611d46578081fd5b5035919050565b600060208284031215611d5e578081fd5b5051919050565b60008060408385031215611d77578182fd5b82359150611a2b60208401611929565b6000815180845260208085019450808401835b83811015611db657815187529582019590820190600101611d9a565b509495945050505050565b60008151808452815b81811015611de657602081850181015186830182015201611dca565b81811115611df75782602083870101525b50601f01601f19169290920160200192915050565b6001600160a01b0386811682528516602082015260a060408201819052600090611e3890830186611d87565b8281036060840152611e4a8186611d87565b90508281036080840152611e5e8185611dc1565b98975050505050505050565b6001600160a01b03868116825285166020820152604081018490526060810183905260a060808201819052600090611ea490830184611dc1565b979650505050505050565b602081526000610a386020830184611d87565b604081526000611ed56040830185611d87565b8281036020840152611ee78185611d87565b95945050505050565b602081526000610a386020830184611dc1565b60208082526028908201527f455243313135353a204552433131353552656365697665722072656a656374656040820152676420746f6b656e7360c01b606082015260800190565b60208082526025908201527f455243313135353a207472616e7366657220746f20746865207a65726f206164604082015264647265737360d81b606082015260800190565b6020808252602a908201527f455243313135353a20696e73756666696369656e742062616c616e636520666f60408201526939103a3930b739b332b960b11b606082015260800190565b60208152815160208201526000602083015160a0604084015261200060c0840182611dc1565b905060018060a01b0360408501511660608401526060840151151560808401526080840151151560a08401528091505092915050565b86815260018060a01b038616602082015284604082015260c06060820152600061206360c0830186611dc1565b60808301949094525090151560a090910152949350505050565b600067ffffffffffffffff82111561209757612097612152565b5060051b60200190565b600082198211156120b4576120b461213c565b500190565b600181811c908216806120cd57607f821691505b602082108114156120ee57634e487b7160e01b600052602260045260246000fd5b50919050565b601f8201601f1916810167ffffffffffffffff8111828210171561211a5761211a612152565b6040525050565b60006000198214156121355761213561213c565b5060010190565b634e487b7160e01b600052601160045260246000fd5b634e487b7160e01b600052604160045260246000fd5b600060033d111561217d57600481823e5160e01c5b90565b600060443d101561218e5790565b6040516003193d81016004833e81513d67ffffffffffffffff81602484011181841117156121be57505050505090565b82850191508151818111156121d65750505050505090565b843d87010160208285010111156121f05750505050505090565b6121ff602082860101876120f4565b509095945050505050565b6001600160e01b03198116811461102e57600080fdfea26469706673582212207c01fa06ca5ab7a6741efd9e55ace2f33dba89430b4158187a63e88c167e5cef64736f6c63430008040033",
  "linkReferences": {},
  "deployedLinkReferences": {}
}