{
  "_format": "hh-sol-artifact-1",
  "contractName": "AppraiserOrganization",
  "sourceName": "contracts/AppraiserOrganization.sol",
  "abi": [
    {
      "inputs": [
        {
          "internalType": "uint256",
          "name": "orgId_",
          "type": "uint256"
        },
        {
          "internalType": "string",
          "name": "name_",
          "type": "string"
        },
        {
          "internalType": "address",
          "name": "addr_",
          "type": "address"
        },
        {
          "internalType": "string",
          "name": "URI_",
          "type": "string"
        },
        {
          "internalType": "address",
          "name": "verifierAddr_",
          "type": "address"
        },
        {
          "internalType": "address",
          "name": "reviewerAddr_",
          "type": "address"
        }
      ],
      "stateMutability": "nonpayable",
      "type": "constructor"
    },
    {
      "inputs": [],
      "name": "AppraiserOrganization__CannotVoteOnOwnReview",
      "type": "error"
    },
    {
      "inputs": [],
      "name": "AppraiserOrganization__InvalidRating",
      "type": "error"
    },
    {
      "inputs": [],
      "name": "AppraiserOrganization__OneVoteAllowedPerReview",
      "type": "error"
    },
    {
      "inputs": [],
      "name": "AppraiserOrganization__OnlyReviewerContractCanCall",
      "type": "error"
    },
    {
      "anonymous": false,
      "inputs": [
        {
          "indexed": true,
          "internalType": "address",
          "name": "account",
          "type": "address"
        },
        {
          "indexed": true,
          "internalType": "address",
          "name": "operator",
          "type": "address"
        },
        {
          "indexed": false,
          "internalType": "bool",
          "name": "approved",
          "type": "bool"
        }
      ],
      "name": "ApprovalForAll",
      "type": "event"
    },
    {
      "anonymous": false,
      "inputs": [
        {
          "indexed": false,
          "internalType": "uint256",
          "name": "reviewId",
          "type": "uint256"
        }
      ],
      "name": "LogNFTReviewMinted",
      "type": "event"
    },
    {
      "anonymous": false,
      "inputs": [
        {
          "indexed": false,
          "internalType": "uint256",
          "name": "reviewId",
          "type": "uint256"
        }
      ],
      "name": "LogNFTReviewVote",
      "type": "event"
    },
    {
      "anonymous": false,
      "inputs": [
        {
          "indexed": true,
          "internalType": "address",
          "name": "previousOwner",
          "type": "address"
        },
        {
          "indexed": true,
          "internalType": "address",
          "name": "newOwner",
          "type": "address"
        }
      ],
      "name": "OwnershipTransferred",
      "type": "event"
    },
    {
      "anonymous": false,
      "inputs": [
        {
          "indexed": true,
          "internalType": "address",
          "name": "operator",
          "type": "address"
        },
        {
          "indexed": true,
          "internalType": "address",
          "name": "from",
          "type": "address"
        },
        {
          "indexed": true,
          "internalType": "address",
          "name": "to",
          "type": "address"
        },
        {
          "indexed": false,
          "internalType": "uint256[]",
          "name": "ids",
          "type": "uint256[]"
        },
        {
          "indexed": false,
          "internalType": "uint256[]",
          "name": "values",
          "type": "uint256[]"
        }
      ],
      "name": "TransferBatch",
      "type": "event"
    },
    {
      "anonymous": false,
      "inputs": [
        {
          "indexed": true,
          "internalType": "address",
          "name": "operator",
          "type": "address"
        },
        {
          "indexed": true,
          "internalType": "address",
          "name": "from",
          "type": "address"
        },
        {
          "indexed": true,
          "internalType": "address",
          "name": "to",
          "type": "address"
        },
        {
          "indexed": false,
          "internalType": "uint256",
          "name": "id",
          "type": "uint256"
        },
        {
          "indexed": false,
          "internalType": "uint256",
          "name": "value",
          "type": "uint256"
        }
      ],
      "name": "TransferSingle",
      "type": "event"
    },
    {
      "anonymous": false,
      "inputs": [
        {
          "indexed": false,
          "internalType": "string",
          "name": "value",
          "type": "string"
        },
        {
          "indexed": true,
          "internalType": "uint256",
          "name": "id",
          "type": "uint256"
        }
      ],
      "name": "URI",
      "type": "event"
    },
    {
      "inputs": [],
      "name": "ADMIN_ROLE",
      "outputs": [
        {
          "internalType": "bytes32",
          "name": "",
          "type": "bytes32"
        }
      ],
      "stateMutability": "view",
      "type": "function"
    },
    {
      "inputs": [
        {
          "internalType": "address",
          "name": "account",
          "type": "address"
        },
        {
          "internalType": "uint256",
          "name": "id",
          "type": "uint256"
        }
      ],
      "name": "balanceOf",
      "outputs": [
        {
          "internalType": "uint256",
          "name": "",
          "type": "uint256"
        }
      ],
      "stateMutability": "view",
      "type": "function"
    },
    {
      "inputs": [
        {
          "internalType": "address[]",
          "name": "accounts",
          "type": "address[]"
        },
        {
          "internalType": "uint256[]",
          "name": "ids",
          "type": "uint256[]"
        }
      ],
      "name": "balanceOfBatch",
      "outputs": [
        {
          "internalType": "uint256[]",
          "name": "",
          "type": "uint256[]"
        }
      ],
      "stateMutability": "view",
      "type": "function"
    },
    {
      "inputs": [],
      "name": "currentReviewId",
      "outputs": [
        {
          "internalType": "uint256",
          "name": "",
          "type": "uint256"
        }
      ],
      "stateMutability": "view",
      "type": "function"
    },
    {
      "inputs": [
        {
          "internalType": "address",
          "name": "reviewer_",
          "type": "address"
        },
        {
          "internalType": "uint256",
          "name": "reviewId_",
          "type": "uint256"
        }
      ],
      "name": "hasVoted",
      "outputs": [
        {
          "internalType": "bool",
          "name": "",
          "type": "bool"
        }
      ],
      "stateMutability": "view",
      "type": "function"
    },
    {
      "inputs": [
        {
          "internalType": "address",
          "name": "account",
          "type": "address"
        },
        {
          "internalType": "address",
          "name": "operator",
          "type": "address"
        }
      ],
      "name": "isApprovedForAll",
      "outputs": [
        {
          "internalType": "bool",
          "name": "",
          "type": "bool"
        }
      ],
      "stateMutability": "view",
      "type": "function"
    },
    {
      "inputs": [
        {
          "internalType": "address",
          "name": "reviewerAddr_",
          "type": "address"
        },
        {
          "internalType": "uint256",
          "name": "rating_",
          "type": "uint256"
        },
        {
          "internalType": "string",
          "name": "review_",
          "type": "string"
        }
      ],
      "name": "mintReviewNFT",
      "outputs": [
        {
          "internalType": "uint256",
          "name": "",
          "type": "uint256"
        }
      ],
      "stateMutability": "nonpayable",
      "type": "function"
    },
    {
      "inputs": [],
      "name": "organization",
      "outputs": [
        {
          "components": [
            {
              "internalType": "uint256",
              "name": "orgId",
              "type": "uint256"
            },
            {
              "internalType": "string",
              "name": "name",
              "type": "string"
            },
            {
              "internalType": "address",
              "name": "addr",
              "type": "address"
            },
            {
              "internalType": "bool",
              "name": "isActive",
              "type": "bool"
            },
            {
              "internalType": "bool",
              "name": "isCreated",
              "type": "bool"
            }
          ],
          "internalType": "struct Organizations.Organization",
          "name": "",
          "type": "tuple"
        }
      ],
      "stateMutability": "view",
      "type": "function"
    },
    {
      "inputs": [],
      "name": "owner",
      "outputs": [
        {
          "internalType": "address",
          "name": "",
          "type": "address"
        }
      ],
      "stateMutability": "view",
      "type": "function"
    },
    {
      "inputs": [],
      "name": "renounceOwnership",
      "outputs": [],
      "stateMutability": "nonpayable",
      "type": "function"
    },
    {
      "inputs": [
        {
          "internalType": "uint256",
          "name": "",
          "type": "uint256"
        }
      ],
      "name": "s_downvoteCount",
      "outputs": [
        {
          "internalType": "uint256",
          "name": "",
          "type": "uint256"
        }
      ],
      "stateMutability": "view",
      "type": "function"
    },
    {
      "inputs": [
        {
          "internalType": "uint256",
          "name": "",
          "type": "uint256"
        },
        {
          "internalType": "address",
          "name": "",
          "type": "address"
        }
      ],
      "name": "s_downvotes",
      "outputs": [
        {
          "internalType": "bool",
          "name": "",
          "type": "bool"
        }
      ],
      "stateMutability": "view",
      "type": "function"
    },
    {
      "inputs": [
        {
          "internalType": "uint256",
          "name": "",
          "type": "uint256"
        }
      ],
      "name": "s_reviews",
      "outputs": [
        {
          "internalType": "uint256",
          "name": "id",
          "type": "uint256"
        },
        {
          "internalType": "address",
          "name": "author",
          "type": "address"
        },
        {
          "internalType": "uint256",
          "name": "rating",
          "type": "uint256"
        },
        {
          "internalType": "string",
          "name": "review",
          "type": "string"
        },
        {
          "internalType": "uint256",
          "name": "unixtime",
          "type": "uint256"
        },
        {
          "internalType": "bool",
          "name": "isVerified",
          "type": "bool"
        }
      ],
      "stateMutability": "view",
      "type": "function"
    },
    {
      "inputs": [
        {
          "internalType": "uint256",
          "name": "",
          "type": "uint256"
        }
      ],
      "name": "s_upvoteCount",
      "outputs": [
        {
          "internalType": "uint256",
          "name": "",
          "type": "uint256"
        }
      ],
      "stateMutability": "view",
      "type": "function"
    },
    {
      "inputs": [
        {
          "internalType": "uint256",
          "name": "",
          "type": "uint256"
        },
        {
          "internalType": "address",
          "name": "",
          "type": "address"
        }
      ],
      "name": "s_upvotes",
      "outputs": [
        {
          "internalType": "bool",
          "name": "",
          "type": "bool"
        }
      ],
      "stateMutability": "view",
      "type": "function"
    },
    {
      "inputs": [
        {
          "internalType": "address",
          "name": "",
          "type": "address"
        },
        {
          "internalType": "uint256",
          "name": "",
          "type": "uint256"
        }
      ],
      "name": "s_userReviews",
      "outputs": [
        {
          "internalType": "uint256",
          "name": "",
          "type": "uint256"
        }
      ],
      "stateMutability": "view",
      "type": "function"
    },
    {
      "inputs": [
        {
          "internalType": "address",
          "name": "from",
          "type": "address"
        },
        {
          "internalType": "address",
          "name": "to",
          "type": "address"
        },
        {
          "internalType": "uint256[]",
          "name": "ids",
          "type": "uint256[]"
        },
        {
          "internalType": "uint256[]",
          "name": "amounts",
          "type": "uint256[]"
        },
        {
          "internalType": "bytes",
          "name": "data",
          "type": "bytes"
        }
      ],
      "name": "safeBatchTransferFrom",
      "outputs": [],
      "stateMutability": "nonpayable",
      "type": "function"
    },
    {
      "inputs": [
        {
          "internalType": "address",
          "name": "from",
          "type": "address"
        },
        {
          "internalType": "address",
          "name": "to",
          "type": "address"
        },
        {
          "internalType": "uint256",
          "name": "id",
          "type": "uint256"
        },
        {
          "internalType": "uint256",
          "name": "amount",
          "type": "uint256"
        },
        {
          "internalType": "bytes",
          "name": "data",
          "type": "bytes"
        }
      ],
      "name": "safeTransferFrom",
      "outputs": [],
      "stateMutability": "nonpayable",
      "type": "function"
    },
    {
      "inputs": [
        {
          "internalType": "address",
          "name": "operator",
          "type": "address"
        },
        {
          "internalType": "bool",
          "name": "approved",
          "type": "bool"
        }
      ],
      "name": "setApprovalForAll",
      "outputs": [],
      "stateMutability": "nonpayable",
      "type": "function"
    },
    {
      "inputs": [
        {
          "internalType": "bytes4",
          "name": "interfaceId",
          "type": "bytes4"
        }
      ],
      "name": "supportsInterface",
      "outputs": [
        {
          "internalType": "bool",
          "name": "",
          "type": "bool"
        }
      ],
      "stateMutability": "view",
      "type": "function"
    },
    {
      "inputs": [
        {
          "internalType": "address",
          "name": "newOwner",
          "type": "address"
        }
      ],
      "name": "transferOwnership",
      "outputs": [],
      "stateMutability": "nonpayable",
      "type": "function"
    },
    {
      "inputs": [
        {
          "internalType": "uint256",
          "name": "",
          "type": "uint256"
        }
      ],
      "name": "uri",
      "outputs": [
        {
          "internalType": "string",
          "name": "",
          "type": "string"
        }
      ],
      "stateMutability": "view",
      "type": "function"
    },
    {
      "inputs": [
        {
          "internalType": "address",
          "name": "reviewer_",
          "type": "address"
        },
        {
          "internalType": "uint256",
          "name": "reviewId_",
          "type": "uint256"
        },
        {
          "internalType": "bool",
          "name": "isUpvote_",
          "type": "bool"
        }
      ],
      "name": "voteOnReview",
      "outputs": [],
      "stateMutability": "nonpayable",
      "type": "function"
    }
  ],
  "bytecode": "0x60a06040523480156200001157600080fd5b50604051620026f4380380620026f48339810160408190526200003491620003bb565b826200004081620001b8565b506200004c33620001d1565b6040805160a08101825287815260208082018890526001600160a01b038716928201929092526001606082018190526080820152600b8881558751919290916200009d91600c91908a01906200022c565b506040828101516002909201805460608501516080909501511515600160a81b0260ff60a81b19951515600160a01b026001600160a81b03199092166001600160a01b0395861617919091179490941693909317909255600e80548583166001600160a01b03199182168117909255600f805493861693909116929092179091558151628c84e760e41b8152915190916308c84e70916004808301926020929190829003018186803b1580156200015357600080fd5b505afa15801562000168573d6000803e3d6000fd5b505050506040513d601f19601f820116820180604052508101906200018e9190620003a2565b60808181525050620001ac600a6200022360201b62000ffd1760201c565b505050505050620004b6565b8051620001cd9060029060208401906200022c565b5050565b600380546001600160a01b038381166001600160a01b0319831681179093556040519116919082907f8be0079c531659141344cd1fd0a4f28419497f9722a3daafe3b4186f6b6457e090600090a35050565b80546001019055565b8280546200023a9062000463565b90600052602060002090601f0160209004810192826200025e5760008555620002a9565b82601f106200027957805160ff1916838001178555620002a9565b82800160010185558215620002a9579182015b82811115620002a95782518255916020019190600101906200028c565b50620002b7929150620002bb565b5090565b5b80821115620002b75760008155600101620002bc565b80516001600160a01b0381168114620002ea57600080fd5b919050565b600082601f83011262000300578081fd5b81516001600160401b03808211156200031d576200031d620004a0565b604051601f8301601f19908116603f01168101908282118183101715620003485762000348620004a0565b8160405283815260209250868385880101111562000364578485fd5b8491505b8382101562000387578582018301518183018401529082019062000368565b838211156200039857848385830101525b9695505050505050565b600060208284031215620003b4578081fd5b5051919050565b60008060008060008060c08789031215620003d4578182fd5b865160208801519096506001600160401b0380821115620003f3578384fd5b620004018a838b01620002ef565b96506200041160408a01620002d2565b9550606089015191508082111562000427578384fd5b506200043689828a01620002ef565b9350506200044760808801620002d2565b91506200045760a08801620002d2565b90509295509295509295565b600181811c908216806200047857607f821691505b602082108114156200049a57634e487b7160e01b600052602260045260246000fd5b50919050565b634e487b7160e01b600052604160045260246000fd5b608051612222620004d2600039600061079e01526122226000f3fe608060405234801561001057600080fd5b506004361061014c5760003560e01c806375b238fc116100c3578063e985e9c51161007c578063e985e9c514610303578063f15f11d31461033f578063f22f34f11461036d578063f242432a14610392578063f2fde38b146103a5578063fecb24ef146103b857600080fd5b806375b238fc146102805780638da5cb5b146102a7578063a22cb465146102c2578063a2782a51146102d5578063be92042d146102dd578063ca888310146102f057600080fd5b80632eb2c2d6116101155780632eb2c2d6146101ef5780633c0d92d11461020457806342545825146102175780634e1273f41461022a5780636f7fa05f1461024a578063715018a61461027857600080fd5b8062fdd58e1461015157806301ffc9a7146101775780630e89341c1461019a578063114f8eed146101ba57806323bd4d7a146101da575b600080fd5b61016461015f366004611b32565b6103d8565b6040519081526020015b60405180910390f35b61018a610185366004611cc9565b61046f565b604051901515815260200161016e565b6101ad6101a8366004611d01565b6104c1565b60405161016e9190611ebc565b6101646101c8366004611d01565b60086020526000908152604090205481565b6101e2610555565b60405161016e9190611fa6565b6102026101fd366004611a00565b610664565b005b610164610212366004611b96565b6106fb565b61018a610225366004611b32565b6109b1565b61023d610238366004611bfe565b610a0b565b60405161016e9190611e7b565b61018a610258366004611d31565b600760209081526000928352604080842090915290825290205460ff1681565b610202610b6d565b6101647fa49807205ce4d355092ef5a8a18f56e8913cf4a201fbe287825b095693c2177581565b6003546040516001600160a01b03909116815260200161016e565b6102026102d0366004611b09565b610bd3565b610164610be2565b6101646102eb366004611b32565b610bf2565b6102026102fe366004611b5b565b610c23565b61018a6103113660046119ce565b6001600160a01b03918216600090815260016020908152604080832093909416825291909152205460ff1690565b61018a61034d366004611d31565b600560209081526000928352604080842090915290825290205460ff1681565b61038061037b366004611d01565b610dde565b60405161016e96959493929190612002565b6102026103a0366004611aa6565b610eab565b6102026103b33660046119b4565b610f32565b6101646103c6366004611d01565b60066020526000908152604090205481565b60006001600160a01b0383166104495760405162461bcd60e51b815260206004820152602b60248201527f455243313135353a2062616c616e636520717565727920666f7220746865207a60448201526a65726f206164647265737360a81b60648201526084015b60405180910390fd5b506000908152602081815260408083206001600160a01b03949094168352929052205490565b60006001600160e01b03198216636cdb3d1360e11b14806104a057506001600160e01b031982166303a24d0760e21b145b806104bb57506301ffc9a760e01b6001600160e01b03198316145b92915050565b6060600280546104d090612085565b80601f01602080910402602001604051908101604052809291908181526020018280546104fc90612085565b80156105495780601f1061051e57610100808354040283529160200191610549565b820191906000526020600020905b81548152906001019060200180831161052c57829003601f168201915b50505050509050919050565b6040805160a081018252600080825260606020830181905292820181905291810182905260808101919091526040805160a08101909152600b80548252600c80546020840191906105a590612085565b80601f01602080910402602001604051908101604052809291908181526020018280546105d190612085565b801561061e5780601f106105f35761010080835404028352916020019161061e565b820191906000526020600020905b81548152906001019060200180831161060157829003601f168201915b5050509183525050600291909101546001600160a01b038116602083015260ff600160a01b8204811615156040840152600160a81b909104161515606090910152919050565b6001600160a01b03851633148061068057506106808533610311565b6106e75760405162461bcd60e51b815260206004820152603260248201527f455243313135353a207472616e736665722063616c6c6572206973206e6f74206044820152711bdddb995c881b9bdc88185c1c1c9bdd995960721b6064820152608401610440565b6106f48585858585611006565b5050505050565b60008280158061070b5750606481115b15610729576040516312f3735d60e31b815260040160405180910390fd5b600f546001600160a01b0316331461075457604051639f3e0d1f60e01b815260040160405180910390fd5b600061075f600a5490565b905061077d86826001604051806020016040528060008152506111ff565b600e54604051627eeac760e11b81526001600160a01b0388811660048301527f0000000000000000000000000000000000000000000000000000000000000000602483015260009216908290829062fdd58e9060440160206040518083038186803b1580156107eb57600080fd5b505afa1580156107ff573d6000803e3d6000fd5b505050506040513d601f19601f820116820180604052508101906108239190611d19565b1115610889576040516310e6a78560e11b81526001600160a01b0389811660048301528216906321cd4f0a90602401600060405180830381600087803b15801561086c57600080fd5b505af1158015610880573d6000803e3d6000fd5b50505050600191505b6040805160c0810182528481526001600160a01b038a811660208084019182528385018c8152606085018c815242608087015288151560a087015260008a815260048452969096208551815592516001840180546001600160a01b031916919095161790935591516002820155925180519293849390926109119260038501929101906117fe565b506080820151600482015560a0909101516005909101805491151560ff199092169190911790556001600160a01b038916600090815260096020908152604082208054600181018255908352912001849055610971600a80546001019055565b6040518481527ffa039017104499194cbaee4a06ab081a02aff6ea3fc083959a88f5dd9544add99060200160405180910390a15091979650505050505050565b60008181526005602090815260408083206001600160a01b038616845290915281205460ff1680610a04575060008281526007602090815260408083206001600160a01b038716845290915290205460ff165b9392505050565b60608151835114610a705760405162461bcd60e51b815260206004820152602960248201527f455243313135353a206163636f756e747320616e6420696473206c656e677468604482015268040dad2e6dac2e8c6d60bb1b6064820152608401610440565b6000835167ffffffffffffffff811115610a9a57634e487b7160e01b600052604160045260246000fd5b604051908082528060200260200182016040528015610ac3578160200160208202803683370190505b50905060005b8451811015610b6557610b2a858281518110610af557634e487b7160e01b600052603260045260246000fd5b6020026020010151858381518110610b1d57634e487b7160e01b600052603260045260246000fd5b60200260200101516103d8565b828281518110610b4a57634e487b7160e01b600052603260045260246000fd5b6020908102919091010152610b5e816120ed565b9050610ac9565b509392505050565b6003546001600160a01b03163314610bc75760405162461bcd60e51b815260206004820181905260248201527f4f776e61626c653a2063616c6c6572206973206e6f7420746865206f776e65726044820152606401610440565b610bd16000611313565b565b610bde338383611365565b5050565b6000610bed600a5490565b905090565b60096020528160005260406000208181548110610c0e57600080fd5b90600052602060002001600091509150505481565b6000828152600460205260409020600101548390839083906001600160a01b0380851691161415610c6757604051634ec7a74d60e11b815260040160405180910390fd5b60008281526007602090815260408083206001600160a01b038716845290915290205460ff16151560011480610cc4575060008281526005602090815260408083206001600160a01b038716845290915290205460ff1615156001145b15610ce257604051632ea388a760e11b815260040160405180910390fd5b60018415151415610d4a5760008581526005602090815260408083206001600160a01b038a1684528252808320805460ff1916600190811790915588845260069092529091205490610d3590829061206d565b60008781526006602052604090205550610da3565b60008581526007602090815260408083206001600160a01b038a1684528252808320805460ff1916600190811790915588845260089092529091205490610d9290829061206d565b600087815260086020526040902055505b6040518581527f9ea1d6dcc33efa8df0347b6875147497d067d8eed15435cc7ad0db9891addd079060200160405180910390a1505050505050565b600460205260009081526040902080546001820154600283015460038401805493946001600160a01b0390931693919291610e1890612085565b80601f0160208091040260200160405190810160405280929190818152602001828054610e4490612085565b8015610e915780601f10610e6657610100808354040283529160200191610e91565b820191906000526020600020905b815481529060010190602001808311610e7457829003601f168201915b50505050600483015460059093015491929160ff16905086565b6001600160a01b038516331480610ec75750610ec78533610311565b610f255760405162461bcd60e51b815260206004820152602960248201527f455243313135353a2063616c6c6572206973206e6f74206f776e6572206e6f7260448201526808185c1c1c9bdd995960ba1b6064820152608401610440565b6106f48585858585611446565b6003546001600160a01b03163314610f8c5760405162461bcd60e51b815260206004820181905260248201527f4f776e61626c653a2063616c6c6572206973206e6f7420746865206f776e65726044820152606401610440565b6001600160a01b038116610ff15760405162461bcd60e51b815260206004820152602660248201527f4f776e61626c653a206e6577206f776e657220697320746865207a65726f206160448201526564647265737360d01b6064820152608401610440565b610ffa81611313565b50565b80546001019055565b81518351146110685760405162461bcd60e51b815260206004820152602860248201527f455243313135353a2069647320616e6420616d6f756e7473206c656e677468206044820152670dad2e6dac2e8c6d60c31b6064820152608401610440565b6001600160a01b03841661108e5760405162461bcd60e51b815260040161044090611f17565b3360005b84518110156111915760008582815181106110bd57634e487b7160e01b600052603260045260246000fd5b6020026020010151905060008583815181106110e957634e487b7160e01b600052603260045260246000fd5b602090810291909101810151600084815280835260408082206001600160a01b038e1683529093529190912054909150818110156111395760405162461bcd60e51b815260040161044090611f5c565b6000838152602081815260408083206001600160a01b038e8116855292528083208585039055908b1682528120805484929061117690849061206d565b925050819055505050508061118a906120ed565b9050611092565b50846001600160a01b0316866001600160a01b0316826001600160a01b03167f4a39dc06d4c0dbc64b70af90fd698a233a518aa5d07e595d983b8c0526c8f7fb87876040516111e1929190611e8e565b60405180910390a46111f7818787878787611570565b505050505050565b6001600160a01b03841661125f5760405162461bcd60e51b815260206004820152602160248201527f455243313135353a206d696e7420746f20746865207a65726f206164647265736044820152607360f81b6064820152608401610440565b33600061126b856116db565b90506000611278856116db565b90506000868152602081815260408083206001600160a01b038b168452909152812080548792906112aa90849061206d565b909155505060408051878152602081018790526001600160a01b03808a1692600092918716917fc3d58168c5ae7397731d063d5bbf3d657854427343f4c083240f7aacaa2d0f62910160405180910390a461130a83600089898989611734565b50505050505050565b600380546001600160a01b038381166001600160a01b0319831681179093556040519116919082907f8be0079c531659141344cd1fd0a4f28419497f9722a3daafe3b4186f6b6457e090600090a35050565b816001600160a01b0316836001600160a01b031614156113d95760405162461bcd60e51b815260206004820152602960248201527f455243313135353a2073657474696e6720617070726f76616c20737461747573604482015268103337b91039b2b63360b91b6064820152608401610440565b6001600160a01b03838116600081815260016020908152604080832094871680845294825291829020805460ff191686151590811790915591519182527f17307eab39ab6107e8899845ad3d59bd9653f200f220920489ca2b5937696c31910160405180910390a3505050565b6001600160a01b03841661146c5760405162461bcd60e51b815260040161044090611f17565b336000611478856116db565b90506000611485856116db565b90506000868152602081815260408083206001600160a01b038c168452909152902054858110156114c85760405162461bcd60e51b815260040161044090611f5c565b6000878152602081815260408083206001600160a01b038d8116855292528083208985039055908a1682528120805488929061150590849061206d565b909155505060408051888152602081018890526001600160a01b03808b16928c821692918816917fc3d58168c5ae7397731d063d5bbf3d657854427343f4c083240f7aacaa2d0f62910160405180910390a4611565848a8a8a8a8a611734565b505050505050505050565b6001600160a01b0384163b156111f75760405163bc197c8160e01b81526001600160a01b0385169063bc197c81906115b49089908990889088908890600401611dd8565b602060405180830381600087803b1580156115ce57600080fd5b505af19250505080156115fe575060408051601f3d908101601f191682019092526115fb91810190611ce5565b60015b6116ab5761160a612134565b806308c379a01415611644575061161f61214c565b8061162a5750611646565b8060405162461bcd60e51b81526004016104409190611ebc565b505b60405162461bcd60e51b815260206004820152603460248201527f455243313135353a207472616e7366657220746f206e6f6e20455243313135356044820152732932b1b2b4bb32b91034b6b83632b6b2b73a32b960611b6064820152608401610440565b6001600160e01b0319811663bc197c8160e01b1461130a5760405162461bcd60e51b815260040161044090611ecf565b6040805160018082528183019092526060916000919060208083019080368337019050509050828160008151811061172357634e487b7160e01b600052603260045260246000fd5b602090810291909101015292915050565b6001600160a01b0384163b156111f75760405163f23a6e6160e01b81526001600160a01b0385169063f23a6e61906117789089908990889088908890600401611e36565b602060405180830381600087803b15801561179257600080fd5b505af19250505080156117c2575060408051601f3d908101601f191682019092526117bf91810190611ce5565b60015b6117ce5761160a612134565b6001600160e01b0319811663f23a6e6160e01b1461130a5760405162461bcd60e51b815260040161044090611ecf565b82805461180a90612085565b90600052602060002090601f01602090048101928261182c5760008555611872565b82601f1061184557805160ff1916838001178555611872565b82800160010185558215611872579182015b82811115611872578251825591602001919060010190611857565b5061187e929150611882565b5090565b5b8082111561187e5760008155600101611883565b600067ffffffffffffffff8311156118b1576118b161211e565b6040516118c8601f8501601f1916602001826120c0565b8091508381528484840111156118dd57600080fd5b83836020830137600060208583010152509392505050565b80356001600160a01b038116811461190c57600080fd5b919050565b600082601f830112611921578081fd5b8135602061192e82612049565b60405161193b82826120c0565b8381528281019150858301600585901b8701840188101561195a578586fd5b855b858110156119785781358452928401929084019060010161195c565b5090979650505050505050565b8035801515811461190c57600080fd5b600082601f8301126119a5578081fd5b610a0483833560208501611897565b6000602082840312156119c5578081fd5b610a04826118f5565b600080604083850312156119e0578081fd5b6119e9836118f5565b91506119f7602084016118f5565b90509250929050565b600080600080600060a08688031215611a17578081fd5b611a20866118f5565b9450611a2e602087016118f5565b9350604086013567ffffffffffffffff80821115611a4a578283fd5b611a5689838a01611911565b94506060880135915080821115611a6b578283fd5b611a7789838a01611911565b93506080880135915080821115611a8c578283fd5b50611a9988828901611995565b9150509295509295909350565b600080600080600060a08688031215611abd578081fd5b611ac6866118f5565b9450611ad4602087016118f5565b93506040860135925060608601359150608086013567ffffffffffffffff811115611afd578182fd5b611a9988828901611995565b60008060408385031215611b1b578182fd5b611b24836118f5565b91506119f760208401611985565b60008060408385031215611b44578182fd5b611b4d836118f5565b946020939093013593505050565b600080600060608486031215611b6f578283fd5b611b78846118f5565b925060208401359150611b8d60408501611985565b90509250925092565b600080600060608486031215611baa578081fd5b611bb3846118f5565b925060208401359150604084013567ffffffffffffffff811115611bd5578182fd5b8401601f81018613611be5578182fd5b611bf486823560208401611897565b9150509250925092565b60008060408385031215611c10578182fd5b823567ffffffffffffffff80821115611c27578384fd5b818501915085601f830112611c3a578384fd5b81356020611c4782612049565b604051611c5482826120c0565b8381528281019150858301600585901b870184018b1015611c73578889fd5b8896505b84871015611c9c57611c88816118f5565b835260019690960195918301918301611c77565b5096505086013592505080821115611cb2578283fd5b50611cbf85828601611911565b9150509250929050565b600060208284031215611cda578081fd5b8135610a04816121d6565b600060208284031215611cf6578081fd5b8151610a04816121d6565b600060208284031215611d12578081fd5b5035919050565b600060208284031215611d2a578081fd5b5051919050565b60008060408385031215611d43578182fd5b823591506119f7602084016118f5565b6000815180845260208085019450808401835b83811015611d8257815187529582019590820190600101611d66565b509495945050505050565b60008151808452815b81811015611db257602081850181015186830182015201611d96565b81811115611dc35782602083870101525b50601f01601f19169290920160200192915050565b6001600160a01b0386811682528516602082015260a060408201819052600090611e0490830186611d53565b8281036060840152611e168186611d53565b90508281036080840152611e2a8185611d8d565b98975050505050505050565b6001600160a01b03868116825285166020820152604081018490526060810183905260a060808201819052600090611e7090830184611d8d565b979650505050505050565b602081526000610a046020830184611d53565b604081526000611ea16040830185611d53565b8281036020840152611eb38185611d53565b95945050505050565b602081526000610a046020830184611d8d565b60208082526028908201527f455243313135353a204552433131353552656365697665722072656a656374656040820152676420746f6b656e7360c01b606082015260800190565b60208082526025908201527f455243313135353a207472616e7366657220746f20746865207a65726f206164604082015264647265737360d81b606082015260800190565b6020808252602a908201527f455243313135353a20696e73756666696369656e742062616c616e636520666f60408201526939103a3930b739b332b960b11b606082015260800190565b60208152815160208201526000602083015160a06040840152611fcc60c0840182611d8d565b905060018060a01b0360408501511660608401526060840151151560808401526080840151151560a08401528091505092915050565b86815260018060a01b038616602082015284604082015260c06060820152600061202f60c0830186611d8d565b60808301949094525090151560a090910152949350505050565b600067ffffffffffffffff8211156120635761206361211e565b5060051b60200190565b6000821982111561208057612080612108565b500190565b600181811c9082168061209957607f821691505b602082108114156120ba57634e487b7160e01b600052602260045260246000fd5b50919050565b601f8201601f1916810167ffffffffffffffff811182821017156120e6576120e661211e565b6040525050565b600060001982141561210157612101612108565b5060010190565b634e487b7160e01b600052601160045260246000fd5b634e487b7160e01b600052604160045260246000fd5b600060033d111561214957600481823e5160e01c5b90565b600060443d101561215a5790565b6040516003193d81016004833e81513d67ffffffffffffffff816024840111818411171561218a57505050505090565b82850191508151818111156121a25750505050505090565b843d87010160208285010111156121bc5750505050505090565b6121cb602082860101876120c0565b509095945050505050565b6001600160e01b031981168114610ffa57600080fdfea264697066735822122056fea00255d1dff630de95152630170ff29ac063c9275db4f81e626dd00318e264736f6c63430008040033",
  "linkReferences": {},
  "deployedLinkReferences": {}
}