{
  "_format": "hh-sol-artifact-1",
  "contractName": "AppraiserOrganization",
  "sourceName": "contracts/AppraiserOrganization.sol",
  "abi": [
    {
      "inputs": [
        {
          "internalType": "uint256",
          "name": "orgId_",
          "type": "uint256"
        },
        {
          "internalType": "string",
          "name": "name_",
          "type": "string"
        },
        {
          "internalType": "address",
          "name": "addr_",
          "type": "address"
        },
        {
          "internalType": "string",
          "name": "URI_",
          "type": "string"
        },
        {
          "internalType": "address",
          "name": "verifierAddr_",
          "type": "address"
        },
        {
          "internalType": "address",
          "name": "reviewerAddr_",
          "type": "address"
        }
      ],
      "stateMutability": "nonpayable",
      "type": "constructor"
    },
    {
      "inputs": [],
      "name": "AppraiserOrganization__CannotVoteOnOwnReview",
      "type": "error"
    },
    {
      "inputs": [],
      "name": "AppraiserOrganization__InvalidRating",
      "type": "error"
    },
    {
      "inputs": [],
      "name": "AppraiserOrganization__OneVoteAllowedPerReview",
      "type": "error"
    },
    {
      "inputs": [],
      "name": "AppraiserOrganization__OnlyReviewerContractCanCall",
      "type": "error"
    },
    {
      "anonymous": false,
      "inputs": [
        {
          "indexed": true,
          "internalType": "address",
          "name": "account",
          "type": "address"
        },
        {
          "indexed": true,
          "internalType": "address",
          "name": "operator",
          "type": "address"
        },
        {
          "indexed": false,
          "internalType": "bool",
          "name": "approved",
          "type": "bool"
        }
      ],
      "name": "ApprovalForAll",
      "type": "event"
    },
    {
      "anonymous": false,
      "inputs": [
        {
          "indexed": false,
          "internalType": "uint256",
          "name": "reviewId",
          "type": "uint256"
        }
      ],
      "name": "LogNFTReviewMinted",
      "type": "event"
    },
    {
      "anonymous": false,
      "inputs": [
        {
          "indexed": false,
          "internalType": "uint256",
          "name": "reviewId",
          "type": "uint256"
        }
      ],
      "name": "LogNFTReviewVote",
      "type": "event"
    },
    {
      "anonymous": false,
      "inputs": [
        {
          "indexed": true,
          "internalType": "address",
          "name": "previousOwner",
          "type": "address"
        },
        {
          "indexed": true,
          "internalType": "address",
          "name": "newOwner",
          "type": "address"
        }
      ],
      "name": "OwnershipTransferred",
      "type": "event"
    },
    {
      "anonymous": false,
      "inputs": [
        {
          "indexed": true,
          "internalType": "address",
          "name": "operator",
          "type": "address"
        },
        {
          "indexed": true,
          "internalType": "address",
          "name": "from",
          "type": "address"
        },
        {
          "indexed": true,
          "internalType": "address",
          "name": "to",
          "type": "address"
        },
        {
          "indexed": false,
          "internalType": "uint256[]",
          "name": "ids",
          "type": "uint256[]"
        },
        {
          "indexed": false,
          "internalType": "uint256[]",
          "name": "values",
          "type": "uint256[]"
        }
      ],
      "name": "TransferBatch",
      "type": "event"
    },
    {
      "anonymous": false,
      "inputs": [
        {
          "indexed": true,
          "internalType": "address",
          "name": "operator",
          "type": "address"
        },
        {
          "indexed": true,
          "internalType": "address",
          "name": "from",
          "type": "address"
        },
        {
          "indexed": true,
          "internalType": "address",
          "name": "to",
          "type": "address"
        },
        {
          "indexed": false,
          "internalType": "uint256",
          "name": "id",
          "type": "uint256"
        },
        {
          "indexed": false,
          "internalType": "uint256",
          "name": "value",
          "type": "uint256"
        }
      ],
      "name": "TransferSingle",
      "type": "event"
    },
    {
      "anonymous": false,
      "inputs": [
        {
          "indexed": false,
          "internalType": "string",
          "name": "value",
          "type": "string"
        },
        {
          "indexed": true,
          "internalType": "uint256",
          "name": "id",
          "type": "uint256"
        }
      ],
      "name": "URI",
      "type": "event"
    },
    {
      "inputs": [],
      "name": "ADMIN_ROLE",
      "outputs": [
        {
          "internalType": "bytes32",
          "name": "",
          "type": "bytes32"
        }
      ],
      "stateMutability": "view",
      "type": "function"
    },
    {
      "inputs": [
        {
          "internalType": "address",
          "name": "account",
          "type": "address"
        },
        {
          "internalType": "uint256",
          "name": "id",
          "type": "uint256"
        }
      ],
      "name": "balanceOf",
      "outputs": [
        {
          "internalType": "uint256",
          "name": "",
          "type": "uint256"
        }
      ],
      "stateMutability": "view",
      "type": "function"
    },
    {
      "inputs": [
        {
          "internalType": "address[]",
          "name": "accounts",
          "type": "address[]"
        },
        {
          "internalType": "uint256[]",
          "name": "ids",
          "type": "uint256[]"
        }
      ],
      "name": "balanceOfBatch",
      "outputs": [
        {
          "internalType": "uint256[]",
          "name": "",
          "type": "uint256[]"
        }
      ],
      "stateMutability": "view",
      "type": "function"
    },
    {
      "inputs": [],
      "name": "currentReviewId",
      "outputs": [
        {
          "internalType": "uint256",
          "name": "",
          "type": "uint256"
        }
      ],
      "stateMutability": "view",
      "type": "function"
    },
    {
      "inputs": [
        {
          "internalType": "address",
          "name": "reviewer_",
          "type": "address"
        },
        {
          "internalType": "uint256",
          "name": "reviewId_",
          "type": "uint256"
        }
      ],
      "name": "hasVoted",
      "outputs": [
        {
          "internalType": "bool",
          "name": "",
          "type": "bool"
        }
      ],
      "stateMutability": "view",
      "type": "function"
    },
    {
      "inputs": [
        {
          "internalType": "address",
          "name": "account",
          "type": "address"
        },
        {
          "internalType": "address",
          "name": "operator",
          "type": "address"
        }
      ],
      "name": "isApprovedForAll",
      "outputs": [
        {
          "internalType": "bool",
          "name": "",
          "type": "bool"
        }
      ],
      "stateMutability": "view",
      "type": "function"
    },
    {
      "inputs": [
        {
          "internalType": "address",
          "name": "reviewerAddr_",
          "type": "address"
        },
        {
          "internalType": "uint256",
          "name": "rating_",
          "type": "uint256"
        },
        {
          "internalType": "string",
          "name": "review_",
          "type": "string"
        }
      ],
      "name": "mintReviewNFT",
      "outputs": [
        {
          "internalType": "uint256",
          "name": "",
          "type": "uint256"
        }
      ],
      "stateMutability": "nonpayable",
      "type": "function"
    },
    {
      "inputs": [],
      "name": "organization",
      "outputs": [
        {
          "components": [
            {
              "internalType": "uint256",
              "name": "orgId",
              "type": "uint256"
            },
            {
              "internalType": "string",
              "name": "name",
              "type": "string"
            },
            {
              "internalType": "address",
              "name": "addr",
              "type": "address"
            },
            {
              "internalType": "bool",
              "name": "isActive",
              "type": "bool"
            },
            {
              "internalType": "bool",
              "name": "isCreated",
              "type": "bool"
            }
          ],
          "internalType": "struct Organizations.Organization",
          "name": "",
          "type": "tuple"
        }
      ],
      "stateMutability": "view",
      "type": "function"
    },
    {
      "inputs": [],
      "name": "owner",
      "outputs": [
        {
          "internalType": "address",
          "name": "",
          "type": "address"
        }
      ],
      "stateMutability": "view",
      "type": "function"
    },
    {
      "inputs": [],
      "name": "renounceOwnership",
      "outputs": [],
      "stateMutability": "nonpayable",
      "type": "function"
    },
    {
      "inputs": [
        {
          "internalType": "uint256",
          "name": "",
          "type": "uint256"
        }
      ],
      "name": "s_downvoteCount",
      "outputs": [
        {
          "internalType": "uint256",
          "name": "",
          "type": "uint256"
        }
      ],
      "stateMutability": "view",
      "type": "function"
    },
    {
      "inputs": [
        {
          "internalType": "uint256",
          "name": "",
          "type": "uint256"
        },
        {
          "internalType": "address",
          "name": "",
          "type": "address"
        }
      ],
      "name": "s_downvotes",
      "outputs": [
        {
          "internalType": "bool",
          "name": "",
          "type": "bool"
        }
      ],
      "stateMutability": "view",
      "type": "function"
    },
    {
      "inputs": [
        {
          "internalType": "uint256",
          "name": "",
          "type": "uint256"
        }
      ],
      "name": "s_reviews",
      "outputs": [
        {
          "internalType": "uint256",
          "name": "id",
          "type": "uint256"
        },
        {
          "internalType": "address",
          "name": "author",
          "type": "address"
        },
        {
          "internalType": "uint256",
          "name": "rating",
          "type": "uint256"
        },
        {
          "internalType": "string",
          "name": "review",
          "type": "string"
        },
        {
          "internalType": "uint256",
          "name": "unixtime",
          "type": "uint256"
        },
        {
          "internalType": "bool",
          "name": "isVerified",
          "type": "bool"
        }
      ],
      "stateMutability": "view",
      "type": "function"
    },
    {
      "inputs": [
        {
          "internalType": "uint256",
          "name": "",
          "type": "uint256"
        }
      ],
      "name": "s_upvoteCount",
      "outputs": [
        {
          "internalType": "uint256",
          "name": "",
          "type": "uint256"
        }
      ],
      "stateMutability": "view",
      "type": "function"
    },
    {
      "inputs": [
        {
          "internalType": "uint256",
          "name": "",
          "type": "uint256"
        },
        {
          "internalType": "address",
          "name": "",
          "type": "address"
        }
      ],
      "name": "s_upvotes",
      "outputs": [
        {
          "internalType": "bool",
          "name": "",
          "type": "bool"
        }
      ],
      "stateMutability": "view",
      "type": "function"
    },
    {
      "inputs": [
        {
          "internalType": "address",
          "name": "from",
          "type": "address"
        },
        {
          "internalType": "address",
          "name": "to",
          "type": "address"
        },
        {
          "internalType": "uint256[]",
          "name": "ids",
          "type": "uint256[]"
        },
        {
          "internalType": "uint256[]",
          "name": "amounts",
          "type": "uint256[]"
        },
        {
          "internalType": "bytes",
          "name": "data",
          "type": "bytes"
        }
      ],
      "name": "safeBatchTransferFrom",
      "outputs": [],
      "stateMutability": "nonpayable",
      "type": "function"
    },
    {
      "inputs": [
        {
          "internalType": "address",
          "name": "from",
          "type": "address"
        },
        {
          "internalType": "address",
          "name": "to",
          "type": "address"
        },
        {
          "internalType": "uint256",
          "name": "id",
          "type": "uint256"
        },
        {
          "internalType": "uint256",
          "name": "amount",
          "type": "uint256"
        },
        {
          "internalType": "bytes",
          "name": "data",
          "type": "bytes"
        }
      ],
      "name": "safeTransferFrom",
      "outputs": [],
      "stateMutability": "nonpayable",
      "type": "function"
    },
    {
      "inputs": [
        {
          "internalType": "address",
          "name": "operator",
          "type": "address"
        },
        {
          "internalType": "bool",
          "name": "approved",
          "type": "bool"
        }
      ],
      "name": "setApprovalForAll",
      "outputs": [],
      "stateMutability": "nonpayable",
      "type": "function"
    },
    {
      "inputs": [
        {
          "internalType": "bytes4",
          "name": "interfaceId",
          "type": "bytes4"
        }
      ],
      "name": "supportsInterface",
      "outputs": [
        {
          "internalType": "bool",
          "name": "",
          "type": "bool"
        }
      ],
      "stateMutability": "view",
      "type": "function"
    },
    {
      "inputs": [
        {
          "internalType": "address",
          "name": "newOwner",
          "type": "address"
        }
      ],
      "name": "transferOwnership",
      "outputs": [],
      "stateMutability": "nonpayable",
      "type": "function"
    },
    {
      "inputs": [
        {
          "internalType": "uint256",
          "name": "",
          "type": "uint256"
        }
      ],
      "name": "uri",
      "outputs": [
        {
          "internalType": "string",
          "name": "",
          "type": "string"
        }
      ],
      "stateMutability": "view",
      "type": "function"
    },
    {
      "inputs": [
        {
          "internalType": "address",
          "name": "reviewer_",
          "type": "address"
        },
        {
          "internalType": "uint256",
          "name": "reviewId_",
          "type": "uint256"
        },
        {
          "internalType": "bool",
          "name": "isUpvote_",
          "type": "bool"
        }
      ],
      "name": "voteOnReview",
      "outputs": [],
      "stateMutability": "nonpayable",
      "type": "function"
    }
  ],
  "bytecode": "0x60a06040523480156200001157600080fd5b5060405162002673380380620026738339810160408190526200003491620003bb565b826200004081620001b8565b506200004c33620001d1565b6040805160a08101825287815260208082018890526001600160a01b038716928201929092526001606082018190526080820152600a8881558751919290916200009d91600b91908a01906200022c565b506040828101516002909201805460608501516080909501511515600160a81b0260ff60a81b19951515600160a01b026001600160a81b03199092166001600160a01b0395861617919091179490941693909317909255600d80548583166001600160a01b03199182168117909255600e805493861693909116929092179091558151628c84e760e41b8152915190916308c84e70916004808301926020929190829003018186803b1580156200015357600080fd5b505afa15801562000168573d6000803e3d6000fd5b505050506040513d601f19601f820116820180604052508101906200018e9190620003a2565b60808181525050620001ac60096200022360201b62000f7c1760201c565b505050505050620004b6565b8051620001cd9060029060208401906200022c565b5050565b600380546001600160a01b038381166001600160a01b0319831681179093556040519116919082907f8be0079c531659141344cd1fd0a4f28419497f9722a3daafe3b4186f6b6457e090600090a35050565b80546001019055565b8280546200023a9062000463565b90600052602060002090601f0160209004810192826200025e5760008555620002a9565b82601f106200027957805160ff1916838001178555620002a9565b82800160010185558215620002a9579182015b82811115620002a95782518255916020019190600101906200028c565b50620002b7929150620002bb565b5090565b5b80821115620002b75760008155600101620002bc565b80516001600160a01b0381168114620002ea57600080fd5b919050565b600082601f83011262000300578081fd5b81516001600160401b03808211156200031d576200031d620004a0565b604051601f8301601f19908116603f01168101908282118183101715620003485762000348620004a0565b8160405283815260209250868385880101111562000364578485fd5b8491505b8382101562000387578582018301518183018401529082019062000368565b838211156200039857848385830101525b9695505050505050565b600060208284031215620003b4578081fd5b5051919050565b60008060008060008060c08789031215620003d4578182fd5b865160208801519096506001600160401b0380821115620003f3578384fd5b620004018a838b01620002ef565b96506200041160408a01620002d2565b9550606089015191508082111562000427578384fd5b506200043689828a01620002ef565b9350506200044760808801620002d2565b91506200045760a08801620002d2565b90509295509295509295565b600181811c908216806200047857607f821691505b602082108114156200049a57634e487b7160e01b600052602260045260246000fd5b50919050565b634e487b7160e01b600052604160045260246000fd5b6080516121a1620004d2600039600061078001526121a16000f3fe608060405234801561001057600080fd5b50600436106101415760003560e01c806375b238fc116100b8578063e985e9c51161007c578063e985e9c5146102e5578063f15f11d314610321578063f22f34f11461034f578063f242432a14610374578063f2fde38b14610387578063fecb24ef1461039a57600080fd5b806375b238fc146102755780638da5cb5b1461029c578063a22cb465146102b7578063a2782a51146102ca578063ca888310146102d257600080fd5b80632eb2c2d61161010a5780632eb2c2d6146101e45780633c0d92d1146101f9578063425458251461020c5780634e1273f41461021f5780636f7fa05f1461023f578063715018a61461026d57600080fd5b8062fdd58e1461014657806301ffc9a71461016c5780630e89341c1461018f578063114f8eed146101af57806323bd4d7a146101cf575b600080fd5b610159610154366004611ab1565b6103ba565b6040519081526020015b60405180910390f35b61017f61017a366004611c48565b610451565b6040519015158152602001610163565b6101a261019d366004611c80565b6104a3565b6040516101639190611e3b565b6101596101bd366004611c80565b60086020526000908152604090205481565b6101d7610537565b6040516101639190611f25565b6101f76101f236600461197f565b610646565b005b610159610207366004611b15565b6106dd565b61017f61021a366004611ab1565b610961565b61023261022d366004611b7d565b6109bb565b6040516101639190611dfa565b61017f61024d366004611cb0565b600760209081526000928352604080842090915290825290205460ff1681565b6101f7610b1d565b6101597fa49807205ce4d355092ef5a8a18f56e8913cf4a201fbe287825b095693c2177581565b6003546040516001600160a01b039091168152602001610163565b6101f76102c5366004611a88565b610b83565b610159610b92565b6101f76102e0366004611ada565b610ba2565b61017f6102f336600461194d565b6001600160a01b03918216600090815260016020908152604080832093909416825291909152205460ff1690565b61017f61032f366004611cb0565b600560209081526000928352604080842090915290825290205460ff1681565b61036261035d366004611c80565b610d5d565b60405161016396959493929190611f81565b6101f7610382366004611a25565b610e2a565b6101f7610395366004611933565b610eb1565b6101596103a8366004611c80565b60066020526000908152604090205481565b60006001600160a01b03831661042b5760405162461bcd60e51b815260206004820152602b60248201527f455243313135353a2062616c616e636520717565727920666f7220746865207a60448201526a65726f206164647265737360a81b60648201526084015b60405180910390fd5b506000908152602081815260408083206001600160a01b03949094168352929052205490565b60006001600160e01b03198216636cdb3d1360e11b148061048257506001600160e01b031982166303a24d0760e21b145b8061049d57506301ffc9a760e01b6001600160e01b03198316145b92915050565b6060600280546104b290612004565b80601f01602080910402602001604051908101604052809291908181526020018280546104de90612004565b801561052b5780601f106105005761010080835404028352916020019161052b565b820191906000526020600020905b81548152906001019060200180831161050e57829003601f168201915b50505050509050919050565b6040805160a081018252600080825260606020830181905292820181905291810182905260808101919091526040805160a08101909152600a80548252600b805460208401919061058790612004565b80601f01602080910402602001604051908101604052809291908181526020018280546105b390612004565b80156106005780601f106105d557610100808354040283529160200191610600565b820191906000526020600020905b8154815290600101906020018083116105e357829003601f168201915b5050509183525050600291909101546001600160a01b038116602083015260ff600160a01b8204811615156040840152600160a81b909104161515606090910152919050565b6001600160a01b038516331480610662575061066285336102f3565b6106c95760405162461bcd60e51b815260206004820152603260248201527f455243313135353a207472616e736665722063616c6c6572206973206e6f74206044820152711bdddb995c881b9bdc88185c1c1c9bdd995960721b6064820152608401610422565b6106d68585858585610f85565b5050505050565b6000828015806106ed5750606481115b1561070b576040516312f3735d60e31b815260040160405180910390fd5b600e546001600160a01b0316331461073657604051639f3e0d1f60e01b815260040160405180910390fd5b600061074160095490565b905061075f868260016040518060200160405280600081525061117e565b600d54604051627eeac760e11b81526001600160a01b0388811660048301527f0000000000000000000000000000000000000000000000000000000000000000602483015260009216908290829062fdd58e9060440160206040518083038186803b1580156107cd57600080fd5b505afa1580156107e1573d6000803e3d6000fd5b505050506040513d601f19601f820116820180604052508101906108059190611c98565b111561086b576040516310e6a78560e11b81526001600160a01b0389811660048301528216906321cd4f0a90602401600060405180830381600087803b15801561084e57600080fd5b505af1158015610862573d6000803e3d6000fd5b50505050600191505b6040805160c0810182528481526001600160a01b038a811660208084019182528385018c8152606085018c815242608087015288151560a087015260008a815260048452969096208551815592516001840180546001600160a01b031916919095161790935591516002820155925180519293849390926108f392600385019291019061177d565b506080820151600482015560a0909101516005909101805460ff19169115159190911790556009805460010190556040518481527ffa039017104499194cbaee4a06ab081a02aff6ea3fc083959a88f5dd9544add99060200160405180910390a15091979650505050505050565b60008181526005602090815260408083206001600160a01b038616845290915281205460ff16806109b4575060008281526007602090815260408083206001600160a01b038716845290915290205460ff165b9392505050565b60608151835114610a205760405162461bcd60e51b815260206004820152602960248201527f455243313135353a206163636f756e747320616e6420696473206c656e677468604482015268040dad2e6dac2e8c6d60bb1b6064820152608401610422565b6000835167ffffffffffffffff811115610a4a57634e487b7160e01b600052604160045260246000fd5b604051908082528060200260200182016040528015610a73578160200160208202803683370190505b50905060005b8451811015610b1557610ada858281518110610aa557634e487b7160e01b600052603260045260246000fd5b6020026020010151858381518110610acd57634e487b7160e01b600052603260045260246000fd5b60200260200101516103ba565b828281518110610afa57634e487b7160e01b600052603260045260246000fd5b6020908102919091010152610b0e8161206c565b9050610a79565b509392505050565b6003546001600160a01b03163314610b775760405162461bcd60e51b815260206004820181905260248201527f4f776e61626c653a2063616c6c6572206973206e6f7420746865206f776e65726044820152606401610422565b610b816000611292565b565b610b8e3383836112e4565b5050565b6000610b9d60095490565b905090565b6000828152600460205260409020600101548390839083906001600160a01b0380851691161415610be657604051634ec7a74d60e11b815260040160405180910390fd5b60008281526007602090815260408083206001600160a01b038716845290915290205460ff16151560011480610c43575060008281526005602090815260408083206001600160a01b038716845290915290205460ff1615156001145b15610c6157604051632ea388a760e11b815260040160405180910390fd5b60018415151415610cc95760008581526005602090815260408083206001600160a01b038a1684528252808320805460ff1916600190811790915588845260069092529091205490610cb4908290611fec565b60008781526006602052604090205550610d22565b60008581526007602090815260408083206001600160a01b038a1684528252808320805460ff1916600190811790915588845260089092529091205490610d11908290611fec565b600087815260086020526040902055505b6040518581527f9ea1d6dcc33efa8df0347b6875147497d067d8eed15435cc7ad0db9891addd079060200160405180910390a1505050505050565b600460205260009081526040902080546001820154600283015460038401805493946001600160a01b0390931693919291610d9790612004565b80601f0160208091040260200160405190810160405280929190818152602001828054610dc390612004565b8015610e105780601f10610de557610100808354040283529160200191610e10565b820191906000526020600020905b815481529060010190602001808311610df357829003601f168201915b50505050600483015460059093015491929160ff16905086565b6001600160a01b038516331480610e465750610e4685336102f3565b610ea45760405162461bcd60e51b815260206004820152602960248201527f455243313135353a2063616c6c6572206973206e6f74206f776e6572206e6f7260448201526808185c1c1c9bdd995960ba1b6064820152608401610422565b6106d685858585856113c5565b6003546001600160a01b03163314610f0b5760405162461bcd60e51b815260206004820181905260248201527f4f776e61626c653a2063616c6c6572206973206e6f7420746865206f776e65726044820152606401610422565b6001600160a01b038116610f705760405162461bcd60e51b815260206004820152602660248201527f4f776e61626c653a206e6577206f776e657220697320746865207a65726f206160448201526564647265737360d01b6064820152608401610422565b610f7981611292565b50565b80546001019055565b8151835114610fe75760405162461bcd60e51b815260206004820152602860248201527f455243313135353a2069647320616e6420616d6f756e7473206c656e677468206044820152670dad2e6dac2e8c6d60c31b6064820152608401610422565b6001600160a01b03841661100d5760405162461bcd60e51b815260040161042290611e96565b3360005b845181101561111057600085828151811061103c57634e487b7160e01b600052603260045260246000fd5b60200260200101519050600085838151811061106857634e487b7160e01b600052603260045260246000fd5b602090810291909101810151600084815280835260408082206001600160a01b038e1683529093529190912054909150818110156110b85760405162461bcd60e51b815260040161042290611edb565b6000838152602081815260408083206001600160a01b038e8116855292528083208585039055908b168252812080548492906110f5908490611fec565b92505081905550505050806111099061206c565b9050611011565b50846001600160a01b0316866001600160a01b0316826001600160a01b03167f4a39dc06d4c0dbc64b70af90fd698a233a518aa5d07e595d983b8c0526c8f7fb8787604051611160929190611e0d565b60405180910390a46111768187878787876114ef565b505050505050565b6001600160a01b0384166111de5760405162461bcd60e51b815260206004820152602160248201527f455243313135353a206d696e7420746f20746865207a65726f206164647265736044820152607360f81b6064820152608401610422565b3360006111ea8561165a565b905060006111f78561165a565b90506000868152602081815260408083206001600160a01b038b16845290915281208054879290611229908490611fec565b909155505060408051878152602081018790526001600160a01b03808a1692600092918716917fc3d58168c5ae7397731d063d5bbf3d657854427343f4c083240f7aacaa2d0f62910160405180910390a4611289836000898989896116b3565b50505050505050565b600380546001600160a01b038381166001600160a01b0319831681179093556040519116919082907f8be0079c531659141344cd1fd0a4f28419497f9722a3daafe3b4186f6b6457e090600090a35050565b816001600160a01b0316836001600160a01b031614156113585760405162461bcd60e51b815260206004820152602960248201527f455243313135353a2073657474696e6720617070726f76616c20737461747573604482015268103337b91039b2b63360b91b6064820152608401610422565b6001600160a01b03838116600081815260016020908152604080832094871680845294825291829020805460ff191686151590811790915591519182527f17307eab39ab6107e8899845ad3d59bd9653f200f220920489ca2b5937696c31910160405180910390a3505050565b6001600160a01b0384166113eb5760405162461bcd60e51b815260040161042290611e96565b3360006113f78561165a565b905060006114048561165a565b90506000868152602081815260408083206001600160a01b038c168452909152902054858110156114475760405162461bcd60e51b815260040161042290611edb565b6000878152602081815260408083206001600160a01b038d8116855292528083208985039055908a16825281208054889290611484908490611fec565b909155505060408051888152602081018890526001600160a01b03808b16928c821692918816917fc3d58168c5ae7397731d063d5bbf3d657854427343f4c083240f7aacaa2d0f62910160405180910390a46114e4848a8a8a8a8a6116b3565b505050505050505050565b6001600160a01b0384163b156111765760405163bc197c8160e01b81526001600160a01b0385169063bc197c81906115339089908990889088908890600401611d57565b602060405180830381600087803b15801561154d57600080fd5b505af192505050801561157d575060408051601f3d908101601f1916820190925261157a91810190611c64565b60015b61162a576115896120b3565b806308c379a014156115c3575061159e6120cb565b806115a957506115c5565b8060405162461bcd60e51b81526004016104229190611e3b565b505b60405162461bcd60e51b815260206004820152603460248201527f455243313135353a207472616e7366657220746f206e6f6e20455243313135356044820152732932b1b2b4bb32b91034b6b83632b6b2b73a32b960611b6064820152608401610422565b6001600160e01b0319811663bc197c8160e01b146112895760405162461bcd60e51b815260040161042290611e4e565b604080516001808252818301909252606091600091906020808301908036833701905050905082816000815181106116a257634e487b7160e01b600052603260045260246000fd5b602090810291909101015292915050565b6001600160a01b0384163b156111765760405163f23a6e6160e01b81526001600160a01b0385169063f23a6e61906116f79089908990889088908890600401611db5565b602060405180830381600087803b15801561171157600080fd5b505af1925050508015611741575060408051601f3d908101601f1916820190925261173e91810190611c64565b60015b61174d576115896120b3565b6001600160e01b0319811663f23a6e6160e01b146112895760405162461bcd60e51b815260040161042290611e4e565b82805461178990612004565b90600052602060002090601f0160209004810192826117ab57600085556117f1565b82601f106117c457805160ff19168380011785556117f1565b828001600101855582156117f1579182015b828111156117f15782518255916020019190600101906117d6565b506117fd929150611801565b5090565b5b808211156117fd5760008155600101611802565b600067ffffffffffffffff8311156118305761183061209d565b604051611847601f8501601f19166020018261203f565b80915083815284848401111561185c57600080fd5b83836020830137600060208583010152509392505050565b80356001600160a01b038116811461188b57600080fd5b919050565b600082601f8301126118a0578081fd5b813560206118ad82611fc8565b6040516118ba828261203f565b8381528281019150858301600585901b870184018810156118d9578586fd5b855b858110156118f7578135845292840192908401906001016118db565b5090979650505050505050565b8035801515811461188b57600080fd5b600082601f830112611924578081fd5b6109b483833560208501611816565b600060208284031215611944578081fd5b6109b482611874565b6000806040838503121561195f578081fd5b61196883611874565b915061197660208401611874565b90509250929050565b600080600080600060a08688031215611996578081fd5b61199f86611874565b94506119ad60208701611874565b9350604086013567ffffffffffffffff808211156119c9578283fd5b6119d589838a01611890565b945060608801359150808211156119ea578283fd5b6119f689838a01611890565b93506080880135915080821115611a0b578283fd5b50611a1888828901611914565b9150509295509295909350565b600080600080600060a08688031215611a3c578081fd5b611a4586611874565b9450611a5360208701611874565b93506040860135925060608601359150608086013567ffffffffffffffff811115611a7c578182fd5b611a1888828901611914565b60008060408385031215611a9a578182fd5b611aa383611874565b915061197660208401611904565b60008060408385031215611ac3578182fd5b611acc83611874565b946020939093013593505050565b600080600060608486031215611aee578283fd5b611af784611874565b925060208401359150611b0c60408501611904565b90509250925092565b600080600060608486031215611b29578081fd5b611b3284611874565b925060208401359150604084013567ffffffffffffffff811115611b54578182fd5b8401601f81018613611b64578182fd5b611b7386823560208401611816565b9150509250925092565b60008060408385031215611b8f578182fd5b823567ffffffffffffffff80821115611ba6578384fd5b818501915085601f830112611bb9578384fd5b81356020611bc682611fc8565b604051611bd3828261203f565b8381528281019150858301600585901b870184018b1015611bf2578889fd5b8896505b84871015611c1b57611c0781611874565b835260019690960195918301918301611bf6565b5096505086013592505080821115611c31578283fd5b50611c3e85828601611890565b9150509250929050565b600060208284031215611c59578081fd5b81356109b481612155565b600060208284031215611c75578081fd5b81516109b481612155565b600060208284031215611c91578081fd5b5035919050565b600060208284031215611ca9578081fd5b5051919050565b60008060408385031215611cc2578182fd5b8235915061197660208401611874565b6000815180845260208085019450808401835b83811015611d0157815187529582019590820190600101611ce5565b509495945050505050565b60008151808452815b81811015611d3157602081850181015186830182015201611d15565b81811115611d425782602083870101525b50601f01601f19169290920160200192915050565b6001600160a01b0386811682528516602082015260a060408201819052600090611d8390830186611cd2565b8281036060840152611d958186611cd2565b90508281036080840152611da98185611d0c565b98975050505050505050565b6001600160a01b03868116825285166020820152604081018490526060810183905260a060808201819052600090611def90830184611d0c565b979650505050505050565b6020815260006109b46020830184611cd2565b604081526000611e206040830185611cd2565b8281036020840152611e328185611cd2565b95945050505050565b6020815260006109b46020830184611d0c565b60208082526028908201527f455243313135353a204552433131353552656365697665722072656a656374656040820152676420746f6b656e7360c01b606082015260800190565b60208082526025908201527f455243313135353a207472616e7366657220746f20746865207a65726f206164604082015264647265737360d81b606082015260800190565b6020808252602a908201527f455243313135353a20696e73756666696369656e742062616c616e636520666f60408201526939103a3930b739b332b960b11b606082015260800190565b60208152815160208201526000602083015160a06040840152611f4b60c0840182611d0c565b905060018060a01b0360408501511660608401526060840151151560808401526080840151151560a08401528091505092915050565b86815260018060a01b038616602082015284604082015260c060608201526000611fae60c0830186611d0c565b60808301949094525090151560a090910152949350505050565b600067ffffffffffffffff821115611fe257611fe261209d565b5060051b60200190565b60008219821115611fff57611fff612087565b500190565b600181811c9082168061201857607f821691505b6020821081141561203957634e487b7160e01b600052602260045260246000fd5b50919050565b601f8201601f1916810167ffffffffffffffff811182821017156120655761206561209d565b6040525050565b600060001982141561208057612080612087565b5060010190565b634e487b7160e01b600052601160045260246000fd5b634e487b7160e01b600052604160045260246000fd5b600060033d11156120c857600481823e5160e01c5b90565b600060443d10156120d95790565b6040516003193d81016004833e81513d67ffffffffffffffff816024840111818411171561210957505050505090565b82850191508151818111156121215750505050505090565b843d870101602082850101111561213b5750505050505090565b61214a6020828601018761203f565b509095945050505050565b6001600160e01b031981168114610f7957600080fdfea264697066735822122019b7f466e76535a7ea5ff68896c1287dd648cf135a074d14f06297983e7f8a2364736f6c63430008040033",
  "linkReferences": {},
  "deployedLinkReferences": {}
}