{
  "_format": "hh-sol-artifact-1",
  "contractName": "AppraiserOrganization",
  "sourceName": "contracts/AppraiserOrganization.sol",
  "abi": [
    {
      "inputs": [
        {
          "internalType": "uint256",
          "name": "orgId_",
          "type": "uint256"
        },
        {
          "internalType": "string",
          "name": "name_",
          "type": "string"
        },
        {
          "internalType": "address",
          "name": "addr_",
          "type": "address"
        },
        {
          "internalType": "string",
          "name": "URI_",
          "type": "string"
        },
        {
          "internalType": "address",
          "name": "verifierAddr_",
          "type": "address"
        },
        {
          "internalType": "address",
          "name": "reviewerAddr_",
          "type": "address"
        }
      ],
      "stateMutability": "nonpayable",
      "type": "constructor"
    },
    {
      "inputs": [],
      "name": "AppraiserOrganization__CannotVoteOnOwnReview",
      "type": "error"
    },
    {
      "inputs": [],
      "name": "AppraiserOrganization__InvalidRating",
      "type": "error"
    },
    {
      "inputs": [],
      "name": "AppraiserOrganization__OneVoteAllowedPerReview",
      "type": "error"
    },
    {
      "inputs": [],
      "name": "AppraiserOrganization__OnlyReviewerContractCanCall",
      "type": "error"
    },
    {
      "anonymous": false,
      "inputs": [
        {
          "indexed": true,
          "internalType": "address",
          "name": "account",
          "type": "address"
        },
        {
          "indexed": true,
          "internalType": "address",
          "name": "operator",
          "type": "address"
        },
        {
          "indexed": false,
          "internalType": "bool",
          "name": "approved",
          "type": "bool"
        }
      ],
      "name": "ApprovalForAll",
      "type": "event"
    },
    {
      "anonymous": false,
      "inputs": [
        {
          "indexed": false,
          "internalType": "uint256",
          "name": "reviewId",
          "type": "uint256"
        }
      ],
      "name": "LogNFTReviewMinted",
      "type": "event"
    },
    {
      "anonymous": false,
      "inputs": [
        {
          "indexed": false,
          "internalType": "uint256",
          "name": "reviewId",
          "type": "uint256"
        }
      ],
      "name": "LogNFTReviewVote",
      "type": "event"
    },
    {
      "anonymous": false,
      "inputs": [
        {
          "indexed": true,
          "internalType": "address",
          "name": "previousOwner",
          "type": "address"
        },
        {
          "indexed": true,
          "internalType": "address",
          "name": "newOwner",
          "type": "address"
        }
      ],
      "name": "OwnershipTransferred",
      "type": "event"
    },
    {
      "anonymous": false,
      "inputs": [
        {
          "indexed": true,
          "internalType": "address",
          "name": "operator",
          "type": "address"
        },
        {
          "indexed": true,
          "internalType": "address",
          "name": "from",
          "type": "address"
        },
        {
          "indexed": true,
          "internalType": "address",
          "name": "to",
          "type": "address"
        },
        {
          "indexed": false,
          "internalType": "uint256[]",
          "name": "ids",
          "type": "uint256[]"
        },
        {
          "indexed": false,
          "internalType": "uint256[]",
          "name": "values",
          "type": "uint256[]"
        }
      ],
      "name": "TransferBatch",
      "type": "event"
    },
    {
      "anonymous": false,
      "inputs": [
        {
          "indexed": true,
          "internalType": "address",
          "name": "operator",
          "type": "address"
        },
        {
          "indexed": true,
          "internalType": "address",
          "name": "from",
          "type": "address"
        },
        {
          "indexed": true,
          "internalType": "address",
          "name": "to",
          "type": "address"
        },
        {
          "indexed": false,
          "internalType": "uint256",
          "name": "id",
          "type": "uint256"
        },
        {
          "indexed": false,
          "internalType": "uint256",
          "name": "value",
          "type": "uint256"
        }
      ],
      "name": "TransferSingle",
      "type": "event"
    },
    {
      "anonymous": false,
      "inputs": [
        {
          "indexed": false,
          "internalType": "string",
          "name": "value",
          "type": "string"
        },
        {
          "indexed": true,
          "internalType": "uint256",
          "name": "id",
          "type": "uint256"
        }
      ],
      "name": "URI",
      "type": "event"
    },
    {
      "inputs": [],
      "name": "ADMIN_ROLE",
      "outputs": [
        {
          "internalType": "bytes32",
          "name": "",
          "type": "bytes32"
        }
      ],
      "stateMutability": "view",
      "type": "function"
    },
    {
      "inputs": [
        {
          "internalType": "address",
          "name": "account",
          "type": "address"
        },
        {
          "internalType": "uint256",
          "name": "id",
          "type": "uint256"
        }
      ],
      "name": "balanceOf",
      "outputs": [
        {
          "internalType": "uint256",
          "name": "",
          "type": "uint256"
        }
      ],
      "stateMutability": "view",
      "type": "function"
    },
    {
      "inputs": [
        {
          "internalType": "address[]",
          "name": "accounts",
          "type": "address[]"
        },
        {
          "internalType": "uint256[]",
          "name": "ids",
          "type": "uint256[]"
        }
      ],
      "name": "balanceOfBatch",
      "outputs": [
        {
          "internalType": "uint256[]",
          "name": "",
          "type": "uint256[]"
        }
      ],
      "stateMutability": "view",
      "type": "function"
    },
    {
      "inputs": [],
      "name": "currentReviewId",
      "outputs": [
        {
          "internalType": "uint256",
          "name": "",
          "type": "uint256"
        }
      ],
      "stateMutability": "view",
      "type": "function"
    },
    {
      "inputs": [
        {
          "internalType": "address",
          "name": "reviewer_",
          "type": "address"
        },
        {
          "internalType": "uint256",
          "name": "reviewId_",
          "type": "uint256"
        },
        {
          "internalType": "bool",
          "name": "isUpvote_",
          "type": "bool"
        }
      ],
      "name": "hasVoted",
      "outputs": [
        {
          "internalType": "bool",
          "name": "",
          "type": "bool"
        }
      ],
      "stateMutability": "view",
      "type": "function"
    },
    {
      "inputs": [
        {
          "internalType": "address",
          "name": "account",
          "type": "address"
        },
        {
          "internalType": "address",
          "name": "operator",
          "type": "address"
        }
      ],
      "name": "isApprovedForAll",
      "outputs": [
        {
          "internalType": "bool",
          "name": "",
          "type": "bool"
        }
      ],
      "stateMutability": "view",
      "type": "function"
    },
    {
      "inputs": [
        {
          "internalType": "address",
          "name": "reviewerAddr_",
          "type": "address"
        },
        {
          "internalType": "uint256",
          "name": "rating_",
          "type": "uint256"
        },
        {
          "internalType": "string",
          "name": "review_",
          "type": "string"
        }
      ],
      "name": "mintReviewNFT",
      "outputs": [
        {
          "internalType": "uint256",
          "name": "",
          "type": "uint256"
        }
      ],
      "stateMutability": "nonpayable",
      "type": "function"
    },
    {
      "inputs": [],
      "name": "organization",
      "outputs": [
        {
          "components": [
            {
              "internalType": "uint256",
              "name": "orgId",
              "type": "uint256"
            },
            {
              "internalType": "string",
              "name": "name",
              "type": "string"
            },
            {
              "internalType": "address",
              "name": "addr",
              "type": "address"
            },
            {
              "internalType": "bool",
              "name": "isActive",
              "type": "bool"
            },
            {
              "internalType": "bool",
              "name": "isCreated",
              "type": "bool"
            }
          ],
          "internalType": "struct Organizations.Organization",
          "name": "",
          "type": "tuple"
        }
      ],
      "stateMutability": "view",
      "type": "function"
    },
    {
      "inputs": [],
      "name": "owner",
      "outputs": [
        {
          "internalType": "address",
          "name": "",
          "type": "address"
        }
      ],
      "stateMutability": "view",
      "type": "function"
    },
    {
      "inputs": [],
      "name": "renounceOwnership",
      "outputs": [],
      "stateMutability": "nonpayable",
      "type": "function"
    },
    {
      "inputs": [
        {
          "internalType": "uint256",
          "name": "",
          "type": "uint256"
        }
      ],
      "name": "s_downvoteCount",
      "outputs": [
        {
          "internalType": "uint256",
          "name": "",
          "type": "uint256"
        }
      ],
      "stateMutability": "view",
      "type": "function"
    },
    {
      "inputs": [
        {
          "internalType": "uint256",
          "name": "",
          "type": "uint256"
        }
      ],
      "name": "s_reviews",
      "outputs": [
        {
          "internalType": "uint256",
          "name": "id",
          "type": "uint256"
        },
        {
          "internalType": "address",
          "name": "author",
          "type": "address"
        },
        {
          "internalType": "uint256",
          "name": "rating",
          "type": "uint256"
        },
        {
          "internalType": "string",
          "name": "review",
          "type": "string"
        },
        {
          "internalType": "uint256",
          "name": "unixtime",
          "type": "uint256"
        },
        {
          "internalType": "bool",
          "name": "isVerified",
          "type": "bool"
        }
      ],
      "stateMutability": "view",
      "type": "function"
    },
    {
      "inputs": [
        {
          "internalType": "uint256",
          "name": "",
          "type": "uint256"
        }
      ],
      "name": "s_upvoteCount",
      "outputs": [
        {
          "internalType": "uint256",
          "name": "",
          "type": "uint256"
        }
      ],
      "stateMutability": "view",
      "type": "function"
    },
    {
      "inputs": [
        {
          "internalType": "address",
          "name": "from",
          "type": "address"
        },
        {
          "internalType": "address",
          "name": "to",
          "type": "address"
        },
        {
          "internalType": "uint256[]",
          "name": "ids",
          "type": "uint256[]"
        },
        {
          "internalType": "uint256[]",
          "name": "amounts",
          "type": "uint256[]"
        },
        {
          "internalType": "bytes",
          "name": "data",
          "type": "bytes"
        }
      ],
      "name": "safeBatchTransferFrom",
      "outputs": [],
      "stateMutability": "nonpayable",
      "type": "function"
    },
    {
      "inputs": [
        {
          "internalType": "address",
          "name": "from",
          "type": "address"
        },
        {
          "internalType": "address",
          "name": "to",
          "type": "address"
        },
        {
          "internalType": "uint256",
          "name": "id",
          "type": "uint256"
        },
        {
          "internalType": "uint256",
          "name": "amount",
          "type": "uint256"
        },
        {
          "internalType": "bytes",
          "name": "data",
          "type": "bytes"
        }
      ],
      "name": "safeTransferFrom",
      "outputs": [],
      "stateMutability": "nonpayable",
      "type": "function"
    },
    {
      "inputs": [
        {
          "internalType": "address",
          "name": "operator",
          "type": "address"
        },
        {
          "internalType": "bool",
          "name": "approved",
          "type": "bool"
        }
      ],
      "name": "setApprovalForAll",
      "outputs": [],
      "stateMutability": "nonpayable",
      "type": "function"
    },
    {
      "inputs": [
        {
          "internalType": "bytes4",
          "name": "interfaceId",
          "type": "bytes4"
        }
      ],
      "name": "supportsInterface",
      "outputs": [
        {
          "internalType": "bool",
          "name": "",
          "type": "bool"
        }
      ],
      "stateMutability": "view",
      "type": "function"
    },
    {
      "inputs": [
        {
          "internalType": "address",
          "name": "newOwner",
          "type": "address"
        }
      ],
      "name": "transferOwnership",
      "outputs": [],
      "stateMutability": "nonpayable",
      "type": "function"
    },
    {
      "inputs": [
        {
          "internalType": "uint256",
          "name": "",
          "type": "uint256"
        }
      ],
      "name": "uri",
      "outputs": [
        {
          "internalType": "string",
          "name": "",
          "type": "string"
        }
      ],
      "stateMutability": "view",
      "type": "function"
    },
    {
      "inputs": [
        {
          "internalType": "address",
          "name": "reviewer_",
          "type": "address"
        },
        {
          "internalType": "uint256",
          "name": "reviewId_",
          "type": "uint256"
        },
        {
          "internalType": "bool",
          "name": "isUpvote_",
          "type": "bool"
        }
      ],
      "name": "voteOnReview",
      "outputs": [],
      "stateMutability": "nonpayable",
      "type": "function"
    }
  ],
  "bytecode": "0x60a06040523480156200001157600080fd5b50604051620025ed380380620025ed8339810160408190526200003491620003bb565b826200004081620001b8565b506200004c33620001d1565b6040805160a08101825287815260208082018890526001600160a01b038716928201929092526001606082018190526080820152600a8881558751919290916200009d91600b91908a01906200022c565b506040828101516002909201805460608501516080909501511515600160a81b0260ff60a81b19951515600160a01b026001600160a81b03199092166001600160a01b0395861617919091179490941693909317909255600d80548583166001600160a01b03199182168117909255600e805493861693909116929092179091558151628c84e760e41b8152915190916308c84e70916004808301926020929190829003018186803b1580156200015357600080fd5b505afa15801562000168573d6000803e3d6000fd5b505050506040513d601f19601f820116820180604052508101906200018e9190620003a2565b60808181525050620001ac60096200022360201b62000f181760201c565b505050505050620004b6565b8051620001cd9060029060208401906200022c565b5050565b600380546001600160a01b038381166001600160a01b0319831681179093556040519116919082907f8be0079c531659141344cd1fd0a4f28419497f9722a3daafe3b4186f6b6457e090600090a35050565b80546001019055565b8280546200023a9062000463565b90600052602060002090601f0160209004810192826200025e5760008555620002a9565b82601f106200027957805160ff1916838001178555620002a9565b82800160010185558215620002a9579182015b82811115620002a95782518255916020019190600101906200028c565b50620002b7929150620002bb565b5090565b5b80821115620002b75760008155600101620002bc565b80516001600160a01b0381168114620002ea57600080fd5b919050565b600082601f83011262000300578081fd5b81516001600160401b03808211156200031d576200031d620004a0565b604051601f8301601f19908116603f01168101908282118183101715620003485762000348620004a0565b8160405283815260209250868385880101111562000364578485fd5b8491505b8382101562000387578582018301518183018401529082019062000368565b838211156200039857848385830101525b9695505050505050565b600060208284031215620003b4578081fd5b5051919050565b60008060008060008060c08789031215620003d4578182fd5b865160208801519096506001600160401b0380821115620003f3578384fd5b620004018a838b01620002ef565b96506200041160408a01620002d2565b9550606089015191508082111562000427578384fd5b506200043689828a01620002ef565b9350506200044760808801620002d2565b91506200045760a08801620002d2565b90509295509295509295565b600181811c908216806200047857607f821691505b602082108114156200049a57634e487b7160e01b600052602260045260246000fd5b50919050565b634e487b7160e01b600052604160045260246000fd5b60805161211b620004d2600039600061070e015261211b6000f3fe608060405234801561001057600080fd5b506004361061012b5760003560e01c80638da5cb5b116100ad578063e985e9c511610071578063e985e9c5146102a1578063f22f34f1146102dd578063f242432a14610302578063f2fde38b14610315578063fecb24ef1461032857600080fd5b80638da5cb5b1461024557806397e9949314610260578063a22cb46514610273578063a2782a5114610286578063ca8883101461028e57600080fd5b80632eb2c2d6116100f45780632eb2c2d6146101ce5780633c0d92d1146101e35780634e1273f4146101f6578063715018a61461021657806375b238fc1461021e57600080fd5b8062fdd58e1461013057806301ffc9a7146101565780630e89341c14610179578063114f8eed1461019957806323bd4d7a146101b9575b600080fd5b61014361013e366004611a4d565b610348565b6040519081526020015b60405180910390f35b610169610164366004611be4565b6103df565b604051901515815260200161014d565b61018c610187366004611c1c565b610431565b60405161014d9190611db5565b6101436101a7366004611c1c565b60086020526000908152604090205481565b6101c16104c5565b60405161014d9190611e9f565b6101e16101dc36600461191b565b6105d4565b005b6101436101f1366004611ab1565b61066b565b610209610204366004611b19565b6108ef565b60405161014d9190611d74565b6101e1610a51565b6101437fa49807205ce4d355092ef5a8a18f56e8913cf4a201fbe287825b095693c2177581565b6003546040516001600160a01b03909116815260200161014d565b61016961026e366004611a76565b610ab7565b6101e1610281366004611a24565b610b1f565b610143610b2e565b6101e161029c366004611a76565b610b3e565b6101696102af3660046118e9565b6001600160a01b03918216600090815260016020908152604080832093909416825291909152205460ff1690565b6102f06102eb366004611c1c565b610cf9565b60405161014d96959493929190611efb565b6101e16103103660046119c1565b610dc6565b6101e16103233660046118cf565b610e4d565b610143610336366004611c1c565b60066020526000908152604090205481565b60006001600160a01b0383166103b95760405162461bcd60e51b815260206004820152602b60248201527f455243313135353a2062616c616e636520717565727920666f7220746865207a60448201526a65726f206164647265737360a81b60648201526084015b60405180910390fd5b506000908152602081815260408083206001600160a01b03949094168352929052205490565b60006001600160e01b03198216636cdb3d1360e11b148061041057506001600160e01b031982166303a24d0760e21b145b8061042b57506301ffc9a760e01b6001600160e01b03198316145b92915050565b60606002805461044090611f7e565b80601f016020809104026020016040519081016040528092919081815260200182805461046c90611f7e565b80156104b95780601f1061048e576101008083540402835291602001916104b9565b820191906000526020600020905b81548152906001019060200180831161049c57829003601f168201915b50505050509050919050565b6040805160a081018252600080825260606020830181905292820181905291810182905260808101919091526040805160a08101909152600a80548252600b805460208401919061051590611f7e565b80601f016020809104026020016040519081016040528092919081815260200182805461054190611f7e565b801561058e5780601f106105635761010080835404028352916020019161058e565b820191906000526020600020905b81548152906001019060200180831161057157829003601f168201915b5050509183525050600291909101546001600160a01b038116602083015260ff600160a01b8204811615156040840152600160a81b909104161515606090910152919050565b6001600160a01b0385163314806105f057506105f085336102af565b6106575760405162461bcd60e51b815260206004820152603260248201527f455243313135353a207472616e736665722063616c6c6572206973206e6f74206044820152711bdddb995c881b9bdc88185c1c1c9bdd995960721b60648201526084016103b0565b6106648585858585610f21565b5050505050565b60008280158061067b5750606481115b15610699576040516312f3735d60e31b815260040160405180910390fd5b600e546001600160a01b031633146106c457604051639f3e0d1f60e01b815260040160405180910390fd5b60006106cf60095490565b90506106ed868260016040518060200160405280600081525061111a565b600d54604051627eeac760e11b81526001600160a01b0388811660048301527f0000000000000000000000000000000000000000000000000000000000000000602483015260009216908290829062fdd58e9060440160206040518083038186803b15801561075b57600080fd5b505afa15801561076f573d6000803e3d6000fd5b505050506040513d601f19601f820116820180604052508101906107939190611c34565b11156107f9576040516310e6a78560e11b81526001600160a01b0389811660048301528216906321cd4f0a90602401600060405180830381600087803b1580156107dc57600080fd5b505af11580156107f0573d6000803e3d6000fd5b50505050600191505b6040805160c0810182528481526001600160a01b038a811660208084019182528385018c8152606085018c815242608087015288151560a087015260008a815260048452969096208551815592516001840180546001600160a01b03191691909516179093559151600282015592518051929384939092610881926003850192910190611719565b506080820151600482015560a0909101516005909101805460ff19169115159190911790556009805460010190556040518481527ffa039017104499194cbaee4a06ab081a02aff6ea3fc083959a88f5dd9544add99060200160405180910390a15091979650505050505050565b606081518351146109545760405162461bcd60e51b815260206004820152602960248201527f455243313135353a206163636f756e747320616e6420696473206c656e677468604482015268040dad2e6dac2e8c6d60bb1b60648201526084016103b0565b6000835167ffffffffffffffff81111561097e57634e487b7160e01b600052604160045260246000fd5b6040519080825280602002602001820160405280156109a7578160200160208202803683370190505b50905060005b8451811015610a4957610a0e8582815181106109d957634e487b7160e01b600052603260045260246000fd5b6020026020010151858381518110610a0157634e487b7160e01b600052603260045260246000fd5b6020026020010151610348565b828281518110610a2e57634e487b7160e01b600052603260045260246000fd5b6020908102919091010152610a4281611fe6565b90506109ad565b509392505050565b6003546001600160a01b03163314610aab5760405162461bcd60e51b815260206004820181905260248201527f4f776e61626c653a2063616c6c6572206973206e6f7420746865206f776e657260448201526064016103b0565b610ab5600061122e565b565b600060018215151415610af0575060008281526005602090815260408083206001600160a01b038716845290915290205460ff16610b18565b5060008281526007602090815260408083206001600160a01b038716845290915290205460ff165b9392505050565b610b2a338383611280565b5050565b6000610b3960095490565b905090565b6000828152600460205260409020600101548390839083906001600160a01b0380851691161415610b8257604051634ec7a74d60e11b815260040160405180910390fd5b60008281526007602090815260408083206001600160a01b038716845290915290205460ff16151560011480610bdf575060008281526005602090815260408083206001600160a01b038716845290915290205460ff1615156001145b15610bfd57604051632ea388a760e11b815260040160405180910390fd5b60018415151415610c655760008581526005602090815260408083206001600160a01b038a1684528252808320805460ff1916600190811790915588845260069092529091205490610c50908290611f66565b60008781526006602052604090205550610cbe565b60008581526007602090815260408083206001600160a01b038a1684528252808320805460ff1916600190811790915588845260089092529091205490610cad908290611f66565b600087815260086020526040902055505b6040518581527f9ea1d6dcc33efa8df0347b6875147497d067d8eed15435cc7ad0db9891addd079060200160405180910390a1505050505050565b600460205260009081526040902080546001820154600283015460038401805493946001600160a01b0390931693919291610d3390611f7e565b80601f0160208091040260200160405190810160405280929190818152602001828054610d5f90611f7e565b8015610dac5780601f10610d8157610100808354040283529160200191610dac565b820191906000526020600020905b815481529060010190602001808311610d8f57829003601f168201915b50505050600483015460059093015491929160ff16905086565b6001600160a01b038516331480610de25750610de285336102af565b610e405760405162461bcd60e51b815260206004820152602960248201527f455243313135353a2063616c6c6572206973206e6f74206f776e6572206e6f7260448201526808185c1c1c9bdd995960ba1b60648201526084016103b0565b6106648585858585611361565b6003546001600160a01b03163314610ea75760405162461bcd60e51b815260206004820181905260248201527f4f776e61626c653a2063616c6c6572206973206e6f7420746865206f776e657260448201526064016103b0565b6001600160a01b038116610f0c5760405162461bcd60e51b815260206004820152602660248201527f4f776e61626c653a206e6577206f776e657220697320746865207a65726f206160448201526564647265737360d01b60648201526084016103b0565b610f158161122e565b50565b80546001019055565b8151835114610f835760405162461bcd60e51b815260206004820152602860248201527f455243313135353a2069647320616e6420616d6f756e7473206c656e677468206044820152670dad2e6dac2e8c6d60c31b60648201526084016103b0565b6001600160a01b038416610fa95760405162461bcd60e51b81526004016103b090611e10565b3360005b84518110156110ac576000858281518110610fd857634e487b7160e01b600052603260045260246000fd5b60200260200101519050600085838151811061100457634e487b7160e01b600052603260045260246000fd5b602090810291909101810151600084815280835260408082206001600160a01b038e1683529093529190912054909150818110156110545760405162461bcd60e51b81526004016103b090611e55565b6000838152602081815260408083206001600160a01b038e8116855292528083208585039055908b16825281208054849290611091908490611f66565b92505081905550505050806110a590611fe6565b9050610fad565b50846001600160a01b0316866001600160a01b0316826001600160a01b03167f4a39dc06d4c0dbc64b70af90fd698a233a518aa5d07e595d983b8c0526c8f7fb87876040516110fc929190611d87565b60405180910390a461111281878787878761148b565b505050505050565b6001600160a01b03841661117a5760405162461bcd60e51b815260206004820152602160248201527f455243313135353a206d696e7420746f20746865207a65726f206164647265736044820152607360f81b60648201526084016103b0565b336000611186856115f6565b90506000611193856115f6565b90506000868152602081815260408083206001600160a01b038b168452909152812080548792906111c5908490611f66565b909155505060408051878152602081018790526001600160a01b03808a1692600092918716917fc3d58168c5ae7397731d063d5bbf3d657854427343f4c083240f7aacaa2d0f62910160405180910390a46112258360008989898961164f565b50505050505050565b600380546001600160a01b038381166001600160a01b0319831681179093556040519116919082907f8be0079c531659141344cd1fd0a4f28419497f9722a3daafe3b4186f6b6457e090600090a35050565b816001600160a01b0316836001600160a01b031614156112f45760405162461bcd60e51b815260206004820152602960248201527f455243313135353a2073657474696e6720617070726f76616c20737461747573604482015268103337b91039b2b63360b91b60648201526084016103b0565b6001600160a01b03838116600081815260016020908152604080832094871680845294825291829020805460ff191686151590811790915591519182527f17307eab39ab6107e8899845ad3d59bd9653f200f220920489ca2b5937696c31910160405180910390a3505050565b6001600160a01b0384166113875760405162461bcd60e51b81526004016103b090611e10565b336000611393856115f6565b905060006113a0856115f6565b90506000868152602081815260408083206001600160a01b038c168452909152902054858110156113e35760405162461bcd60e51b81526004016103b090611e55565b6000878152602081815260408083206001600160a01b038d8116855292528083208985039055908a16825281208054889290611420908490611f66565b909155505060408051888152602081018890526001600160a01b03808b16928c821692918816917fc3d58168c5ae7397731d063d5bbf3d657854427343f4c083240f7aacaa2d0f62910160405180910390a4611480848a8a8a8a8a61164f565b505050505050505050565b6001600160a01b0384163b156111125760405163bc197c8160e01b81526001600160a01b0385169063bc197c81906114cf9089908990889088908890600401611cd1565b602060405180830381600087803b1580156114e957600080fd5b505af1925050508015611519575060408051601f3d908101601f1916820190925261151691810190611c00565b60015b6115c65761152561202d565b806308c379a0141561155f575061153a612045565b806115455750611561565b8060405162461bcd60e51b81526004016103b09190611db5565b505b60405162461bcd60e51b815260206004820152603460248201527f455243313135353a207472616e7366657220746f206e6f6e20455243313135356044820152732932b1b2b4bb32b91034b6b83632b6b2b73a32b960611b60648201526084016103b0565b6001600160e01b0319811663bc197c8160e01b146112255760405162461bcd60e51b81526004016103b090611dc8565b6040805160018082528183019092526060916000919060208083019080368337019050509050828160008151811061163e57634e487b7160e01b600052603260045260246000fd5b602090810291909101015292915050565b6001600160a01b0384163b156111125760405163f23a6e6160e01b81526001600160a01b0385169063f23a6e61906116939089908990889088908890600401611d2f565b602060405180830381600087803b1580156116ad57600080fd5b505af19250505080156116dd575060408051601f3d908101601f191682019092526116da91810190611c00565b60015b6116e95761152561202d565b6001600160e01b0319811663f23a6e6160e01b146112255760405162461bcd60e51b81526004016103b090611dc8565b82805461172590611f7e565b90600052602060002090601f016020900481019282611747576000855561178d565b82601f1061176057805160ff191683800117855561178d565b8280016001018555821561178d579182015b8281111561178d578251825591602001919060010190611772565b5061179992915061179d565b5090565b5b80821115611799576000815560010161179e565b600067ffffffffffffffff8311156117cc576117cc612017565b6040516117e3601f8501601f191660200182611fb9565b8091508381528484840111156117f857600080fd5b83836020830137600060208583010152509392505050565b80356001600160a01b038116811461182757600080fd5b919050565b600082601f83011261183c578081fd5b8135602061184982611f42565b6040516118568282611fb9565b8381528281019150858301600585901b87018401881015611875578586fd5b855b8581101561189357813584529284019290840190600101611877565b5090979650505050505050565b8035801515811461182757600080fd5b600082601f8301126118c0578081fd5b610b18838335602085016117b2565b6000602082840312156118e0578081fd5b610b1882611810565b600080604083850312156118fb578081fd5b61190483611810565b915061191260208401611810565b90509250929050565b600080600080600060a08688031215611932578081fd5b61193b86611810565b945061194960208701611810565b9350604086013567ffffffffffffffff80821115611965578283fd5b61197189838a0161182c565b94506060880135915080821115611986578283fd5b61199289838a0161182c565b935060808801359150808211156119a7578283fd5b506119b4888289016118b0565b9150509295509295909350565b600080600080600060a086880312156119d8578081fd5b6119e186611810565b94506119ef60208701611810565b93506040860135925060608601359150608086013567ffffffffffffffff811115611a18578182fd5b6119b4888289016118b0565b60008060408385031215611a36578182fd5b611a3f83611810565b9150611912602084016118a0565b60008060408385031215611a5f578182fd5b611a6883611810565b946020939093013593505050565b600080600060608486031215611a8a578283fd5b611a9384611810565b925060208401359150611aa8604085016118a0565b90509250925092565b600080600060608486031215611ac5578081fd5b611ace84611810565b925060208401359150604084013567ffffffffffffffff811115611af0578182fd5b8401601f81018613611b00578182fd5b611b0f868235602084016117b2565b9150509250925092565b60008060408385031215611b2b578182fd5b823567ffffffffffffffff80821115611b42578384fd5b818501915085601f830112611b55578384fd5b81356020611b6282611f42565b604051611b6f8282611fb9565b8381528281019150858301600585901b870184018b1015611b8e578889fd5b8896505b84871015611bb757611ba381611810565b835260019690960195918301918301611b92565b5096505086013592505080821115611bcd578283fd5b50611bda8582860161182c565b9150509250929050565b600060208284031215611bf5578081fd5b8135610b18816120cf565b600060208284031215611c11578081fd5b8151610b18816120cf565b600060208284031215611c2d578081fd5b5035919050565b600060208284031215611c45578081fd5b5051919050565b6000815180845260208085019450808401835b83811015611c7b57815187529582019590820190600101611c5f565b509495945050505050565b60008151808452815b81811015611cab57602081850181015186830182015201611c8f565b81811115611cbc5782602083870101525b50601f01601f19169290920160200192915050565b6001600160a01b0386811682528516602082015260a060408201819052600090611cfd90830186611c4c565b8281036060840152611d0f8186611c4c565b90508281036080840152611d238185611c86565b98975050505050505050565b6001600160a01b03868116825285166020820152604081018490526060810183905260a060808201819052600090611d6990830184611c86565b979650505050505050565b602081526000610b186020830184611c4c565b604081526000611d9a6040830185611c4c565b8281036020840152611dac8185611c4c565b95945050505050565b602081526000610b186020830184611c86565b60208082526028908201527f455243313135353a204552433131353552656365697665722072656a656374656040820152676420746f6b656e7360c01b606082015260800190565b60208082526025908201527f455243313135353a207472616e7366657220746f20746865207a65726f206164604082015264647265737360d81b606082015260800190565b6020808252602a908201527f455243313135353a20696e73756666696369656e742062616c616e636520666f60408201526939103a3930b739b332b960b11b606082015260800190565b60208152815160208201526000602083015160a06040840152611ec560c0840182611c86565b905060018060a01b0360408501511660608401526060840151151560808401526080840151151560a08401528091505092915050565b86815260018060a01b038616602082015284604082015260c060608201526000611f2860c0830186611c86565b60808301949094525090151560a090910152949350505050565b600067ffffffffffffffff821115611f5c57611f5c612017565b5060051b60200190565b60008219821115611f7957611f79612001565b500190565b600181811c90821680611f9257607f821691505b60208210811415611fb357634e487b7160e01b600052602260045260246000fd5b50919050565b601f8201601f1916810167ffffffffffffffff81118282101715611fdf57611fdf612017565b6040525050565b6000600019821415611ffa57611ffa612001565b5060010190565b634e487b7160e01b600052601160045260246000fd5b634e487b7160e01b600052604160045260246000fd5b600060033d111561204257600481823e5160e01c5b90565b600060443d10156120535790565b6040516003193d81016004833e81513d67ffffffffffffffff816024840111818411171561208357505050505090565b828501915081518181111561209b5750505050505090565b843d87010160208285010111156120b55750505050505090565b6120c460208286010187611fb9565b509095945050505050565b6001600160e01b031981168114610f1557600080fdfea26469706673582212209fdcff4067e0a8dda1e31332b2a25022c5179d0e626258ec148d1d3b62b821a464736f6c63430008040033",
  "linkReferences": {},
  "deployedLinkReferences": {}
}