{
  "_format": "hh-sol-artifact-1",
  "contractName": "Reviewer",
  "sourceName": "contracts/Reviewer.sol",
  "abi": [
    {
      "inputs": [],
      "name": "Appraiser__InvalidOrgId",
      "type": "error"
    },
    {
      "inputs": [],
      "name": "Appraiser__InvalidReview",
      "type": "error"
    },
    {
      "inputs": [],
      "name": "Appraiser__VoterMatchesAuthor",
      "type": "error"
    },
    {
      "anonymous": false,
      "inputs": [
        {
          "indexed": false,
          "internalType": "uint256",
          "name": "reviewId",
          "type": "uint256"
        }
      ],
      "name": "LogMintReview",
      "type": "event"
    },
    {
      "anonymous": false,
      "inputs": [
        {
          "indexed": false,
          "internalType": "address",
          "name": "addr",
          "type": "address"
        }
      ],
      "name": "LogNewUser",
      "type": "event"
    },
    {
      "anonymous": false,
      "inputs": [
        {
          "indexed": false,
          "internalType": "address",
          "name": "voter",
          "type": "address"
        },
        {
          "indexed": false,
          "internalType": "uint256",
          "name": "orgId",
          "type": "uint256"
        },
        {
          "indexed": false,
          "internalType": "uint256",
          "name": "reviewId",
          "type": "uint256"
        }
      ],
      "name": "LogVoteOnReview",
      "type": "event"
    },
    {
      "anonymous": false,
      "inputs": [
        {
          "indexed": true,
          "internalType": "address",
          "name": "previousOwner",
          "type": "address"
        },
        {
          "indexed": true,
          "internalType": "address",
          "name": "newOwner",
          "type": "address"
        }
      ],
      "name": "OwnershipTransferred",
      "type": "event"
    },
    {
      "inputs": [
        {
          "internalType": "uint256",
          "name": "orgId_",
          "type": "uint256"
        },
        {
          "internalType": "uint256",
          "name": "rating_",
          "type": "uint256"
        },
        {
          "internalType": "string",
          "name": "review_",
          "type": "string"
        }
      ],
      "name": "mintReview",
      "outputs": [],
      "stateMutability": "nonpayable",
      "type": "function"
    },
    {
      "inputs": [],
      "name": "owner",
      "outputs": [
        {
          "internalType": "address",
          "name": "",
          "type": "address"
        }
      ],
      "stateMutability": "view",
      "type": "function"
    },
    {
      "inputs": [],
      "name": "renounceOwnership",
      "outputs": [],
      "stateMutability": "nonpayable",
      "type": "function"
    },
    {
      "inputs": [
        {
          "internalType": "uint256",
          "name": "",
          "type": "uint256"
        }
      ],
      "name": "s_aoContracts",
      "outputs": [
        {
          "internalType": "address",
          "name": "",
          "type": "address"
        }
      ],
      "stateMutability": "view",
      "type": "function"
    },
    {
      "inputs": [
        {
          "internalType": "uint256",
          "name": "",
          "type": "uint256"
        },
        {
          "internalType": "uint256",
          "name": "",
          "type": "uint256"
        }
      ],
      "name": "s_reviews",
      "outputs": [
        {
          "internalType": "address",
          "name": "",
          "type": "address"
        }
      ],
      "stateMutability": "view",
      "type": "function"
    },
    {
      "inputs": [
        {
          "internalType": "address",
          "name": "",
          "type": "address"
        }
      ],
      "name": "s_users",
      "outputs": [
        {
          "internalType": "uint256",
          "name": "upvotes",
          "type": "uint256"
        },
        {
          "internalType": "uint256",
          "name": "downvotes",
          "type": "uint256"
        },
        {
          "internalType": "bool",
          "name": "isRegistered",
          "type": "bool"
        }
      ],
      "stateMutability": "view",
      "type": "function"
    },
    {
      "inputs": [
        {
          "internalType": "uint256",
          "name": "orgId_",
          "type": "uint256"
        },
        {
          "internalType": "address",
          "name": "contractAddr_",
          "type": "address"
        }
      ],
      "name": "setAppraiserOrganizationContractAddress",
      "outputs": [],
      "stateMutability": "nonpayable",
      "type": "function"
    },
    {
      "inputs": [
        {
          "internalType": "address",
          "name": "newOwner",
          "type": "address"
        }
      ],
      "name": "transferOwnership",
      "outputs": [],
      "stateMutability": "nonpayable",
      "type": "function"
    },
    {
      "inputs": [
        {
          "internalType": "uint256",
          "name": "orgId_",
          "type": "uint256"
        },
        {
          "internalType": "uint256",
          "name": "reviewId_",
          "type": "uint256"
        },
        {
          "internalType": "bool",
          "name": "isUpvote_",
          "type": "bool"
        }
      ],
      "name": "voteOnReview",
      "outputs": [],
      "stateMutability": "nonpayable",
      "type": "function"
    }
  ],
  "bytecode": "0x608060405234801561001057600080fd5b5061001a3361001f565b61006f565b600080546001600160a01b038381166001600160a01b0319831681178455604051919092169283917f8be0079c531659141344cd1fd0a4f28419497f9722a3daafe3b4186f6b6457e09190a35050565b6109368061007e6000396000f3fe608060405234801561001057600080fd5b50600436106100935760003560e01c8063b8cb0a1d11610066578063b8cb0a1d14610108578063c72fdde214610157578063cf27e7bc1461016a578063f2fde38b1461017d578063f85c01591461019057600080fd5b806346adaba914610098578063715018a6146100ad5780638da5cb5b146100b5578063a6430789146100df575b600080fd5b6100ab6100a63660046107e4565b6101c4565b005b6100ab6102d4565b6000546001600160a01b03165b6040516001600160a01b0390911681526020015b60405180910390f35b6100c26100ed36600461072c565b6001602052600090815260409020546001600160a01b031681565b61013a61011636600461070b565b60036020526000908152604090208054600182015460029092015490919060ff1683565b6040805193845260208401929092521515908201526060016100d6565b6100ab61016536600461075c565b610313565b6100ab6101783660046107a8565b61036b565b6100ab61018b36600461070b565b610525565b6100c261019e366004610787565b60026020908152600092835260408084209091529082529020546001600160a01b031681565b836101ce816105c0565b6000858152600160205260408120546001600160a01b0316633c0d92d1338787876040518563ffffffff1660e01b815260040161020e949392919061085f565b602060405180830381600087803b15801561022857600080fd5b505af115801561023c573d6000803e3d6000fd5b505050506040513d601f19601f820116820180604052508101906102609190610744565b6000878152600260209081526040808320848452909152902080546001600160a01b03191633908117909155909150610298906105f5565b6040518181527f0915bc86b1596e09ec5e83179f215ac7f6febcb26b233e6c352e3cfc3da1ed1d906020015b60405180910390a1505050505050565b6000546001600160a01b031633146103075760405162461bcd60e51b81526004016102fe906108a7565b60405180910390fd5b610311600061069f565b565b6000546001600160a01b0316331461033d5760405162461bcd60e51b81526004016102fe906108a7565b60009182526001602052604090912080546001600160a01b0319166001600160a01b03909216919091179055565b82610375816105c0565b60008481526002602090815260408083208684529091529020546001600160a01b0316806103b6576040516349cc4f1160e11b815260040160405180910390fd5b336001600160a01b03821614156103e057604051633099880b60e11b815260040160405180910390fd5b60008581526002602090815260408083208784528252808320546001600160a01b03168352600390915290208315156001141561043757600181600001600082825461042c91906108dc565b909155506104529050565b600181600101600082825461044c91906108dc565b90915550505b6000868152600160205260409020546001600160a01b031663ca888310336040516001600160e01b031960e084901b1681526001600160a01b039091166004820152602481018890528615156044820152606401600060405180830381600087803b1580156104c057600080fd5b505af11580156104d4573d6000803e3d6000fd5b505050507fc7a0866bc67e084b750f0d96e9dcecaf550313351867b9df8dcb567ee5ba848b6105003390565b604080516001600160a01b0390921682526020820189905281018790526060016102c4565b6000546001600160a01b0316331461054f5760405162461bcd60e51b81526004016102fe906108a7565b6001600160a01b0381166105b45760405162461bcd60e51b815260206004820152602660248201527f4f776e61626c653a206e6577206f776e657220697320746865207a65726f206160448201526564647265737360d01b60648201526084016102fe565b6105bd8161069f565b50565b6000818152600160205260409020546001600160a01b03166105bd57604051635cd7705360e11b815260040160405180910390fd5b6001600160a01b03811660009081526003602052604090206002015460ff166105bd57604080516060810182526000808252602080830182815260018486018181526001600160a01b038816808652600385529487902095518655915190850155516002909301805460ff19169315159390931790925591519182527fce0e7a0b0997727ddc2dea10a1ed8704fc9fb22881e296d38864b4daf4780453910160405180910390a150565b600080546001600160a01b038381166001600160a01b0319831681178455604051919092169283917f8be0079c531659141344cd1fd0a4f28419497f9722a3daafe3b4186f6b6457e09190a35050565b80356001600160a01b038116811461070657600080fd5b919050565b60006020828403121561071c578081fd5b610725826106ef565b9392505050565b60006020828403121561073d578081fd5b5035919050565b600060208284031215610755578081fd5b5051919050565b6000806040838503121561076e578081fd5b8235915061077e602084016106ef565b90509250929050565b60008060408385031215610799578182fd5b50508035926020909101359150565b6000806000606084860312156107bc578081fd5b8335925060208401359150604084013580151581146107d9578182fd5b809150509250925092565b600080600080606085870312156107f9578081fd5b8435935060208501359250604085013567ffffffffffffffff8082111561081e578283fd5b818701915087601f830112610831578283fd5b81358181111561083f578384fd5b886020828501011115610850578384fd5b95989497505060200194505050565b6001600160a01b0385168152602081018490526060604082018190528101829052818360808301376000818301608090810191909152601f909201601f191601019392505050565b6020808252818101527f4f776e61626c653a2063616c6c6572206973206e6f7420746865206f776e6572604082015260600190565b600082198211156108fb57634e487b7160e01b81526011600452602481fd5b50019056fea264697066735822122038e5094fe8be5ca1791c2c99e5eb4377bd8a44524e30befd3cb00e800ff52d4264736f6c63430008040033",
  "linkReferences": {},
  "deployedLinkReferences": {}
}