{
  "_format": "hh-sol-artifact-1",
  "contractName": "Reviewer",
  "sourceName": "contracts/Reviewer.sol",
  "abi": [
    {
      "inputs": [],
      "name": "Appraiser__InvalidOrgId",
      "type": "error"
    },
    {
      "inputs": [],
      "name": "Appraiser__InvalidReview",
      "type": "error"
    },
    {
      "inputs": [],
      "name": "Appraiser__VoterMatchesAuthor",
      "type": "error"
    },
    {
      "anonymous": false,
      "inputs": [
        {
          "indexed": false,
          "internalType": "uint256",
          "name": "reviewId",
          "type": "uint256"
        }
      ],
      "name": "LogMintReview",
      "type": "event"
    },
    {
      "anonymous": false,
      "inputs": [
        {
          "indexed": false,
          "internalType": "address",
          "name": "addr",
          "type": "address"
        }
      ],
      "name": "LogNewUser",
      "type": "event"
    },
    {
      "anonymous": false,
      "inputs": [
        {
          "indexed": false,
          "internalType": "address",
          "name": "voter",
          "type": "address"
        },
        {
          "indexed": false,
          "internalType": "uint256",
          "name": "orgId",
          "type": "uint256"
        },
        {
          "indexed": false,
          "internalType": "uint256",
          "name": "reviewId",
          "type": "uint256"
        }
      ],
      "name": "LogVoteOnReview",
      "type": "event"
    },
    {
      "anonymous": false,
      "inputs": [
        {
          "indexed": true,
          "internalType": "address",
          "name": "previousOwner",
          "type": "address"
        },
        {
          "indexed": true,
          "internalType": "address",
          "name": "newOwner",
          "type": "address"
        }
      ],
      "name": "OwnershipTransferred",
      "type": "event"
    },
    {
      "inputs": [
        {
          "internalType": "uint256",
          "name": "orgId_",
          "type": "uint256"
        },
        {
          "internalType": "uint256",
          "name": "rating_",
          "type": "uint256"
        },
        {
          "internalType": "string",
          "name": "review_",
          "type": "string"
        }
      ],
      "name": "mintReview",
      "outputs": [],
      "stateMutability": "nonpayable",
      "type": "function"
    },
    {
      "inputs": [],
      "name": "owner",
      "outputs": [
        {
          "internalType": "address",
          "name": "",
          "type": "address"
        }
      ],
      "stateMutability": "view",
      "type": "function"
    },
    {
      "inputs": [],
      "name": "renounceOwnership",
      "outputs": [],
      "stateMutability": "nonpayable",
      "type": "function"
    },
    {
      "inputs": [
        {
          "internalType": "uint256",
          "name": "",
          "type": "uint256"
        }
      ],
      "name": "s_aoContracts",
      "outputs": [
        {
          "internalType": "address",
          "name": "",
          "type": "address"
        }
      ],
      "stateMutability": "view",
      "type": "function"
    },
    {
      "inputs": [
        {
          "internalType": "uint256",
          "name": "",
          "type": "uint256"
        },
        {
          "internalType": "uint256",
          "name": "",
          "type": "uint256"
        }
      ],
      "name": "s_reviews",
      "outputs": [
        {
          "internalType": "address",
          "name": "",
          "type": "address"
        }
      ],
      "stateMutability": "view",
      "type": "function"
    },
    {
      "inputs": [
        {
          "internalType": "address",
          "name": "",
          "type": "address"
        }
      ],
      "name": "s_users",
      "outputs": [
        {
          "internalType": "uint256",
          "name": "upvotes",
          "type": "uint256"
        },
        {
          "internalType": "uint256",
          "name": "downvotes",
          "type": "uint256"
        },
        {
          "internalType": "bool",
          "name": "isRegistered",
          "type": "bool"
        }
      ],
      "stateMutability": "view",
      "type": "function"
    },
    {
      "inputs": [
        {
          "internalType": "uint256",
          "name": "",
          "type": "uint256"
        }
      ],
      "name": "s_verifiers",
      "outputs": [
        {
          "internalType": "uint256",
          "name": "rating",
          "type": "uint256"
        },
        {
          "internalType": "string",
          "name": "review",
          "type": "string"
        },
        {
          "internalType": "uint256",
          "name": "upvotes",
          "type": "uint256"
        },
        {
          "internalType": "uint256",
          "name": "downvotes",
          "type": "uint256"
        }
      ],
      "stateMutability": "view",
      "type": "function"
    },
    {
      "inputs": [
        {
          "internalType": "uint256",
          "name": "orgId_",
          "type": "uint256"
        },
        {
          "internalType": "address",
          "name": "contractAddr_",
          "type": "address"
        }
      ],
      "name": "setAppraiserOrganizationContractAddress",
      "outputs": [],
      "stateMutability": "nonpayable",
      "type": "function"
    },
    {
      "inputs": [
        {
          "internalType": "address",
          "name": "newOwner",
          "type": "address"
        }
      ],
      "name": "transferOwnership",
      "outputs": [],
      "stateMutability": "nonpayable",
      "type": "function"
    },
    {
      "inputs": [
        {
          "internalType": "uint256",
          "name": "orgId_",
          "type": "uint256"
        },
        {
          "internalType": "uint256",
          "name": "reviewId_",
          "type": "uint256"
        },
        {
          "internalType": "bool",
          "name": "isUpvote_",
          "type": "bool"
        }
      ],
      "name": "voteOnReview",
      "outputs": [],
      "stateMutability": "nonpayable",
      "type": "function"
    }
  ],
  "bytecode": "0x608060405234801561001057600080fd5b5061001a3361001f565b61006f565b600080546001600160a01b038381166001600160a01b0319831681178455604051919092169283917f8be0079c531659141344cd1fd0a4f28419497f9722a3daafe3b4186f6b6457e09190a35050565b610aa08061007e6000396000f3fe608060405234801561001057600080fd5b506004361061009e5760003560e01c8063c0bda8de11610066578063c0bda8de14610162578063c72fdde214610185578063cf27e7bc14610198578063f2fde38b146101ab578063f85c0159146101be57600080fd5b806346adaba9146100a3578063715018a6146100b85780638da5cb5b146100c0578063a6430789146100ea578063b8cb0a1d14610113575b600080fd5b6100b66100b13660046108a9565b6101f2565b005b6100b6610304565b6000546001600160a01b03165b6040516001600160a01b0390911681526020015b60405180910390f35b6100cd6100f83660046107f1565b6002602052600090815260409020546001600160a01b031681565b6101456101213660046107d0565b60046020526000908152604090208054600182015460029092015490919060ff1683565b6040805193845260208401929092521515908201526060016100e1565b6101756101703660046107f1565b610343565b6040516100e194939291906109a1565b6100b6610193366004610821565b6103f3565b6100b66101a636600461086d565b61044b565b6100b66101b93660046107d0565b6105ea565b6100cd6101cc36600461084c565b60036020908152600092835260408084209091529082529020546001600160a01b031681565b836101fc81610685565b600085815260026020526040808220549051633c0d92d160e01b81526001600160a01b0390911690633c0d92d19061023e903390899089908990600401610924565b602060405180830381600087803b15801561025857600080fd5b505af115801561026c573d6000803e3d6000fd5b505050506040513d601f19601f820116820180604052508101906102909190610809565b6000878152600360209081526040808320848452909152902080546001600160a01b031916339081179091559091506102c8906106ba565b6040518181527f0915bc86b1596e09ec5e83179f215ac7f6febcb26b233e6c352e3cfc3da1ed1d906020015b60405180910390a1505050505050565b6000546001600160a01b031633146103375760405162461bcd60e51b815260040161032e9061096c565b60405180910390fd5b6103416000610764565b565b60016020819052600091825260409091208054918101805461036490610a2f565b80601f016020809104026020016040519081016040528092919081815260200182805461039090610a2f565b80156103dd5780601f106103b2576101008083540402835291602001916103dd565b820191906000526020600020905b8154815290600101906020018083116103c057829003601f168201915b5050505050908060020154908060030154905084565b6000546001600160a01b0316331461041d5760405162461bcd60e51b815260040161032e9061096c565b60009182526002602052604090912080546001600160a01b0319166001600160a01b03909216919091179055565b8261045581610685565b60008481526003602090815260408083208684529091529020546001600160a01b031680610496576040516349cc4f1160e11b815260040160405180910390fd5b336001600160a01b03821614156104c057604051633099880b60e11b815260040160405180910390fd5b60008581526003602090815260408083208784528252808320546001600160a01b03168352600490915290208315156001141561051757600181600001600082825461050c9190610a0b565b909155506105329050565b600181600101600082825461052c9190610a0b565b90915550505b60008681526002602052604090819020549051630ca8883160e41b81523360048201526024810187905285151560448201526001600160a01b039091169063ca88831090606401600060405180830381600087803b15801561059357600080fd5b505af11580156105a7573d6000803e3d6000fd5b505060408051338152602081018a90529081018890527fc7a0866bc67e084b750f0d96e9dcecaf550313351867b9df8dcb567ee5ba848b925060600190506102f4565b6000546001600160a01b031633146106145760405162461bcd60e51b815260040161032e9061096c565b6001600160a01b0381166106795760405162461bcd60e51b815260206004820152602660248201527f4f776e61626c653a206e6577206f776e657220697320746865207a65726f206160448201526564647265737360d01b606482015260840161032e565b61068281610764565b50565b6000818152600260205260409020546001600160a01b031661068257604051635cd7705360e11b815260040160405180910390fd5b6001600160a01b03811660009081526004602052604090206002015460ff1661068257604080516060810182526000808252602080830182815260018486018181526001600160a01b038816808652600485529487902095518655915190850155516002909301805460ff19169315159390931790925591519182527fce0e7a0b0997727ddc2dea10a1ed8704fc9fb22881e296d38864b4daf4780453910160405180910390a150565b600080546001600160a01b038381166001600160a01b0319831681178455604051919092169283917f8be0079c531659141344cd1fd0a4f28419497f9722a3daafe3b4186f6b6457e09190a35050565b80356001600160a01b03811681146107cb57600080fd5b919050565b6000602082840312156107e1578081fd5b6107ea826107b4565b9392505050565b600060208284031215610802578081fd5b5035919050565b60006020828403121561081a578081fd5b5051919050565b60008060408385031215610833578081fd5b82359150610843602084016107b4565b90509250929050565b6000806040838503121561085e578182fd5b50508035926020909101359150565b600080600060608486031215610881578081fd5b83359250602084013591506040840135801515811461089e578182fd5b809150509250925092565b600080600080606085870312156108be578081fd5b8435935060208501359250604085013567ffffffffffffffff808211156108e3578283fd5b818701915087601f8301126108f6578283fd5b813581811115610904578384fd5b886020828501011115610915578384fd5b95989497505060200194505050565b6001600160a01b0385168152602081018490526060604082018190528101829052818360808301376000818301608090810191909152601f909201601f191601019392505050565b6020808252818101527f4f776e61626c653a2063616c6c6572206973206e6f7420746865206f776e6572604082015260600190565b848152600060206080818401528551806080850152825b818110156109d45787810183015185820160a0015282016109b8565b818111156109e5578360a083870101525b5060408401959095525050606081019190915260a0601f909201601f1916010192915050565b60008219821115610a2a57634e487b7160e01b81526011600452602481fd5b500190565b600181811c90821680610a4357607f821691505b60208210811415610a6457634e487b7160e01b600052602260045260246000fd5b5091905056fea2646970667358221220e571a0a73a1f3e14544437f8909845384887062054f6e9595a65a8350bedaedd64736f6c63430008040033",
  "linkReferences": {},
  "deployedLinkReferences": {}
}