{
  "_format": "hh-sol-artifact-1",
  "contractName": "Reviewer",
  "sourceName": "contracts/Reviewer.sol",
  "abi": [
    {
      "inputs": [],
      "name": "Reviewer__InvalidOrgId",
      "type": "error"
    },
    {
      "inputs": [],
      "name": "Reviewer__InvalidReview",
      "type": "error"
    },
    {
      "inputs": [],
      "name": "Reviewer__OnlyVRFv2ConsumerContractAddr",
      "type": "error"
    },
    {
      "inputs": [],
      "name": "Reviewer__VoterMatchesAuthor",
      "type": "error"
    },
    {
      "anonymous": false,
      "inputs": [
        {
          "indexed": false,
          "internalType": "uint256",
          "name": "reviewId",
          "type": "uint256"
        }
      ],
      "name": "LogMintReview",
      "type": "event"
    },
    {
      "anonymous": false,
      "inputs": [
        {
          "indexed": false,
          "internalType": "address",
          "name": "addr",
          "type": "address"
        }
      ],
      "name": "LogNewUser",
      "type": "event"
    },
    {
      "anonymous": false,
      "inputs": [
        {
          "indexed": false,
          "internalType": "address",
          "name": "voter",
          "type": "address"
        },
        {
          "indexed": false,
          "internalType": "uint256",
          "name": "orgId",
          "type": "uint256"
        },
        {
          "indexed": false,
          "internalType": "uint256",
          "name": "reviewId",
          "type": "uint256"
        }
      ],
      "name": "LogVoteOnReview",
      "type": "event"
    },
    {
      "anonymous": false,
      "inputs": [
        {
          "indexed": true,
          "internalType": "address",
          "name": "previousOwner",
          "type": "address"
        },
        {
          "indexed": true,
          "internalType": "address",
          "name": "newOwner",
          "type": "address"
        }
      ],
      "name": "OwnershipTransferred",
      "type": "event"
    },
    {
      "inputs": [
        {
          "internalType": "uint256",
          "name": "orgId_",
          "type": "uint256"
        },
        {
          "internalType": "uint256",
          "name": "rating_",
          "type": "uint256"
        },
        {
          "internalType": "string",
          "name": "review_",
          "type": "string"
        }
      ],
      "name": "mintReview",
      "outputs": [],
      "stateMutability": "nonpayable",
      "type": "function"
    },
    {
      "inputs": [],
      "name": "owner",
      "outputs": [
        {
          "internalType": "address",
          "name": "",
          "type": "address"
        }
      ],
      "stateMutability": "view",
      "type": "function"
    },
    {
      "inputs": [],
      "name": "renounceOwnership",
      "outputs": [],
      "stateMutability": "nonpayable",
      "type": "function"
    },
    {
      "inputs": [
        {
          "internalType": "uint256",
          "name": "",
          "type": "uint256"
        }
      ],
      "name": "s_aoContracts",
      "outputs": [
        {
          "internalType": "address",
          "name": "",
          "type": "address"
        }
      ],
      "stateMutability": "view",
      "type": "function"
    },
    {
      "inputs": [
        {
          "internalType": "uint256",
          "name": "",
          "type": "uint256"
        },
        {
          "internalType": "uint256",
          "name": "",
          "type": "uint256"
        }
      ],
      "name": "s_reviews",
      "outputs": [
        {
          "internalType": "address",
          "name": "",
          "type": "address"
        }
      ],
      "stateMutability": "view",
      "type": "function"
    },
    {
      "inputs": [
        {
          "internalType": "address",
          "name": "",
          "type": "address"
        }
      ],
      "name": "s_users",
      "outputs": [
        {
          "internalType": "uint256",
          "name": "upvotes",
          "type": "uint256"
        },
        {
          "internalType": "uint256",
          "name": "downvotes",
          "type": "uint256"
        },
        {
          "internalType": "bool",
          "name": "isRegistered",
          "type": "bool"
        }
      ],
      "stateMutability": "view",
      "type": "function"
    },
    {
      "inputs": [
        {
          "internalType": "uint256",
          "name": "orgId_",
          "type": "uint256"
        },
        {
          "internalType": "address",
          "name": "contractAddr_",
          "type": "address"
        }
      ],
      "name": "setAppraiserOrganizationContractAddress",
      "outputs": [],
      "stateMutability": "nonpayable",
      "type": "function"
    },
    {
      "inputs": [
        {
          "internalType": "address",
          "name": "VRFv2ConsumerContractAddr_",
          "type": "address"
        }
      ],
      "name": "setVRFv2ConsumerContractAddress",
      "outputs": [],
      "stateMutability": "nonpayable",
      "type": "function"
    },
    {
      "inputs": [
        {
          "internalType": "address",
          "name": "newOwner",
          "type": "address"
        }
      ],
      "name": "transferOwnership",
      "outputs": [],
      "stateMutability": "nonpayable",
      "type": "function"
    },
    {
      "inputs": [
        {
          "internalType": "uint256",
          "name": "orgId_",
          "type": "uint256"
        },
        {
          "internalType": "uint256",
          "name": "reviewId_",
          "type": "uint256"
        },
        {
          "internalType": "uint256",
          "name": "groupId_",
          "type": "uint256"
        }
      ],
      "name": "updateReviewGroupId",
      "outputs": [],
      "stateMutability": "nonpayable",
      "type": "function"
    },
    {
      "inputs": [
        {
          "internalType": "uint256",
          "name": "orgId_",
          "type": "uint256"
        },
        {
          "internalType": "uint256",
          "name": "reviewId_",
          "type": "uint256"
        },
        {
          "internalType": "bool",
          "name": "isUpvote_",
          "type": "bool"
        }
      ],
      "name": "voteOnReview",
      "outputs": [],
      "stateMutability": "nonpayable",
      "type": "function"
    }
  ],
  "bytecode": "0x608060405234801561001057600080fd5b5061001a3361001f565b61006f565b600080546001600160a01b038381166001600160a01b0319831681178455604051919092169283917f8be0079c531659141344cd1fd0a4f28419497f9722a3daafe3b4186f6b6457e09190a35050565b610b048061007e6000396000f3fe608060405234801561001057600080fd5b50600436106100a95760003560e01c8063a643078911610071578063a64307891461011b578063b8cb0a1d14610144578063c72fdde214610193578063cf27e7bc146101a6578063f2fde38b146101b9578063f85c0159146101cc57600080fd5b8063189cf348146100ae57806346adaba9146100c357806347b45019146100d6578063715018a6146100e95780638da5cb5b146100f1575b600080fd5b6100c16100bc36600461089f565b610200565b005b6100c16100d13660046108c1565b610255565b6100c16100e4366004610941565b6103cf565b6100c1610471565b6000546001600160a01b03165b6040516001600160a01b0390911681526020015b60405180910390f35b6100fe61012936600461096d565b6001602052600090815260409020546001600160a01b031681565b61017661015236600461089f565b60036020526000908152604090208054600182015460029092015490919060ff1683565b604080519384526020840192909252151590820152606001610112565b6100c16101a1366004610986565b6104a7565b6100c16101b43660046109b2565b6104ff565b6100c16101c736600461089f565b6106b9565b6100fe6101da3660046109f0565b60026020908152600092835260408084209091529082529020546001600160a01b031681565b6000546001600160a01b031633146102335760405162461bcd60e51b815260040161022a90610a12565b60405180910390fd5b600480546001600160a01b0319166001600160a01b0392909216919091179055565b8361025f81610754565b6000858152600160205260408120546001600160a01b0316633c0d92d1338787876040518563ffffffff1660e01b815260040161029f9493929190610a47565b602060405180830381600087803b1580156102b957600080fd5b505af11580156102cd573d6000803e3d6000fd5b505050506040513d601f19601f820116820180604052508101906102f19190610a8f565b90503360008781526002602090815260408083208584529091529081902080546001600160a01b0319166001600160a01b03938416179055600480549151631b739ef160e01b815290810189905260248101849052911690631b739ef190604401600060405180830381600087803b15801561036c57600080fd5b505af1158015610380573d6000803e3d6000fd5b5050505061039361038e3390565b610789565b6040518181527f0915bc86b1596e09ec5e83179f215ac7f6febcb26b233e6c352e3cfc3da1ed1d906020015b60405180910390a1505050505050565b6004546001600160a01b031633146103fa5760405163032299f360e61b815260040160405180910390fd5b600083815260016020526040908190205490516352c7a81560e11b815260048101849052602481018390526001600160a01b039091169063a58f502a90604401600060405180830381600087803b15801561045457600080fd5b505af1158015610468573d6000803e3d6000fd5b50505050505050565b6000546001600160a01b0316331461049b5760405162461bcd60e51b815260040161022a90610a12565b6104a56000610833565b565b6000546001600160a01b031633146104d15760405162461bcd60e51b815260040161022a90610a12565b60009182526001602052604090912080546001600160a01b0319166001600160a01b03909216919091179055565b8261050981610754565b60008481526002602090815260408083208684529091529020546001600160a01b03168061054a57604051633c420cf560e11b815260040160405180910390fd5b336001600160a01b03821614156105745760405163510f584760e11b815260040160405180910390fd5b60008581526002602090815260408083208784528252808320546001600160a01b0316835260039091529020831515600114156105cb5760018160000160008282546105c09190610aa8565b909155506105e69050565b60018160010160008282546105e09190610aa8565b90915550505b6000868152600160205260409020546001600160a01b031663ca888310336040516001600160e01b031960e084901b1681526001600160a01b039091166004820152602481018890528615156044820152606401600060405180830381600087803b15801561065457600080fd5b505af1158015610668573d6000803e3d6000fd5b505050507fc7a0866bc67e084b750f0d96e9dcecaf550313351867b9df8dcb567ee5ba848b6106943390565b604080516001600160a01b0390921682526020820189905281018790526060016103bf565b6000546001600160a01b031633146106e35760405162461bcd60e51b815260040161022a90610a12565b6001600160a01b0381166107485760405162461bcd60e51b815260206004820152602660248201527f4f776e61626c653a206e6577206f776e657220697320746865207a65726f206160448201526564647265737360d01b606482015260840161022a565b61075181610833565b50565b6000818152600160205260409020546001600160a01b03166107515760405163f1532eeb60e01b815260040160405180910390fd5b6001600160a01b03811660009081526003602052604090206002015460ff1661075157604080516060810182526000808252602080830182815260018486018181526001600160a01b038816808652600385529487902095518655915190850155516002909301805460ff19169315159390931790925591519182527fce0e7a0b0997727ddc2dea10a1ed8704fc9fb22881e296d38864b4daf4780453910160405180910390a150565b600080546001600160a01b038381166001600160a01b0319831681178455604051919092169283917f8be0079c531659141344cd1fd0a4f28419497f9722a3daafe3b4186f6b6457e09190a35050565b80356001600160a01b038116811461089a57600080fd5b919050565b6000602082840312156108b157600080fd5b6108ba82610883565b9392505050565b600080600080606085870312156108d757600080fd5b8435935060208501359250604085013567ffffffffffffffff808211156108fd57600080fd5b818701915087601f83011261091157600080fd5b81358181111561092057600080fd5b88602082850101111561093257600080fd5b95989497505060200194505050565b60008060006060848603121561095657600080fd5b505081359360208301359350604090920135919050565b60006020828403121561097f57600080fd5b5035919050565b6000806040838503121561099957600080fd5b823591506109a960208401610883565b90509250929050565b6000806000606084860312156109c757600080fd5b8335925060208401359150604084013580151581146109e557600080fd5b809150509250925092565b60008060408385031215610a0357600080fd5b50508035926020909101359150565b6020808252818101527f4f776e61626c653a2063616c6c6572206973206e6f7420746865206f776e6572604082015260600190565b6001600160a01b0385168152602081018490526060604082018190528101829052818360808301376000818301608090810191909152601f909201601f191601019392505050565b600060208284031215610aa157600080fd5b5051919050565b60008219821115610ac957634e487b7160e01b600052601160045260246000fd5b50019056fea26469706673582212203f0bd9ed3214210b9c632c86e5faa4fcccbdeaf6e2f1dfd6d78aa89272f614ac64736f6c63430008090033",
  "linkReferences": {},
  "deployedLinkReferences": {}
}