{
  "_format": "hh-sol-artifact-1",
  "contractName": "Verifier",
  "sourceName": "contracts/Verifier.sol",
  "abi": [
    {
      "inputs": [
        {
          "internalType": "uint256",
          "name": "orgId_",
          "type": "uint256"
        },
        {
          "internalType": "string",
          "name": "name_",
          "type": "string"
        },
        {
          "internalType": "address",
          "name": "addr_",
          "type": "address"
        },
        {
          "internalType": "string",
          "name": "URI_",
          "type": "string"
        },
        {
          "internalType": "address",
          "name": "owner_",
          "type": "address"
        }
      ],
      "stateMutability": "nonpayable",
      "type": "constructor"
    },
    {
      "inputs": [],
      "name": "ERC1155__NotOwnerNorApproved",
      "type": "error"
    },
    {
      "inputs": [],
      "name": "Verifier__InvalidBurnerAddress",
      "type": "error"
    },
    {
      "inputs": [],
      "name": "Verifier__InvalidMsgValue",
      "type": "error"
    },
    {
      "inputs": [],
      "name": "Verifier__OnlyAdminCanMintNFT",
      "type": "error"
    },
    {
      "inputs": [],
      "name": "Verifier__OnlyAdminCanTransferVerifierNFT",
      "type": "error"
    },
    {
      "anonymous": false,
      "inputs": [
        {
          "indexed": true,
          "internalType": "address",
          "name": "account",
          "type": "address"
        },
        {
          "indexed": true,
          "internalType": "address",
          "name": "operator",
          "type": "address"
        },
        {
          "indexed": false,
          "internalType": "bool",
          "name": "approved",
          "type": "bool"
        }
      ],
      "name": "ApprovalForAll",
      "type": "event"
    },
    {
      "anonymous": false,
      "inputs": [
        {
          "indexed": true,
          "internalType": "address",
          "name": "previousOwner",
          "type": "address"
        },
        {
          "indexed": true,
          "internalType": "address",
          "name": "newOwner",
          "type": "address"
        }
      ],
      "name": "OwnershipTransferred",
      "type": "event"
    },
    {
      "anonymous": false,
      "inputs": [
        {
          "indexed": true,
          "internalType": "bytes32",
          "name": "role",
          "type": "bytes32"
        },
        {
          "indexed": true,
          "internalType": "bytes32",
          "name": "previousAdminRole",
          "type": "bytes32"
        },
        {
          "indexed": true,
          "internalType": "bytes32",
          "name": "newAdminRole",
          "type": "bytes32"
        }
      ],
      "name": "RoleAdminChanged",
      "type": "event"
    },
    {
      "anonymous": false,
      "inputs": [
        {
          "indexed": true,
          "internalType": "bytes32",
          "name": "role",
          "type": "bytes32"
        },
        {
          "indexed": true,
          "internalType": "address",
          "name": "account",
          "type": "address"
        },
        {
          "indexed": true,
          "internalType": "address",
          "name": "sender",
          "type": "address"
        }
      ],
      "name": "RoleGranted",
      "type": "event"
    },
    {
      "anonymous": false,
      "inputs": [
        {
          "indexed": true,
          "internalType": "bytes32",
          "name": "role",
          "type": "bytes32"
        },
        {
          "indexed": true,
          "internalType": "address",
          "name": "account",
          "type": "address"
        },
        {
          "indexed": true,
          "internalType": "address",
          "name": "sender",
          "type": "address"
        }
      ],
      "name": "RoleRevoked",
      "type": "event"
    },
    {
      "anonymous": false,
      "inputs": [
        {
          "indexed": true,
          "internalType": "address",
          "name": "operator",
          "type": "address"
        },
        {
          "indexed": true,
          "internalType": "address",
          "name": "from",
          "type": "address"
        },
        {
          "indexed": true,
          "internalType": "address",
          "name": "to",
          "type": "address"
        },
        {
          "indexed": false,
          "internalType": "uint256[]",
          "name": "ids",
          "type": "uint256[]"
        },
        {
          "indexed": false,
          "internalType": "uint256[]",
          "name": "values",
          "type": "uint256[]"
        }
      ],
      "name": "TransferBatch",
      "type": "event"
    },
    {
      "anonymous": false,
      "inputs": [
        {
          "indexed": true,
          "internalType": "address",
          "name": "operator",
          "type": "address"
        },
        {
          "indexed": true,
          "internalType": "address",
          "name": "from",
          "type": "address"
        },
        {
          "indexed": true,
          "internalType": "address",
          "name": "to",
          "type": "address"
        },
        {
          "indexed": false,
          "internalType": "uint256",
          "name": "id",
          "type": "uint256"
        },
        {
          "indexed": false,
          "internalType": "uint256",
          "name": "value",
          "type": "uint256"
        }
      ],
      "name": "TransferSingle",
      "type": "event"
    },
    {
      "anonymous": false,
      "inputs": [
        {
          "indexed": false,
          "internalType": "string",
          "name": "value",
          "type": "string"
        },
        {
          "indexed": true,
          "internalType": "uint256",
          "name": "id",
          "type": "uint256"
        }
      ],
      "name": "URI",
      "type": "event"
    },
    {
      "inputs": [],
      "name": "ADMIN_ROLE",
      "outputs": [
        {
          "internalType": "bytes32",
          "name": "",
          "type": "bytes32"
        }
      ],
      "stateMutability": "view",
      "type": "function"
    },
    {
      "inputs": [],
      "name": "DEFAULT_ADMIN_ROLE",
      "outputs": [
        {
          "internalType": "bytes32",
          "name": "",
          "type": "bytes32"
        }
      ],
      "stateMutability": "view",
      "type": "function"
    },
    {
      "inputs": [],
      "name": "FLOOR_PRICE",
      "outputs": [
        {
          "internalType": "uint256",
          "name": "",
          "type": "uint256"
        }
      ],
      "stateMutability": "view",
      "type": "function"
    },
    {
      "inputs": [],
      "name": "VERIFIER",
      "outputs": [
        {
          "internalType": "uint256",
          "name": "",
          "type": "uint256"
        }
      ],
      "stateMutability": "view",
      "type": "function"
    },
    {
      "inputs": [
        {
          "internalType": "uint256[]",
          "name": "ids_",
          "type": "uint256[]"
        },
        {
          "internalType": "uint256[]",
          "name": "amounts_",
          "type": "uint256[]"
        },
        {
          "internalType": "address",
          "name": "to_",
          "type": "address"
        }
      ],
      "name": "adminMintBatch",
      "outputs": [],
      "stateMutability": "nonpayable",
      "type": "function"
    },
    {
      "inputs": [
        {
          "internalType": "address",
          "name": "account",
          "type": "address"
        },
        {
          "internalType": "uint256",
          "name": "id",
          "type": "uint256"
        }
      ],
      "name": "balanceOf",
      "outputs": [
        {
          "internalType": "uint256",
          "name": "",
          "type": "uint256"
        }
      ],
      "stateMutability": "view",
      "type": "function"
    },
    {
      "inputs": [
        {
          "internalType": "address[]",
          "name": "accounts",
          "type": "address[]"
        },
        {
          "internalType": "uint256[]",
          "name": "ids",
          "type": "uint256[]"
        }
      ],
      "name": "balanceOfBatch",
      "outputs": [
        {
          "internalType": "uint256[]",
          "name": "",
          "type": "uint256[]"
        }
      ],
      "stateMutability": "view",
      "type": "function"
    },
    {
      "inputs": [
        {
          "internalType": "address",
          "name": "burnTokenAddress_",
          "type": "address"
        }
      ],
      "name": "burnVerifierForAddress",
      "outputs": [],
      "stateMutability": "nonpayable",
      "type": "function"
    },
    {
      "inputs": [
        {
          "internalType": "bytes32",
          "name": "role",
          "type": "bytes32"
        }
      ],
      "name": "getRoleAdmin",
      "outputs": [
        {
          "internalType": "bytes32",
          "name": "",
          "type": "bytes32"
        }
      ],
      "stateMutability": "view",
      "type": "function"
    },
    {
      "inputs": [
        {
          "internalType": "bytes32",
          "name": "role",
          "type": "bytes32"
        },
        {
          "internalType": "address",
          "name": "account",
          "type": "address"
        }
      ],
      "name": "grantRole",
      "outputs": [],
      "stateMutability": "nonpayable",
      "type": "function"
    },
    {
      "inputs": [
        {
          "internalType": "bytes32",
          "name": "role",
          "type": "bytes32"
        },
        {
          "internalType": "address",
          "name": "account",
          "type": "address"
        }
      ],
      "name": "hasRole",
      "outputs": [
        {
          "internalType": "bool",
          "name": "",
          "type": "bool"
        }
      ],
      "stateMutability": "view",
      "type": "function"
    },
    {
      "inputs": [
        {
          "internalType": "address",
          "name": "addr",
          "type": "address"
        }
      ],
      "name": "isAdmin",
      "outputs": [
        {
          "internalType": "bool",
          "name": "",
          "type": "bool"
        }
      ],
      "stateMutability": "view",
      "type": "function"
    },
    {
      "inputs": [
        {
          "internalType": "address",
          "name": "account",
          "type": "address"
        },
        {
          "internalType": "address",
          "name": "operator",
          "type": "address"
        }
      ],
      "name": "isApprovedForAll",
      "outputs": [
        {
          "internalType": "bool",
          "name": "",
          "type": "bool"
        }
      ],
      "stateMutability": "view",
      "type": "function"
    },
    {
      "inputs": [
        {
          "internalType": "address",
          "name": "to_",
          "type": "address"
        }
      ],
      "name": "mintBatch",
      "outputs": [],
      "stateMutability": "payable",
      "type": "function"
    },
    {
      "inputs": [],
      "name": "owner",
      "outputs": [
        {
          "internalType": "address",
          "name": "",
          "type": "address"
        }
      ],
      "stateMutability": "view",
      "type": "function"
    },
    {
      "inputs": [],
      "name": "renounceOwnership",
      "outputs": [],
      "stateMutability": "nonpayable",
      "type": "function"
    },
    {
      "inputs": [
        {
          "internalType": "bytes32",
          "name": "role",
          "type": "bytes32"
        },
        {
          "internalType": "address",
          "name": "account",
          "type": "address"
        }
      ],
      "name": "renounceRole",
      "outputs": [],
      "stateMutability": "nonpayable",
      "type": "function"
    },
    {
      "inputs": [
        {
          "internalType": "bytes32",
          "name": "role",
          "type": "bytes32"
        },
        {
          "internalType": "address",
          "name": "account",
          "type": "address"
        }
      ],
      "name": "revokeRole",
      "outputs": [],
      "stateMutability": "nonpayable",
      "type": "function"
    },
    {
      "inputs": [],
      "name": "s_appraiserContract",
      "outputs": [
        {
          "internalType": "address",
          "name": "",
          "type": "address"
        }
      ],
      "stateMutability": "view",
      "type": "function"
    },
    {
      "inputs": [],
      "name": "s_name",
      "outputs": [
        {
          "internalType": "string",
          "name": "",
          "type": "string"
        }
      ],
      "stateMutability": "view",
      "type": "function"
    },
    {
      "inputs": [],
      "name": "s_orgId",
      "outputs": [
        {
          "internalType": "uint256",
          "name": "",
          "type": "uint256"
        }
      ],
      "stateMutability": "view",
      "type": "function"
    },
    {
      "inputs": [
        {
          "internalType": "uint256",
          "name": "",
          "type": "uint256"
        }
      ],
      "name": "s_verifiers",
      "outputs": [
        {
          "internalType": "uint256",
          "name": "id",
          "type": "uint256"
        },
        {
          "internalType": "address",
          "name": "author",
          "type": "address"
        },
        {
          "internalType": "uint256",
          "name": "rating",
          "type": "uint256"
        },
        {
          "internalType": "string",
          "name": "review",
          "type": "string"
        },
        {
          "internalType": "uint256",
          "name": "unixtime",
          "type": "uint256"
        },
        {
          "internalType": "uint256",
          "name": "groupId",
          "type": "uint256"
        },
        {
          "internalType": "bool",
          "name": "isVerified",
          "type": "bool"
        }
      ],
      "stateMutability": "view",
      "type": "function"
    },
    {
      "inputs": [
        {
          "internalType": "address",
          "name": "from",
          "type": "address"
        },
        {
          "internalType": "address",
          "name": "to",
          "type": "address"
        },
        {
          "internalType": "uint256[]",
          "name": "ids",
          "type": "uint256[]"
        },
        {
          "internalType": "uint256[]",
          "name": "amounts",
          "type": "uint256[]"
        },
        {
          "internalType": "bytes",
          "name": "data",
          "type": "bytes"
        }
      ],
      "name": "safeBatchTransferFrom",
      "outputs": [],
      "stateMutability": "nonpayable",
      "type": "function"
    },
    {
      "inputs": [
        {
          "internalType": "address",
          "name": "from",
          "type": "address"
        },
        {
          "internalType": "address",
          "name": "to",
          "type": "address"
        },
        {
          "internalType": "uint256",
          "name": "id",
          "type": "uint256"
        },
        {
          "internalType": "uint256",
          "name": "amount",
          "type": "uint256"
        },
        {
          "internalType": "bytes",
          "name": "data",
          "type": "bytes"
        }
      ],
      "name": "safeTransferFrom",
      "outputs": [],
      "stateMutability": "nonpayable",
      "type": "function"
    },
    {
      "inputs": [
        {
          "internalType": "address",
          "name": "appraiserContractAddress_",
          "type": "address"
        }
      ],
      "name": "setAppraiserContractAddress",
      "outputs": [],
      "stateMutability": "nonpayable",
      "type": "function"
    },
    {
      "inputs": [
        {
          "internalType": "address",
          "name": "operator",
          "type": "address"
        },
        {
          "internalType": "bool",
          "name": "approved",
          "type": "bool"
        }
      ],
      "name": "setApprovalForAll",
      "outputs": [],
      "stateMutability": "nonpayable",
      "type": "function"
    },
    {
      "inputs": [
        {
          "internalType": "bytes4",
          "name": "interfaceId",
          "type": "bytes4"
        }
      ],
      "name": "supportsInterface",
      "outputs": [
        {
          "internalType": "bool",
          "name": "",
          "type": "bool"
        }
      ],
      "stateMutability": "view",
      "type": "function"
    },
    {
      "inputs": [
        {
          "internalType": "address",
          "name": "newOwner",
          "type": "address"
        }
      ],
      "name": "transferOwnership",
      "outputs": [],
      "stateMutability": "nonpayable",
      "type": "function"
    },
    {
      "inputs": [
        {
          "internalType": "uint256",
          "name": "",
          "type": "uint256"
        }
      ],
      "name": "uri",
      "outputs": [
        {
          "internalType": "string",
          "name": "",
          "type": "string"
        }
      ],
      "stateMutability": "view",
      "type": "function"
    }
  ],
  "bytecode": "0x6080604052655af3107a40006005553480156200001b57600080fd5b5060405162003160380380620031608339810160408190526200003e91620007ef565b816200004a81620000ec565b50620000563362000105565b620000618162000157565b600685905583516200007b9060079060208701906200063c565b50620000a28360006103e8604051806020016040528060008152506200022c60201b60201c565b620000ce7fa49807205ce4d355092ef5a8a18f56e8913cf4a201fbe287825b095693c21775846200034a565b5050600980546001600160a01b031916331790555062000a6c915050565b8051620001019060029060208401906200063c565b5050565b600380546001600160a01b038381166001600160a01b0319831681179093556040519116919082907f8be0079c531659141344cd1fd0a4f28419497f9722a3daafe3b4186f6b6457e090600090a35050565b6003546001600160a01b03163314620001b75760405162461bcd60e51b815260206004820181905260248201527f4f776e61626c653a2063616c6c6572206973206e6f7420746865206f776e657260448201526064015b60405180910390fd5b6001600160a01b0381166200021e5760405162461bcd60e51b815260206004820152602660248201527f4f776e61626c653a206e6577206f776e657220697320746865207a65726f206160448201526564647265737360d01b6064820152608401620001ae565b620002298162000105565b50565b6001600160a01b0384166200028e5760405162461bcd60e51b815260206004820152602160248201527f455243313135353a206d696e7420746f20746865207a65726f206164647265736044820152607360f81b6064820152608401620001ae565b3360006200029c8562000356565b90506000620002ab8562000356565b90506000868152602081815260408083206001600160a01b038b16845290915281208054879290620002df90849062000889565b909155505060408051878152602081018790526001600160a01b03808a1692600092918716917fc3d58168c5ae7397731d063d5bbf3d657854427343f4c083240f7aacaa2d0f62910160405180910390a46200034183600089898989620003ac565b50505050505050565b62000101828262000589565b60408051600180825281830190925260609160009190602080830190803683370190505090508281600081518110620003935762000393620008b0565b602090810291909101015292915050565b505050505050565b620003cb846001600160a01b03166200062d60201b62000eed1760201c565b15620003a45760405163f23a6e6160e01b81526001600160a01b0385169063f23a6e6190620004079089908990889088908890600401620008f4565b602060405180830381600087803b1580156200042257600080fd5b505af192505050801562000455575060408051601f3d908101601f1916820190925262000452918101906200093b565b60015b6200051657620004646200096e565b806308c379a01415620004a557506200047c6200098b565b80620004895750620004a7565b8060405162461bcd60e51b8152600401620001ae919062000a1a565b505b60405162461bcd60e51b815260206004820152603460248201527f455243313135353a207472616e7366657220746f206e6f6e204552433131353560448201527f526563656976657220696d706c656d656e7465720000000000000000000000006064820152608401620001ae565b6001600160e01b0319811663f23a6e6160e01b14620003415760405162461bcd60e51b815260206004820152602860248201527f455243313135353a204552433131353552656365697665722072656a656374656044820152676420746f6b656e7360c01b6064820152608401620001ae565b60008281526004602090815260408083206001600160a01b038516845290915290205460ff16620001015760008281526004602090815260408083206001600160a01b03851684529091529020805460ff19166001179055620005e93390565b6001600160a01b0316816001600160a01b0316837f2f8788117e7eff1d82e926ec794901d17c78024a50270940304540a733656f0d60405160405180910390a45050565b6001600160a01b03163b151590565b8280546200064a9062000a2f565b90600052602060002090601f0160209004810192826200066e5760008555620006b9565b82601f106200068957805160ff1916838001178555620006b9565b82800160010185558215620006b9579182015b82811115620006b95782518255916020019190600101906200069c565b50620006c7929150620006cb565b5090565b5b80821115620006c75760008155600101620006cc565b634e487b7160e01b600052604160045260246000fd5b601f8201601f191681016001600160401b0381118282101715620007205762000720620006e2565b6040525050565b60005b83811015620007445781810151838201526020016200072a565b8381111562000754576000848401525b50505050565b600082601f8301126200076c57600080fd5b81516001600160401b03811115620007885762000788620006e2565b604051620007a1601f8301601f191660200182620006f8565b818152846020838601011115620007b757600080fd5b620007ca82602083016020870162000727565b949350505050565b80516001600160a01b0381168114620007ea57600080fd5b919050565b600080600080600060a086880312156200080857600080fd5b855160208701519095506001600160401b03808211156200082857600080fd5b6200083689838a016200075a565b95506200084660408901620007d2565b945060608801519150808211156200085d57600080fd5b506200086c888289016200075a565b9250506200087d60808701620007d2565b90509295509295909350565b60008219821115620008ab57634e487b7160e01b600052601160045260246000fd5b500190565b634e487b7160e01b600052603260045260246000fd5b60008151808452620008e081602086016020860162000727565b601f01601f19169290920160200192915050565b6001600160a01b03868116825285166020820152604081018490526060810183905260a0608082018190526000906200093090830184620008c6565b979650505050505050565b6000602082840312156200094e57600080fd5b81516001600160e01b0319811681146200096757600080fd5b9392505050565b600060033d1115620009885760046000803e5060005160e01c5b90565b600060443d10156200099a5790565b6040516003193d81016004833e81513d6001600160401b038083116024840183101715620009ca57505050505090565b8285019150815181811115620009e35750505050505090565b843d8701016020828501011115620009fe5750505050505090565b62000a0f60208286010187620006f8565b509095945050505050565b602081526000620009676020830184620008c6565b600181811c9082168062000a4457607f821691505b6020821081141562000a6657634e487b7160e01b600052602260045260246000fd5b50919050565b6126e48062000a7c6000396000f3fe6080604052600436106101915760003560e01c806375b238fc116100e7578063b76968c111610095578063dc75be8c11610064578063dc75be8c146104e0578063e985e9c514610500578063f242432a14610549578063f2fde38b1461056957600080fd5b8063b76968c114610462578063bba1964f14610478578063c0bda8de1461048d578063d547741f146104c057600080fd5b806375b238fc146103a75780638da5cb5b146103db57806390ffedf0146103f957806391d148541461040c578063a217fddf146101f9578063a22cb4651461042c578063a71f48a41461044c57600080fd5b80632eb2c2d6116101445780632eb2c2d6146102ad5780632f2ff15d146102cd57806336568abe146102ed5780633c62afb51461030d5780634751b422146103455780634e1273f414610365578063715018a61461039257600080fd5b8062fdd58e1461019657806301ffc9a7146101c957806308c84e70146101f95780630e89341c1461020e57806321cd4f0a1461023b578063248a9ca31461025d57806324d7806c1461028d575b600080fd5b3480156101a257600080fd5b506101b66101b1366004611c65565b610589565b6040519081526020015b60405180910390f35b3480156101d557600080fd5b506101e96101e4366004611ca7565b610620565b60405190151581526020016101c0565b34801561020557600080fd5b506101b6600081565b34801561021a57600080fd5b5061022e610229366004611cc4565b610631565b6040516101c09190611d39565b34801561024757600080fd5b5061025b610256366004611d4c565b6106c5565b005b34801561026957600080fd5b506101b6610278366004611cc4565b60009081526004602052604090206001015490565b34801561029957600080fd5b506101e96102a8366004611d4c565b61078c565b3480156102b957600080fd5b5061025b6102c8366004611eb2565b6107b8565b3480156102d957600080fd5b5061025b6102e8366004611f5f565b61084f565b3480156102f957600080fd5b5061025b610308366004611f5f565b610874565b34801561031957600080fd5b5060095461032d906001600160a01b031681565b6040516001600160a01b0390911681526020016101c0565b34801561035157600080fd5b5061025b610360366004611f8f565b6108f2565b34801561037157600080fd5b50610385610380366004612006565b610937565b6040516101c0919061210d565b34801561039e57600080fd5b5061025b610a60565b3480156103b357600080fd5b506101b67fa49807205ce4d355092ef5a8a18f56e8913cf4a201fbe287825b095693c2177581565b3480156103e757600080fd5b506003546001600160a01b031661032d565b61025b610407366004611d4c565b610a96565b34801561041857600080fd5b506101e9610427366004611f5f565b610bde565b34801561043857600080fd5b5061025b610447366004612120565b610c09565b34801561045857600080fd5b506101b660055481565b34801561046e57600080fd5b506101b660065481565b34801561048457600080fd5b5061022e610c14565b34801561049957600080fd5b506104ad6104a8366004611cc4565b610ca2565b6040516101c09796959493929190612153565b3480156104cc57600080fd5b5061025b6104db366004611f5f565b610d76565b3480156104ec57600080fd5b5061025b6104fb366004611d4c565b610d9b565b34801561050c57600080fd5b506101e961051b3660046121a1565b6001600160a01b03918216600090815260016020908152604080832093909416825291909152205460ff1690565b34801561055557600080fd5b5061025b6105643660046121cf565b610de7565b34801561057557600080fd5b5061025b610584366004611d4c565b610e52565b60006001600160a01b0383166105fa5760405162461bcd60e51b815260206004820152602b60248201527f455243313135353a2062616c616e636520717565727920666f7220746865207a60448201526a65726f206164647265737360a81b60648201526084015b60405180910390fd5b506000908152602081815260408083206001600160a01b03949094168352929052205490565b600061062b82610efc565b92915050565b60606002805461064090612237565b80601f016020809104026020016040519081016040528092919081815260200182805461066c90612237565b80156106b95780601f1061068e576101008083540402835291602001916106b9565b820191906000526020600020905b81548152906001019060200180831161069c57829003601f168201915b50505050509050919050565b60095460065460405163218f83a960e21b81526001600160a01b0390921691600091839163863e0ea4916106ff9160040190815260200190565b604080518083038186803b15801561071657600080fd5b505afa15801561072a573d6000803e3d6000fd5b505050506040513d601f19601f8201168201806040525081019061074e9190612272565b509050336001600160a01b0382161461077a57604051630d65e9b960e41b815260040160405180910390fd5b6107878360006001610f21565b505050565b600061062b7fa49807205ce4d355092ef5a8a18f56e8913cf4a201fbe287825b095693c2177583610bde565b6001600160a01b0385163314806107d457506107d4853361051b565b61083b5760405162461bcd60e51b815260206004820152603260248201527f455243313135353a207472616e736665722063616c6c6572206973206e6f74206044820152711bdddb995c881b9bdc88185c1c1c9bdd995960721b60648201526084016105f1565b61084885858585856110a2565b5050505050565b60008281526004602052604090206001015461086a8161123e565b6107878383611248565b6001600160a01b03811633146108e45760405162461bcd60e51b815260206004820152602f60248201527f416363657373436f6e74726f6c3a2063616e206f6e6c792072656e6f756e636560448201526e103937b632b9903337b91039b2b63360891b60648201526084016105f1565b6108ee82826112ce565b5050565b6003546001600160a01b0316331461091c5760405162461bcd60e51b81526004016105f1906122a1565b61078781848460405180602001604052806000815250611335565b6060815183511461099c5760405162461bcd60e51b815260206004820152602960248201527f455243313135353a206163636f756e747320616e6420696473206c656e677468604482015268040dad2e6dac2e8c6d60bb1b60648201526084016105f1565b600083516001600160401b038111156109b7576109b7611d69565b6040519080825280602002602001820160405280156109e0578160200160208202803683370190505b50905060005b8451811015610a5857610a2b858281518110610a0457610a046122d6565b6020026020010151858381518110610a1e57610a1e6122d6565b6020026020010151610589565b828281518110610a3d57610a3d6122d6565b6020908102919091010152610a5181612302565b90506109e6565b509392505050565b6003546001600160a01b03163314610a8a5760405162461bcd60e51b81526004016105f1906122a1565b610a9460006114ba565b565b610a9e61150c565b610abb57604051638197c7f960e01b815260040160405180910390fd5b6005543490811015610ae057604051632583b35b60e21b815260040160405180910390fd5b600060055482610af0919061231d565b9050610b046003546001600160a01b031690565b6001600160a01b03166108fc839081150290604051600060405180830381858888f19350505050158015610b3c573d6000803e3d6000fd5b50604080516001808252818301909252600091602080830190803683375050604080516001808252818301909252929350600092915060208083019080368337019050509050600081600081518110610b9757610b976122d6565b6020026020010181815250508282600081518110610bb757610bb76122d6565b60200260200101818152505061084885828460405180602001604052806000815250611335565b60009182526004602090815260408084206001600160a01b0393909316845291905290205460ff1690565b6108ee338383611561565b60078054610c2190612237565b80601f0160208091040260200160405190810160405280929190818152602001828054610c4d90612237565b8015610c9a5780601f10610c6f57610100808354040283529160200191610c9a565b820191906000526020600020905b815481529060010190602001808311610c7d57829003601f168201915b505050505081565b600860205260009081526040902080546001820154600283015460038401805493946001600160a01b0390931693919291610cdc90612237565b80601f0160208091040260200160405190810160405280929190818152602001828054610d0890612237565b8015610d555780601f10610d2a57610100808354040283529160200191610d55565b820191906000526020600020905b815481529060010190602001808311610d3857829003601f168201915b50505050600483015460058401546006909401549293909290915060ff1687565b600082815260046020526040902060010154610d918161123e565b61078783836112ce565b6003546001600160a01b03163314610dc55760405162461bcd60e51b81526004016105f1906122a1565b600980546001600160a01b0319166001600160a01b0392909216919091179055565b6001600160a01b038516331480610e035750610e03853361051b565b610e2057604051638afbcef960e01b815260040160405180910390fd5b610e2861150c565b610e4557604051630735731160e21b815260040160405180910390fd5b6108488585858585611642565b6003546001600160a01b03163314610e7c5760405162461bcd60e51b81526004016105f1906122a1565b6001600160a01b038116610ee15760405162461bcd60e51b815260206004820152602660248201527f4f776e61626c653a206e6577206f776e657220697320746865207a65726f206160448201526564647265737360d01b60648201526084016105f1565b610eea816114ba565b50565b6001600160a01b03163b151590565b60006001600160e01b03198216637965db0b60e01b148061062b575061062b8261176c565b6001600160a01b038316610f835760405162461bcd60e51b815260206004820152602360248201527f455243313135353a206275726e2066726f6d20746865207a65726f206164647260448201526265737360e81b60648201526084016105f1565b336000610f8f846117bc565b90506000610f9c846117bc565b60408051602080820183526000918290528882528181528282206001600160a01b038b16835290522054909150848110156110255760405162461bcd60e51b8152602060048201526024808201527f455243313135353a206275726e20616d6f756e7420657863656564732062616c604482015263616e636560e01b60648201526084016105f1565b6000868152602081815260408083206001600160a01b038b81168086529184528285208a8703905582518b81529384018a90529092908816917fc3d58168c5ae7397731d063d5bbf3d657854427343f4c083240f7aacaa2d0f62910160405180910390a46040805160208101909152600090525b50505050505050565b81518351146110c35760405162461bcd60e51b81526004016105f19061233f565b6001600160a01b0384166110e95760405162461bcd60e51b81526004016105f190612387565b3360005b84518110156111d057600085828151811061110a5761110a6122d6565b602002602001015190506000858381518110611128576111286122d6565b602090810291909101810151600084815280835260408082206001600160a01b038e1683529093529190912054909150818110156111785760405162461bcd60e51b81526004016105f1906123cc565b6000838152602081815260408083206001600160a01b038e8116855292528083208585039055908b168252812080548492906111b5908490612416565b92505081905550505050806111c990612302565b90506110ed565b50846001600160a01b0316866001600160a01b0316826001600160a01b03167f4a39dc06d4c0dbc64b70af90fd698a233a518aa5d07e595d983b8c0526c8f7fb878760405161122092919061242e565b60405180910390a4611236818787878787611807565b505050505050565b610eea8133611979565b6112528282610bde565b6108ee5760008281526004602090815260408083206001600160a01b03851684529091529020805460ff1916600117905561128a3390565b6001600160a01b0316816001600160a01b0316837f2f8788117e7eff1d82e926ec794901d17c78024a50270940304540a733656f0d60405160405180910390a45050565b6112d88282610bde565b156108ee5760008281526004602090815260408083206001600160a01b0385168085529252808320805460ff1916905551339285917ff6391f5c32d9c69d2a47ea670b442974b53935d1edc7fd64eb21e047a839171b9190a45050565b6001600160a01b0384166113955760405162461bcd60e51b815260206004820152602160248201527f455243313135353a206d696e7420746f20746865207a65726f206164647265736044820152607360f81b60648201526084016105f1565b81518351146113b65760405162461bcd60e51b81526004016105f19061233f565b3360005b8451811015611452578381815181106113d5576113d56122d6565b60200260200101516000808784815181106113f2576113f26122d6565b602002602001015181526020019081526020016000206000886001600160a01b03166001600160a01b03168152602001908152602001600020600082825461143a9190612416565b9091555081905061144a81612302565b9150506113ba565b50846001600160a01b031660006001600160a01b0316826001600160a01b03167f4a39dc06d4c0dbc64b70af90fd698a233a518aa5d07e595d983b8c0526c8f7fb87876040516114a392919061242e565b60405180910390a461084881600087878787611807565b600380546001600160a01b038381166001600160a01b0319831681179093556040519116919082907f8be0079c531659141344cd1fd0a4f28419497f9722a3daafe3b4186f6b6457e090600090a35050565b60006115387fa49807205ce4d355092ef5a8a18f56e8913cf4a201fbe287825b095693c2177533610bde565b15801561155057506003546001600160a01b03163314155b1561155b5750600090565b50600190565b816001600160a01b0316836001600160a01b031614156115d55760405162461bcd60e51b815260206004820152602960248201527f455243313135353a2073657474696e6720617070726f76616c20737461747573604482015268103337b91039b2b63360b91b60648201526084016105f1565b6001600160a01b03838116600081815260016020908152604080832094871680845294825291829020805460ff191686151590811790915591519182527f17307eab39ab6107e8899845ad3d59bd9653f200f220920489ca2b5937696c31910160405180910390a3505050565b6001600160a01b0384166116685760405162461bcd60e51b81526004016105f190612387565b336000611674856117bc565b90506000611681856117bc565b90506000868152602081815260408083206001600160a01b038c168452909152902054858110156116c45760405162461bcd60e51b81526004016105f1906123cc565b6000878152602081815260408083206001600160a01b038d8116855292528083208985039055908a16825281208054889290611701908490612416565b909155505060408051888152602081018890526001600160a01b03808b16928c821692918816917fc3d58168c5ae7397731d063d5bbf3d657854427343f4c083240f7aacaa2d0f62910160405180910390a4611761848a8a8a8a8a6119dd565b505050505050505050565b60006001600160e01b03198216636cdb3d1360e11b148061179d57506001600160e01b031982166303a24d0760e21b145b8061062b57506301ffc9a760e01b6001600160e01b031983161461062b565b604080516001808252818301909252606091600091906020808301908036833701905050905082816000815181106117f6576117f66122d6565b602090810291909101015292915050565b611819846001600160a01b0316610eed565b156112365760405163bc197c8160e01b81526001600160a01b0385169063bc197c8190611852908990899088908890889060040161245c565b602060405180830381600087803b15801561186c57600080fd5b505af192505050801561189c575060408051601f3d908101601f19168201909252611899918101906124ba565b60015b611949576118a86124d7565b806308c379a014156118e257506118bd6124f3565b806118c857506118e4565b8060405162461bcd60e51b81526004016105f19190611d39565b505b60405162461bcd60e51b815260206004820152603460248201527f455243313135353a207472616e7366657220746f206e6f6e20455243313135356044820152732932b1b2b4bb32b91034b6b83632b6b2b73a32b960611b60648201526084016105f1565b6001600160e01b0319811663bc197c8160e01b146110995760405162461bcd60e51b81526004016105f19061257c565b6119838282610bde565b6108ee5761199b816001600160a01b03166014611aae565b6119a6836020611aae565b6040516020016119b79291906125c4565b60408051601f198184030181529082905262461bcd60e51b82526105f191600401611d39565b6119ef846001600160a01b0316610eed565b156112365760405163f23a6e6160e01b81526001600160a01b0385169063f23a6e6190611a289089908990889088908890600401612633565b602060405180830381600087803b158015611a4257600080fd5b505af1925050508015611a72575060408051601f3d908101601f19168201909252611a6f918101906124ba565b60015b611a7e576118a86124d7565b6001600160e01b0319811663f23a6e6160e01b146110995760405162461bcd60e51b81526004016105f19061257c565b60606000611abd836002612678565b611ac8906002612416565b6001600160401b03811115611adf57611adf611d69565b6040519080825280601f01601f191660200182016040528015611b09576020820181803683370190505b509050600360fc1b81600081518110611b2457611b246122d6565b60200101906001600160f81b031916908160001a905350600f60fb1b81600181518110611b5357611b536122d6565b60200101906001600160f81b031916908160001a9053506000611b77846002612678565b611b82906001612416565b90505b6001811115611bfa576f181899199a1a9b1b9c1cb0b131b232b360811b85600f1660108110611bb657611bb66122d6565b1a60f81b828281518110611bcc57611bcc6122d6565b60200101906001600160f81b031916908160001a90535060049490941c93611bf381612697565b9050611b85565b508315611c495760405162461bcd60e51b815260206004820181905260248201527f537472696e67733a20686578206c656e67746820696e73756666696369656e7460448201526064016105f1565b9392505050565b6001600160a01b0381168114610eea57600080fd5b60008060408385031215611c7857600080fd5b8235611c8381611c50565b946020939093013593505050565b6001600160e01b031981168114610eea57600080fd5b600060208284031215611cb957600080fd5b8135611c4981611c91565b600060208284031215611cd657600080fd5b5035919050565b60005b83811015611cf8578181015183820152602001611ce0565b83811115611d07576000848401525b50505050565b60008151808452611d25816020860160208601611cdd565b601f01601f19169290920160200192915050565b602081526000611c496020830184611d0d565b600060208284031215611d5e57600080fd5b8135611c4981611c50565b634e487b7160e01b600052604160045260246000fd5b601f8201601f191681016001600160401b0381118282101715611da457611da4611d69565b6040525050565b60006001600160401b03821115611dc457611dc4611d69565b5060051b60200190565b600082601f830112611ddf57600080fd5b81356020611dec82611dab565b604051611df98282611d7f565b83815260059390931b8501820192828101915086841115611e1957600080fd5b8286015b84811015611e345780358352918301918301611e1d565b509695505050505050565b600082601f830112611e5057600080fd5b81356001600160401b03811115611e6957611e69611d69565b604051611e80601f8301601f191660200182611d7f565b818152846020838601011115611e9557600080fd5b816020850160208301376000918101602001919091529392505050565b600080600080600060a08688031215611eca57600080fd5b8535611ed581611c50565b94506020860135611ee581611c50565b935060408601356001600160401b0380821115611f0157600080fd5b611f0d89838a01611dce565b94506060880135915080821115611f2357600080fd5b611f2f89838a01611dce565b93506080880135915080821115611f4557600080fd5b50611f5288828901611e3f565b9150509295509295909350565b60008060408385031215611f7257600080fd5b823591506020830135611f8481611c50565b809150509250929050565b600080600060608486031215611fa457600080fd5b83356001600160401b0380821115611fbb57600080fd5b611fc787838801611dce565b94506020860135915080821115611fdd57600080fd5b50611fea86828701611dce565b9250506040840135611ffb81611c50565b809150509250925092565b6000806040838503121561201957600080fd5b82356001600160401b038082111561203057600080fd5b818501915085601f83011261204457600080fd5b8135602061205182611dab565b60405161205e8282611d7f565b83815260059390931b850182019282810191508984111561207e57600080fd5b948201945b838610156120a557853561209681611c50565b82529482019490820190612083565b965050860135925050808211156120bb57600080fd5b506120c885828601611dce565b9150509250929050565b600081518084526020808501945080840160005b83811015612102578151875295820195908201906001016120e6565b509495945050505050565b602081526000611c4960208301846120d2565b6000806040838503121561213357600080fd5b823561213e81611c50565b915060208301358015158114611f8457600080fd5b87815260018060a01b038716602082015285604082015260e06060820152600061218060e0830187611d0d565b60808301959095525060a0810192909252151560c090910152949350505050565b600080604083850312156121b457600080fd5b82356121bf81611c50565b91506020830135611f8481611c50565b600080600080600060a086880312156121e757600080fd5b85356121f281611c50565b9450602086013561220281611c50565b9350604086013592506060860135915060808601356001600160401b0381111561222b57600080fd5b611f5288828901611e3f565b600181811c9082168061224b57607f821691505b6020821081141561226c57634e487b7160e01b600052602260045260246000fd5b50919050565b6000806040838503121561228557600080fd5b825161229081611c50565b6020840151909250611f8481611c50565b6020808252818101527f4f776e61626c653a2063616c6c6572206973206e6f7420746865206f776e6572604082015260600190565b634e487b7160e01b600052603260045260246000fd5b634e487b7160e01b600052601160045260246000fd5b6000600019821415612316576123166122ec565b5060010190565b60008261233a57634e487b7160e01b600052601260045260246000fd5b500490565b60208082526028908201527f455243313135353a2069647320616e6420616d6f756e7473206c656e677468206040820152670dad2e6dac2e8c6d60c31b606082015260800190565b60208082526025908201527f455243313135353a207472616e7366657220746f20746865207a65726f206164604082015264647265737360d81b606082015260800190565b6020808252602a908201527f455243313135353a20696e73756666696369656e742062616c616e636520666f60408201526939103a3930b739b332b960b11b606082015260800190565b60008219821115612429576124296122ec565b500190565b60408152600061244160408301856120d2565b828103602084015261245381856120d2565b95945050505050565b6001600160a01b0386811682528516602082015260a060408201819052600090612488908301866120d2565b828103606084015261249a81866120d2565b905082810360808401526124ae8185611d0d565b98975050505050505050565b6000602082840312156124cc57600080fd5b8151611c4981611c91565b600060033d11156124f05760046000803e5060005160e01c5b90565b600060443d10156125015790565b6040516003193d81016004833e81513d6001600160401b03816024840111818411171561253057505050505090565b82850191508151818111156125485750505050505090565b843d87010160208285010111156125625750505050505090565b61257160208286010187611d7f565b509095945050505050565b60208082526028908201527f455243313135353a204552433131353552656365697665722072656a656374656040820152676420746f6b656e7360c01b606082015260800190565b76020b1b1b2b9b9a1b7b73a3937b61d1030b1b1b7bab73a1604d1b8152600083516125f6816017850160208801611cdd565b7001034b99036b4b9b9b4b733903937b6329607d1b6017918401918201528351612627816028840160208801611cdd565b01602801949350505050565b6001600160a01b03868116825285166020820152604081018490526060810183905260a06080820181905260009061266d90830184611d0d565b979650505050505050565b6000816000190483118215151615612692576126926122ec565b500290565b6000816126a6576126a66122ec565b50600019019056fea2646970667358221220328fbb64d38d0459f1182baa9e06d326e1398efed874478290b0bfd0c666b6aa64736f6c63430008090033",
  "linkReferences": {},
  "deployedLinkReferences": {}
}