{
  "_format": "hh-sol-artifact-1",
  "contractName": "Verifier",
  "sourceName": "contracts/Verifier.sol",
  "abi": [
    {
      "inputs": [
        {
          "internalType": "uint256",
          "name": "orgId_",
          "type": "uint256"
        },
        {
          "internalType": "string",
          "name": "name_",
          "type": "string"
        },
        {
          "internalType": "address",
          "name": "addr_",
          "type": "address"
        },
        {
          "internalType": "string",
          "name": "URI_",
          "type": "string"
        },
        {
          "internalType": "address",
          "name": "owner_",
          "type": "address"
        }
      ],
      "stateMutability": "nonpayable",
      "type": "constructor"
    },
    {
      "inputs": [],
      "name": "ERC1155__NotOwnerNorApproved",
      "type": "error"
    },
    {
      "inputs": [],
      "name": "Verifier__InvalidBurnerAddress",
      "type": "error"
    },
    {
      "inputs": [],
      "name": "Verifier__InvalidMsgValue",
      "type": "error"
    },
    {
      "inputs": [],
      "name": "Verifier__OnlyAdminCanMintNFT",
      "type": "error"
    },
    {
      "inputs": [],
      "name": "Verifier__OnlyAdminCanTransferVerifierNFT",
      "type": "error"
    },
    {
      "anonymous": false,
      "inputs": [
        {
          "indexed": true,
          "internalType": "address",
          "name": "account",
          "type": "address"
        },
        {
          "indexed": true,
          "internalType": "address",
          "name": "operator",
          "type": "address"
        },
        {
          "indexed": false,
          "internalType": "bool",
          "name": "approved",
          "type": "bool"
        }
      ],
      "name": "ApprovalForAll",
      "type": "event"
    },
    {
      "anonymous": false,
      "inputs": [
        {
          "indexed": true,
          "internalType": "address",
          "name": "previousOwner",
          "type": "address"
        },
        {
          "indexed": true,
          "internalType": "address",
          "name": "newOwner",
          "type": "address"
        }
      ],
      "name": "OwnershipTransferred",
      "type": "event"
    },
    {
      "anonymous": false,
      "inputs": [
        {
          "indexed": true,
          "internalType": "bytes32",
          "name": "role",
          "type": "bytes32"
        },
        {
          "indexed": true,
          "internalType": "bytes32",
          "name": "previousAdminRole",
          "type": "bytes32"
        },
        {
          "indexed": true,
          "internalType": "bytes32",
          "name": "newAdminRole",
          "type": "bytes32"
        }
      ],
      "name": "RoleAdminChanged",
      "type": "event"
    },
    {
      "anonymous": false,
      "inputs": [
        {
          "indexed": true,
          "internalType": "bytes32",
          "name": "role",
          "type": "bytes32"
        },
        {
          "indexed": true,
          "internalType": "address",
          "name": "account",
          "type": "address"
        },
        {
          "indexed": true,
          "internalType": "address",
          "name": "sender",
          "type": "address"
        }
      ],
      "name": "RoleGranted",
      "type": "event"
    },
    {
      "anonymous": false,
      "inputs": [
        {
          "indexed": true,
          "internalType": "bytes32",
          "name": "role",
          "type": "bytes32"
        },
        {
          "indexed": true,
          "internalType": "address",
          "name": "account",
          "type": "address"
        },
        {
          "indexed": true,
          "internalType": "address",
          "name": "sender",
          "type": "address"
        }
      ],
      "name": "RoleRevoked",
      "type": "event"
    },
    {
      "anonymous": false,
      "inputs": [
        {
          "indexed": true,
          "internalType": "address",
          "name": "operator",
          "type": "address"
        },
        {
          "indexed": true,
          "internalType": "address",
          "name": "from",
          "type": "address"
        },
        {
          "indexed": true,
          "internalType": "address",
          "name": "to",
          "type": "address"
        },
        {
          "indexed": false,
          "internalType": "uint256[]",
          "name": "ids",
          "type": "uint256[]"
        },
        {
          "indexed": false,
          "internalType": "uint256[]",
          "name": "values",
          "type": "uint256[]"
        }
      ],
      "name": "TransferBatch",
      "type": "event"
    },
    {
      "anonymous": false,
      "inputs": [
        {
          "indexed": true,
          "internalType": "address",
          "name": "operator",
          "type": "address"
        },
        {
          "indexed": true,
          "internalType": "address",
          "name": "from",
          "type": "address"
        },
        {
          "indexed": true,
          "internalType": "address",
          "name": "to",
          "type": "address"
        },
        {
          "indexed": false,
          "internalType": "uint256",
          "name": "id",
          "type": "uint256"
        },
        {
          "indexed": false,
          "internalType": "uint256",
          "name": "value",
          "type": "uint256"
        }
      ],
      "name": "TransferSingle",
      "type": "event"
    },
    {
      "anonymous": false,
      "inputs": [
        {
          "indexed": false,
          "internalType": "string",
          "name": "value",
          "type": "string"
        },
        {
          "indexed": true,
          "internalType": "uint256",
          "name": "id",
          "type": "uint256"
        }
      ],
      "name": "URI",
      "type": "event"
    },
    {
      "inputs": [],
      "name": "ADMIN_ROLE",
      "outputs": [
        {
          "internalType": "bytes32",
          "name": "",
          "type": "bytes32"
        }
      ],
      "stateMutability": "view",
      "type": "function"
    },
    {
      "inputs": [],
      "name": "DEFAULT_ADMIN_ROLE",
      "outputs": [
        {
          "internalType": "bytes32",
          "name": "",
          "type": "bytes32"
        }
      ],
      "stateMutability": "view",
      "type": "function"
    },
    {
      "inputs": [],
      "name": "FLOOR_PRICE",
      "outputs": [
        {
          "internalType": "uint256",
          "name": "",
          "type": "uint256"
        }
      ],
      "stateMutability": "view",
      "type": "function"
    },
    {
      "inputs": [],
      "name": "VERIFIER",
      "outputs": [
        {
          "internalType": "uint256",
          "name": "",
          "type": "uint256"
        }
      ],
      "stateMutability": "view",
      "type": "function"
    },
    {
      "inputs": [
        {
          "internalType": "uint256[]",
          "name": "ids_",
          "type": "uint256[]"
        },
        {
          "internalType": "uint256[]",
          "name": "amounts_",
          "type": "uint256[]"
        },
        {
          "internalType": "address",
          "name": "to_",
          "type": "address"
        }
      ],
      "name": "adminMintBatch",
      "outputs": [],
      "stateMutability": "nonpayable",
      "type": "function"
    },
    {
      "inputs": [
        {
          "internalType": "address",
          "name": "account",
          "type": "address"
        },
        {
          "internalType": "uint256",
          "name": "id",
          "type": "uint256"
        }
      ],
      "name": "balanceOf",
      "outputs": [
        {
          "internalType": "uint256",
          "name": "",
          "type": "uint256"
        }
      ],
      "stateMutability": "view",
      "type": "function"
    },
    {
      "inputs": [
        {
          "internalType": "address[]",
          "name": "accounts",
          "type": "address[]"
        },
        {
          "internalType": "uint256[]",
          "name": "ids",
          "type": "uint256[]"
        }
      ],
      "name": "balanceOfBatch",
      "outputs": [
        {
          "internalType": "uint256[]",
          "name": "",
          "type": "uint256[]"
        }
      ],
      "stateMutability": "view",
      "type": "function"
    },
    {
      "inputs": [
        {
          "internalType": "address",
          "name": "burnTokenAddress",
          "type": "address"
        }
      ],
      "name": "burnVerifierForAddress",
      "outputs": [],
      "stateMutability": "nonpayable",
      "type": "function"
    },
    {
      "inputs": [
        {
          "internalType": "bytes32",
          "name": "role",
          "type": "bytes32"
        }
      ],
      "name": "getRoleAdmin",
      "outputs": [
        {
          "internalType": "bytes32",
          "name": "",
          "type": "bytes32"
        }
      ],
      "stateMutability": "view",
      "type": "function"
    },
    {
      "inputs": [
        {
          "internalType": "bytes32",
          "name": "role",
          "type": "bytes32"
        },
        {
          "internalType": "address",
          "name": "account",
          "type": "address"
        }
      ],
      "name": "grantRole",
      "outputs": [],
      "stateMutability": "nonpayable",
      "type": "function"
    },
    {
      "inputs": [
        {
          "internalType": "bytes32",
          "name": "role",
          "type": "bytes32"
        },
        {
          "internalType": "address",
          "name": "account",
          "type": "address"
        }
      ],
      "name": "hasRole",
      "outputs": [
        {
          "internalType": "bool",
          "name": "",
          "type": "bool"
        }
      ],
      "stateMutability": "view",
      "type": "function"
    },
    {
      "inputs": [
        {
          "internalType": "address",
          "name": "addr",
          "type": "address"
        }
      ],
      "name": "isAdmin",
      "outputs": [
        {
          "internalType": "bool",
          "name": "",
          "type": "bool"
        }
      ],
      "stateMutability": "view",
      "type": "function"
    },
    {
      "inputs": [
        {
          "internalType": "address",
          "name": "account",
          "type": "address"
        },
        {
          "internalType": "address",
          "name": "operator",
          "type": "address"
        }
      ],
      "name": "isApprovedForAll",
      "outputs": [
        {
          "internalType": "bool",
          "name": "",
          "type": "bool"
        }
      ],
      "stateMutability": "view",
      "type": "function"
    },
    {
      "inputs": [
        {
          "internalType": "address",
          "name": "to_",
          "type": "address"
        }
      ],
      "name": "mintBatch",
      "outputs": [],
      "stateMutability": "payable",
      "type": "function"
    },
    {
      "inputs": [],
      "name": "owner",
      "outputs": [
        {
          "internalType": "address",
          "name": "",
          "type": "address"
        }
      ],
      "stateMutability": "view",
      "type": "function"
    },
    {
      "inputs": [],
      "name": "renounceOwnership",
      "outputs": [],
      "stateMutability": "nonpayable",
      "type": "function"
    },
    {
      "inputs": [
        {
          "internalType": "bytes32",
          "name": "role",
          "type": "bytes32"
        },
        {
          "internalType": "address",
          "name": "account",
          "type": "address"
        }
      ],
      "name": "renounceRole",
      "outputs": [],
      "stateMutability": "nonpayable",
      "type": "function"
    },
    {
      "inputs": [
        {
          "internalType": "bytes32",
          "name": "role",
          "type": "bytes32"
        },
        {
          "internalType": "address",
          "name": "account",
          "type": "address"
        }
      ],
      "name": "revokeRole",
      "outputs": [],
      "stateMutability": "nonpayable",
      "type": "function"
    },
    {
      "inputs": [],
      "name": "s_appraiserContract",
      "outputs": [
        {
          "internalType": "address",
          "name": "",
          "type": "address"
        }
      ],
      "stateMutability": "view",
      "type": "function"
    },
    {
      "inputs": [],
      "name": "s_name",
      "outputs": [
        {
          "internalType": "string",
          "name": "",
          "type": "string"
        }
      ],
      "stateMutability": "view",
      "type": "function"
    },
    {
      "inputs": [],
      "name": "s_orgId",
      "outputs": [
        {
          "internalType": "uint256",
          "name": "",
          "type": "uint256"
        }
      ],
      "stateMutability": "view",
      "type": "function"
    },
    {
      "inputs": [
        {
          "internalType": "uint256",
          "name": "",
          "type": "uint256"
        }
      ],
      "name": "s_verifiers",
      "outputs": [
        {
          "internalType": "uint256",
          "name": "id",
          "type": "uint256"
        },
        {
          "internalType": "address",
          "name": "author",
          "type": "address"
        },
        {
          "internalType": "uint256",
          "name": "rating",
          "type": "uint256"
        },
        {
          "internalType": "string",
          "name": "review",
          "type": "string"
        },
        {
          "internalType": "uint256",
          "name": "unixtime",
          "type": "uint256"
        },
        {
          "internalType": "bool",
          "name": "isVerified",
          "type": "bool"
        }
      ],
      "stateMutability": "view",
      "type": "function"
    },
    {
      "inputs": [
        {
          "internalType": "address",
          "name": "from",
          "type": "address"
        },
        {
          "internalType": "address",
          "name": "to",
          "type": "address"
        },
        {
          "internalType": "uint256[]",
          "name": "ids",
          "type": "uint256[]"
        },
        {
          "internalType": "uint256[]",
          "name": "amounts",
          "type": "uint256[]"
        },
        {
          "internalType": "bytes",
          "name": "data",
          "type": "bytes"
        }
      ],
      "name": "safeBatchTransferFrom",
      "outputs": [],
      "stateMutability": "nonpayable",
      "type": "function"
    },
    {
      "inputs": [
        {
          "internalType": "address",
          "name": "from",
          "type": "address"
        },
        {
          "internalType": "address",
          "name": "to",
          "type": "address"
        },
        {
          "internalType": "uint256",
          "name": "id",
          "type": "uint256"
        },
        {
          "internalType": "uint256",
          "name": "amount",
          "type": "uint256"
        },
        {
          "internalType": "bytes",
          "name": "data",
          "type": "bytes"
        }
      ],
      "name": "safeTransferFrom",
      "outputs": [],
      "stateMutability": "nonpayable",
      "type": "function"
    },
    {
      "inputs": [
        {
          "internalType": "address",
          "name": "appraiserContractAddress_",
          "type": "address"
        }
      ],
      "name": "setAppraiserContractAddress",
      "outputs": [],
      "stateMutability": "nonpayable",
      "type": "function"
    },
    {
      "inputs": [
        {
          "internalType": "address",
          "name": "operator",
          "type": "address"
        },
        {
          "internalType": "bool",
          "name": "approved",
          "type": "bool"
        }
      ],
      "name": "setApprovalForAll",
      "outputs": [],
      "stateMutability": "nonpayable",
      "type": "function"
    },
    {
      "inputs": [
        {
          "internalType": "bytes4",
          "name": "interfaceId",
          "type": "bytes4"
        }
      ],
      "name": "supportsInterface",
      "outputs": [
        {
          "internalType": "bool",
          "name": "",
          "type": "bool"
        }
      ],
      "stateMutability": "view",
      "type": "function"
    },
    {
      "inputs": [
        {
          "internalType": "address",
          "name": "newOwner",
          "type": "address"
        }
      ],
      "name": "transferOwnership",
      "outputs": [],
      "stateMutability": "nonpayable",
      "type": "function"
    },
    {
      "inputs": [
        {
          "internalType": "uint256",
          "name": "",
          "type": "uint256"
        }
      ],
      "name": "uri",
      "outputs": [
        {
          "internalType": "string",
          "name": "",
          "type": "string"
        }
      ],
      "stateMutability": "view",
      "type": "function"
    }
  ],
  "bytecode": "0x6080604052655af3107a40006005553480156200001b57600080fd5b50604051620031e8380380620031e88339810160408190526200003e91620007b2565b816200004a81620000ec565b50620000563362000105565b620000618162000157565b600685905583516200007b90600790602087019062000648565b50620000a28360006103e8604051806020016040528060008152506200022c60201b60201c565b620000ce7fa49807205ce4d355092ef5a8a18f56e8913cf4a201fbe287825b095693c21775846200034a565b5050600980546001600160a01b031916331790555062000a55915050565b80516200010190600290602084019062000648565b5050565b600380546001600160a01b038381166001600160a01b0319831681179093556040519116919082907f8be0079c531659141344cd1fd0a4f28419497f9722a3daafe3b4186f6b6457e090600090a35050565b6003546001600160a01b03163314620001b75760405162461bcd60e51b815260206004820181905260248201527f4f776e61626c653a2063616c6c6572206973206e6f7420746865206f776e657260448201526064015b60405180910390fd5b6001600160a01b0381166200021e5760405162461bcd60e51b815260206004820152602660248201527f4f776e61626c653a206e6577206f776e657220697320746865207a65726f206160448201526564647265737360d01b6064820152608401620001ae565b620002298162000105565b50565b6001600160a01b0384166200028e5760405162461bcd60e51b815260206004820152602160248201527f455243313135353a206d696e7420746f20746865207a65726f206164647265736044820152607360f81b6064820152608401620001ae565b3360006200029c8562000356565b90506000620002ab8562000356565b90506000868152602081815260408083206001600160a01b038b16845290915281208054879290620002df908490620008d3565b909155505060408051878152602081018790526001600160a01b03808a1692600092918716917fc3d58168c5ae7397731d063d5bbf3d657854427343f4c083240f7aacaa2d0f62910160405180910390a46200034183600089898989620003b8565b50505050505050565b62000101828262000595565b604080516001808252818301909252606091600091906020808301908036833701905050905082816000815181106200039f57634e487b7160e01b600052603260045260246000fd5b602090810291909101015292915050565b505050505050565b620003d7846001600160a01b03166200063960201b62000f391760201c565b15620003b05760405163f23a6e6160e01b81526001600160a01b0385169063f23a6e619062000413908990899088908890889060040162000877565b602060405180830381600087803b1580156200042e57600080fd5b505af192505050801562000461575060408051601f3d908101601f191682019092526200045e9181019062000781565b60015b620005225762000470620009ad565b806308c379a01415620004b1575062000488620009c6565b80620004955750620004b3565b8060405162461bcd60e51b8152600401620001ae9190620008be565b505b60405162461bcd60e51b815260206004820152603460248201527f455243313135353a207472616e7366657220746f206e6f6e204552433131353560448201527f526563656976657220696d706c656d656e7465720000000000000000000000006064820152608401620001ae565b6001600160e01b0319811663f23a6e6160e01b14620003415760405162461bcd60e51b815260206004820152602860248201527f455243313135353a204552433131353552656365697665722072656a656374656044820152676420746f6b656e7360c01b6064820152608401620001ae565b60008281526004602090815260408083206001600160a01b038516845290915290205460ff16620001015760008281526004602090815260408083206001600160a01b03851684529091529020805460ff19166001179055620005f53390565b6001600160a01b0316816001600160a01b0316837f2f8788117e7eff1d82e926ec794901d17c78024a50270940304540a733656f0d60405160405180910390a45050565b6001600160a01b03163b151590565b82805462000656906200092b565b90600052602060002090601f0160209004810192826200067a5760008555620006c5565b82601f106200069557805160ff1916838001178555620006c5565b82800160010185558215620006c5579182015b82811115620006c5578251825591602001919060010190620006a8565b50620006d3929150620006d7565b5090565b5b80821115620006d35760008155600101620006d8565b80516001600160a01b03811681146200070657600080fd5b919050565b600082601f8301126200071c578081fd5b81516001600160401b0381111562000738576200073862000997565b60405162000751601f8301601f19166020018262000968565b81815284602083860101111562000766578283fd5b62000779826020830160208701620008f8565b949350505050565b60006020828403121562000793578081fd5b81516001600160e01b031981168114620007ab578182fd5b9392505050565b600080600080600060a08688031215620007ca578081fd5b855160208701519095506001600160401b0380821115620007e9578283fd5b620007f789838a016200070b565b95506200080760408901620006ee565b945060608801519150808211156200081d578283fd5b506200082c888289016200070b565b9250506200083d60808701620006ee565b90509295509295909350565b6000815180845262000863816020860160208601620008f8565b601f01601f19169290920160200192915050565b6001600160a01b03868116825285166020820152604081018490526060810183905260a060808201819052600090620008b39083018462000849565b979650505050505050565b602081526000620007ab602083018462000849565b60008219821115620008f357634e487b7160e01b81526011600452602481fd5b500190565b60005b8381101562000915578181015183820152602001620008fb565b8381111562000925576000848401525b50505050565b600181811c908216806200094057607f821691505b602082108114156200096257634e487b7160e01b600052602260045260246000fd5b50919050565b601f8201601f191681016001600160401b038111828210171562000990576200099062000997565b6040525050565b634e487b7160e01b600052604160045260246000fd5b600060033d1115620009c357600481823e5160e01c5b90565b600060443d1015620009d55790565b6040516003193d81016004833e81513d6001600160401b03808311602484018310171562000a0557505050505090565b828501915081518181111562000a1e5750505050505090565b843d870101602082850101111562000a395750505050505090565b62000a4a6020828601018762000968565b509095945050505050565b6127838062000a656000396000f3fe6080604052600436106101915760003560e01c806375b238fc116100e7578063b76968c111610095578063dc75be8c11610064578063dc75be8c146104df578063e985e9c5146104ff578063f242432a14610548578063f2fde38b1461056857600080fd5b8063b76968c114610462578063bba1964f14610478578063c0bda8de1461048d578063d547741f146104bf57600080fd5b806375b238fc146103a75780638da5cb5b146103db57806390ffedf0146103f957806391d148541461040c578063a217fddf146101f9578063a22cb4651461042c578063a71f48a41461044c57600080fd5b80632eb2c2d6116101445780632eb2c2d6146102ad5780632f2ff15d146102cd57806336568abe146102ed5780633c62afb51461030d5780634751b422146103455780634e1273f414610365578063715018a61461039257600080fd5b8062fdd58e1461019657806301ffc9a7146101c957806308c84e70146101f95780630e89341c1461020e57806321cd4f0a1461023b578063248a9ca31461025d57806324d7806c1461028d575b600080fd5b3480156101a257600080fd5b506101b66101b1366004611fcc565b610588565b6040519081526020015b60405180910390f35b3480156101d557600080fd5b506101e96101e4366004612173565b61061f565b60405190151581526020016101c0565b34801561020557600080fd5b506101b6600081565b34801561021a57600080fd5b5061022e610229366004612137565b610630565b6040516101c09190612364565b34801561024757600080fd5b5061025b610256366004611e0a565b6106c4565b005b34801561026957600080fd5b506101b6610278366004612137565b60009081526004602052604090206001015490565b34801561029957600080fd5b506101e96102a8366004611e0a565b61078b565b3480156102b957600080fd5b5061025b6102c8366004611e8c565b6107b7565b3480156102d957600080fd5b5061025b6102e836600461214f565b61084e565b3480156102f957600080fd5b5061025b61030836600461214f565b610873565b34801561031957600080fd5b5060095461032d906001600160a01b031681565b6040516001600160a01b0390911681526020016101c0565b34801561035157600080fd5b5061025b6103603660046120c3565b6108f1565b34801561037157600080fd5b50610385610380366004611ff7565b610936565b6040516101c09190612323565b34801561039e57600080fd5b5061025b610a97565b3480156103b357600080fd5b506101b67fa49807205ce4d355092ef5a8a18f56e8913cf4a201fbe287825b095693c2177581565b3480156103e757600080fd5b506003546001600160a01b031661032d565b61025b610407366004611e0a565b610acd565b34801561041857600080fd5b506101e961042736600461214f565b610c31565b34801561043857600080fd5b5061025b610447366004611f9b565b610c5c565b34801561045857600080fd5b506101b660055481565b34801561046e57600080fd5b506101b660065481565b34801561048457600080fd5b5061022e610c67565b34801561049957600080fd5b506104ad6104a8366004612137565b610cf5565b6040516101c0969594939291906124cb565b3480156104cb57600080fd5b5061025b6104da36600461214f565b610dc2565b3480156104eb57600080fd5b5061025b6104fa366004611e0a565b610de7565b34801561050b57600080fd5b506101e961051a366004611e26565b6001600160a01b03918216600090815260016020908152604080832093909416825291909152205460ff1690565b34801561055457600080fd5b5061025b610563366004611f35565b610e33565b34801561057457600080fd5b5061025b610583366004611e0a565b610e9e565b60006001600160a01b0383166105f95760405162461bcd60e51b815260206004820152602b60248201527f455243313135353a2062616c616e636520717565727920666f7220746865207a60448201526a65726f206164647265737360a81b60648201526084015b60405180910390fd5b506000908152602081815260408083206001600160a01b03949094168352929052205490565b600061062a82610f48565b92915050565b60606002805461063f906125d3565b80601f016020809104026020016040519081016040528092919081815260200182805461066b906125d3565b80156106b85780601f1061068d576101008083540402835291602001916106b8565b820191906000526020600020905b81548152906001019060200180831161069b57829003601f168201915b50505050509050919050565b60095460065460405163218f83a960e21b81526001600160a01b0390921691600091839163863e0ea4916106fe9160040190815260200190565b604080518083038186803b15801561071557600080fd5b505afa158015610729573d6000803e3d6000fd5b505050506040513d601f19601f8201168201806040525081019061074d9190611e5e565b509050336001600160a01b0382161461077957604051630d65e9b960e41b815260040160405180910390fd5b6107868360006001610f6d565b505050565b600061062a7fa49807205ce4d355092ef5a8a18f56e8913cf4a201fbe287825b095693c2177583610c31565b6001600160a01b0385163314806107d357506107d3853361051a565b61083a5760405162461bcd60e51b815260206004820152603260248201527f455243313135353a207472616e736665722063616c6c6572206973206e6f74206044820152711bdddb995c881b9bdc88185c1c1c9bdd995960721b60648201526084016105f0565b61084785858585856110ee565b5050505050565b600082815260046020526040902060010154610869816112a6565b61078683836112b0565b6001600160a01b03811633146108e35760405162461bcd60e51b815260206004820152602f60248201527f416363657373436f6e74726f6c3a2063616e206f6e6c792072656e6f756e636560448201526e103937b632b9903337b91039b2b63360891b60648201526084016105f0565b6108ed8282611336565b5050565b6003546001600160a01b0316331461091b5760405162461bcd60e51b81526004016105f09061244e565b6107868184846040518060200160405280600081525061139d565b6060815183511461099b5760405162461bcd60e51b815260206004820152602960248201527f455243313135353a206163636f756e747320616e6420696473206c656e677468604482015268040dad2e6dac2e8c6d60bb1b60648201526084016105f0565b600083516001600160401b038111156109c457634e487b7160e01b600052604160045260246000fd5b6040519080825280602002602001820160405280156109ed578160200160208202803683370190505b50905060005b8451811015610a8f57610a54858281518110610a1f57634e487b7160e01b600052603260045260246000fd5b6020026020010151858381518110610a4757634e487b7160e01b600052603260045260246000fd5b6020026020010151610588565b828281518110610a7457634e487b7160e01b600052603260045260246000fd5b6020908102919091010152610a888161263a565b90506109f3565b509392505050565b6003546001600160a01b03163314610ac15760405162461bcd60e51b81526004016105f09061244e565b610acb600061153e565b565b610ad5611590565b610af257604051638197c7f960e01b815260040160405180910390fd5b6005543490811015610b1757604051632583b35b60e21b815260040160405180910390fd5b600060055482610b27919061254d565b9050610b3b6003546001600160a01b031690565b6001600160a01b03166108fc839081150290604051600060405180830381858888f19350505050158015610b73573d6000803e3d6000fd5b50604080516001808252818301909252600091602080830190803683375050604080516001808252818301909252929350600092915060208083019080368337019050509050600081600081518110610bdc57634e487b7160e01b600052603260045260246000fd5b6020026020010181815250508282600081518110610c0a57634e487b7160e01b600052603260045260246000fd5b6020026020010181815250506108478582846040518060200160405280600081525061139d565b60009182526004602090815260408084206001600160a01b0393909316845291905290205460ff1690565b6108ed3383836115e5565b60078054610c74906125d3565b80601f0160208091040260200160405190810160405280929190818152602001828054610ca0906125d3565b8015610ced5780601f10610cc257610100808354040283529160200191610ced565b820191906000526020600020905b815481529060010190602001808311610cd057829003601f168201915b505050505081565b600860205260009081526040902080546001820154600283015460038401805493946001600160a01b0390931693919291610d2f906125d3565b80601f0160208091040260200160405190810160405280929190818152602001828054610d5b906125d3565b8015610da85780601f10610d7d57610100808354040283529160200191610da8565b820191906000526020600020905b815481529060010190602001808311610d8b57829003601f168201915b50505050600483015460059093015491929160ff16905086565b600082815260046020526040902060010154610ddd816112a6565b6107868383611336565b6003546001600160a01b03163314610e115760405162461bcd60e51b81526004016105f09061244e565b600980546001600160a01b0319166001600160a01b0392909216919091179055565b6001600160a01b038516331480610e4f5750610e4f853361051a565b610e6c57604051638afbcef960e01b815260040160405180910390fd5b610e74611590565b610e9157604051630735731160e21b815260040160405180910390fd5b61084785858585856116c6565b6003546001600160a01b03163314610ec85760405162461bcd60e51b81526004016105f09061244e565b6001600160a01b038116610f2d5760405162461bcd60e51b815260206004820152602660248201527f4f776e61626c653a206e6577206f776e657220697320746865207a65726f206160448201526564647265737360d01b60648201526084016105f0565b610f368161153e565b50565b6001600160a01b03163b151590565b60006001600160e01b03198216637965db0b60e01b148061062a575061062a826117f0565b6001600160a01b038316610fcf5760405162461bcd60e51b815260206004820152602360248201527f455243313135353a206275726e2066726f6d20746865207a65726f206164647260448201526265737360e81b60648201526084016105f0565b336000610fdb84611840565b90506000610fe884611840565b60408051602080820183526000918290528882528181528282206001600160a01b038b16835290522054909150848110156110715760405162461bcd60e51b8152602060048201526024808201527f455243313135353a206275726e20616d6f756e7420657863656564732062616c604482015263616e636560e01b60648201526084016105f0565b6000868152602081815260408083206001600160a01b038b81168086529184528285208a8703905582518b81529384018a90529092908816917fc3d58168c5ae7397731d063d5bbf3d657854427343f4c083240f7aacaa2d0f62910160405180910390a46040805160208101909152600090525b50505050505050565b815183511461110f5760405162461bcd60e51b81526004016105f090612483565b6001600160a01b0384166111355760405162461bcd60e51b81526004016105f0906123bf565b3360005b845181101561123857600085828151811061116457634e487b7160e01b600052603260045260246000fd5b60200260200101519050600085838151811061119057634e487b7160e01b600052603260045260246000fd5b602090810291909101810151600084815280835260408082206001600160a01b038e1683529093529190912054909150818110156111e05760405162461bcd60e51b81526004016105f090612404565b6000838152602081815260408083206001600160a01b038e8116855292528083208585039055908b1682528120805484929061121d908490612535565b92505081905550505050806112319061263a565b9050611139565b50846001600160a01b0316866001600160a01b0316826001600160a01b03167f4a39dc06d4c0dbc64b70af90fd698a233a518aa5d07e595d983b8c0526c8f7fb8787604051611288929190612336565b60405180910390a461129e818787878787611899565b505050505050565b610f368133611a0b565b6112ba8282610c31565b6108ed5760008281526004602090815260408083206001600160a01b03851684529091529020805460ff191660011790556112f23390565b6001600160a01b0316816001600160a01b0316837f2f8788117e7eff1d82e926ec794901d17c78024a50270940304540a733656f0d60405160405180910390a45050565b6113408282610c31565b156108ed5760008281526004602090815260408083206001600160a01b0385168085529252808320805460ff1916905551339285917ff6391f5c32d9c69d2a47ea670b442974b53935d1edc7fd64eb21e047a839171b9190a45050565b6001600160a01b0384166113fd5760405162461bcd60e51b815260206004820152602160248201527f455243313135353a206d696e7420746f20746865207a65726f206164647265736044820152607360f81b60648201526084016105f0565b815183511461141e5760405162461bcd60e51b81526004016105f090612483565b3360005b84518110156114d65783818151811061144b57634e487b7160e01b600052603260045260246000fd5b602002602001015160008087848151811061147657634e487b7160e01b600052603260045260246000fd5b602002602001015181526020019081526020016000206000886001600160a01b03166001600160a01b0316815260200190815260200160002060008282546114be9190612535565b909155508190506114ce8161263a565b915050611422565b50846001600160a01b031660006001600160a01b0316826001600160a01b03167f4a39dc06d4c0dbc64b70af90fd698a233a518aa5d07e595d983b8c0526c8f7fb8787604051611527929190612336565b60405180910390a461084781600087878787611899565b600380546001600160a01b038381166001600160a01b0319831681179093556040519116919082907f8be0079c531659141344cd1fd0a4f28419497f9722a3daafe3b4186f6b6457e090600090a35050565b60006115bc7fa49807205ce4d355092ef5a8a18f56e8913cf4a201fbe287825b095693c2177533610c31565b1580156115d457506003546001600160a01b03163314155b156115df5750600090565b50600190565b816001600160a01b0316836001600160a01b031614156116595760405162461bcd60e51b815260206004820152602960248201527f455243313135353a2073657474696e6720617070726f76616c20737461747573604482015268103337b91039b2b63360b91b60648201526084016105f0565b6001600160a01b03838116600081815260016020908152604080832094871680845294825291829020805460ff191686151590811790915591519182527f17307eab39ab6107e8899845ad3d59bd9653f200f220920489ca2b5937696c31910160405180910390a3505050565b6001600160a01b0384166116ec5760405162461bcd60e51b81526004016105f0906123bf565b3360006116f885611840565b9050600061170585611840565b90506000868152602081815260408083206001600160a01b038c168452909152902054858110156117485760405162461bcd60e51b81526004016105f090612404565b6000878152602081815260408083206001600160a01b038d8116855292528083208985039055908a16825281208054889290611785908490612535565b909155505060408051888152602081018890526001600160a01b03808b16928c821692918816917fc3d58168c5ae7397731d063d5bbf3d657854427343f4c083240f7aacaa2d0f62910160405180910390a46117e5848a8a8a8a8a611a6f565b505050505050505050565b60006001600160e01b03198216636cdb3d1360e11b148061182157506001600160e01b031982166303a24d0760e21b145b8061062a57506301ffc9a760e01b6001600160e01b031983161461062a565b6040805160018082528183019092526060916000919060208083019080368337019050509050828160008151811061188857634e487b7160e01b600052603260045260246000fd5b602090810291909101015292915050565b6118ab846001600160a01b0316610f39565b1561129e5760405163bc197c8160e01b81526001600160a01b0385169063bc197c81906118e49089908990889088908890600401612280565b602060405180830381600087803b1580156118fe57600080fd5b505af192505050801561192e575060408051601f3d908101601f1916820190925261192b9181019061218f565b60015b6119db5761193a612681565b806308c379a01415611974575061194f612699565b8061195a5750611976565b8060405162461bcd60e51b81526004016105f09190612364565b505b60405162461bcd60e51b815260206004820152603460248201527f455243313135353a207472616e7366657220746f206e6f6e20455243313135356044820152732932b1b2b4bb32b91034b6b83632b6b2b73a32b960611b60648201526084016105f0565b6001600160e01b0319811663bc197c8160e01b146110e55760405162461bcd60e51b81526004016105f090612377565b611a158282610c31565b6108ed57611a2d816001600160a01b03166014611b40565b611a38836020611b40565b604051602001611a49929190612211565b60408051601f198184030181529082905262461bcd60e51b82526105f091600401612364565b611a81846001600160a01b0316610f39565b1561129e5760405163f23a6e6160e01b81526001600160a01b0385169063f23a6e6190611aba90899089908890889088906004016122de565b602060405180830381600087803b158015611ad457600080fd5b505af1925050508015611b04575060408051601f3d908101601f19168201909252611b019181019061218f565b60015b611b105761193a612681565b6001600160e01b0319811663f23a6e6160e01b146110e55760405162461bcd60e51b81526004016105f090612377565b60606000611b4f83600261256d565b611b5a906002612535565b6001600160401b03811115611b7f57634e487b7160e01b600052604160045260246000fd5b6040519080825280601f01601f191660200182016040528015611ba9576020820181803683370190505b509050600360fc1b81600081518110611bd257634e487b7160e01b600052603260045260246000fd5b60200101906001600160f81b031916908160001a905350600f60fb1b81600181518110611c0f57634e487b7160e01b600052603260045260246000fd5b60200101906001600160f81b031916908160001a9053506000611c3384600261256d565b611c3e906001612535565b90505b6001811115611cd2576f181899199a1a9b1b9c1cb0b131b232b360811b85600f1660108110611c8057634e487b7160e01b600052603260045260246000fd5b1a60f81b828281518110611ca457634e487b7160e01b600052603260045260246000fd5b60200101906001600160f81b031916908160001a90535060049490941c93611ccb816125bc565b9050611c41565b508315611d215760405162461bcd60e51b815260206004820181905260248201527f537472696e67733a20686578206c656e67746820696e73756666696369656e7460448201526064016105f0565b9392505050565b600082601f830112611d38578081fd5b81356020611d4582612512565b604051611d52828261260e565b8381528281019150858301600585901b87018401881015611d71578586fd5b855b85811015611d8f57813584529284019290840190600101611d73565b5090979650505050505050565b600082601f830112611dac578081fd5b81356001600160401b03811115611dc557611dc561266b565b604051611ddc601f8301601f19166020018261260e565b818152846020838601011115611df0578283fd5b816020850160208301379081016020019190915292915050565b600060208284031215611e1b578081fd5b8135611d2181612722565b60008060408385031215611e38578081fd5b8235611e4381612722565b91506020830135611e5381612722565b809150509250929050565b60008060408385031215611e70578182fd5b8251611e7b81612722565b6020840151909250611e5381612722565b600080600080600060a08688031215611ea3578081fd5b8535611eae81612722565b94506020860135611ebe81612722565b935060408601356001600160401b0380821115611ed9578283fd5b611ee589838a01611d28565b94506060880135915080821115611efa578283fd5b611f0689838a01611d28565b93506080880135915080821115611f1b578283fd5b50611f2888828901611d9c565b9150509295509295909350565b600080600080600060a08688031215611f4c578081fd5b8535611f5781612722565b94506020860135611f6781612722565b9350604086013592506060860135915060808601356001600160401b03811115611f8f578182fd5b611f2888828901611d9c565b60008060408385031215611fad578182fd5b8235611fb881612722565b915060208301358015158114611e53578182fd5b60008060408385031215611fde578182fd5b8235611fe981612722565b946020939093013593505050565b60008060408385031215612009578182fd5b82356001600160401b038082111561201f578384fd5b818501915085601f830112612032578384fd5b8135602061203f82612512565b60405161204c828261260e565b8381528281019150858301600585901b870184018b101561206b578889fd5b8896505b8487101561209657803561208281612722565b83526001969096019591830191830161206f565b50965050860135925050808211156120ac578283fd5b506120b985828601611d28565b9150509250929050565b6000806000606084860312156120d7578081fd5b83356001600160401b03808211156120ed578283fd5b6120f987838801611d28565b9450602086013591508082111561210e578283fd5b5061211b86828701611d28565b925050604084013561212c81612722565b809150509250925092565b600060208284031215612148578081fd5b5035919050565b60008060408385031215612161578182fd5b823591506020830135611e5381612722565b600060208284031215612184578081fd5b8135611d2181612737565b6000602082840312156121a0578081fd5b8151611d2181612737565b6000815180845260208085019450808401835b838110156121da578151875295820195908201906001016121be565b509495945050505050565b600081518084526121fd81602086016020860161258c565b601f01601f19169290920160200192915050565b76020b1b1b2b9b9a1b7b73a3937b61d1030b1b1b7bab73a1604d1b81526000835161224381601785016020880161258c565b7001034b99036b4b9b9b4b733903937b6329607d1b601791840191820152835161227481602884016020880161258c565b01602801949350505050565b6001600160a01b0386811682528516602082015260a0604082018190526000906122ac908301866121ab565b82810360608401526122be81866121ab565b905082810360808401526122d281856121e5565b98975050505050505050565b6001600160a01b03868116825285166020820152604081018490526060810183905260a060808201819052600090612318908301846121e5565b979650505050505050565b602081526000611d2160208301846121ab565b60408152600061234960408301856121ab565b828103602084015261235b81856121ab565b95945050505050565b602081526000611d2160208301846121e5565b60208082526028908201527f455243313135353a204552433131353552656365697665722072656a656374656040820152676420746f6b656e7360c01b606082015260800190565b60208082526025908201527f455243313135353a207472616e7366657220746f20746865207a65726f206164604082015264647265737360d81b606082015260800190565b6020808252602a908201527f455243313135353a20696e73756666696369656e742062616c616e636520666f60408201526939103a3930b739b332b960b11b606082015260800190565b6020808252818101527f4f776e61626c653a2063616c6c6572206973206e6f7420746865206f776e6572604082015260600190565b60208082526028908201527f455243313135353a2069647320616e6420616d6f756e7473206c656e677468206040820152670dad2e6dac2e8c6d60c31b606082015260800190565b86815260018060a01b038616602082015284604082015260c0606082015260006124f860c08301866121e5565b60808301949094525090151560a090910152949350505050565b60006001600160401b0382111561252b5761252b61266b565b5060051b60200190565b6000821982111561254857612548612655565b500190565b60008261256857634e487b7160e01b81526012600452602481fd5b500490565b600081600019048311821515161561258757612587612655565b500290565b60005b838110156125a757818101518382015260200161258f565b838111156125b6576000848401525b50505050565b6000816125cb576125cb612655565b506000190190565b600181811c908216806125e757607f821691505b6020821081141561260857634e487b7160e01b600052602260045260246000fd5b50919050565b601f8201601f191681016001600160401b03811182821017156126335761263361266b565b6040525050565b600060001982141561264e5761264e612655565b5060010190565b634e487b7160e01b600052601160045260246000fd5b634e487b7160e01b600052604160045260246000fd5b600060033d111561269657600481823e5160e01c5b90565b600060443d10156126a75790565b6040516003193d81016004833e81513d6001600160401b0381602484011181841117156126d657505050505090565b82850191508151818111156126ee5750505050505090565b843d87010160208285010111156127085750505050505090565b6127176020828601018761260e565b509095945050505050565b6001600160a01b0381168114610f3657600080fd5b6001600160e01b031981168114610f3657600080fdfea26469706673582212201866dc90d14885d328b7279aed310ee12a469b2fb34611ce6ebb99ea70524c0f64736f6c63430008040033",
  "linkReferences": {},
  "deployedLinkReferences": {}
}