{
  "_format": "hh-sol-artifact-1",
  "contractName": "VRFv2Consumer",
  "sourceName": "contracts/VRFv2Consumer.sol",
  "abi": [
    {
      "inputs": [
        {
          "internalType": "uint64",
          "name": "subscriptionId",
          "type": "uint64"
        },
        {
          "internalType": "address",
          "name": "reviewerAddr_",
          "type": "address"
        },
        {
          "internalType": "address",
          "name": "vrfCoordinator_",
          "type": "address"
        }
      ],
      "stateMutability": "nonpayable",
      "type": "constructor"
    },
    {
      "inputs": [
        {
          "internalType": "address",
          "name": "have",
          "type": "address"
        },
        {
          "internalType": "address",
          "name": "want",
          "type": "address"
        }
      ],
      "name": "OnlyCoordinatorCanFulfill",
      "type": "error"
    },
    {
      "inputs": [],
      "name": "VRFv2Consumer__OnlyReviewerContract",
      "type": "error"
    },
    {
      "anonymous": false,
      "inputs": [
        {
          "indexed": true,
          "internalType": "address",
          "name": "previousOwner",
          "type": "address"
        },
        {
          "indexed": true,
          "internalType": "address",
          "name": "newOwner",
          "type": "address"
        }
      ],
      "name": "OwnershipTransferred",
      "type": "event"
    },
    {
      "inputs": [],
      "name": "owner",
      "outputs": [
        {
          "internalType": "address",
          "name": "",
          "type": "address"
        }
      ],
      "stateMutability": "view",
      "type": "function"
    },
    {
      "inputs": [
        {
          "internalType": "uint256",
          "name": "requestId",
          "type": "uint256"
        },
        {
          "internalType": "uint256[]",
          "name": "randomWords",
          "type": "uint256[]"
        }
      ],
      "name": "rawFulfillRandomWords",
      "outputs": [],
      "stateMutability": "nonpayable",
      "type": "function"
    },
    {
      "inputs": [],
      "name": "renounceOwnership",
      "outputs": [],
      "stateMutability": "nonpayable",
      "type": "function"
    },
    {
      "inputs": [
        {
          "internalType": "uint256",
          "name": "orgId_",
          "type": "uint256"
        },
        {
          "internalType": "uint256",
          "name": "reviewId_",
          "type": "uint256"
        }
      ],
      "name": "requestRandomWords",
      "outputs": [],
      "stateMutability": "nonpayable",
      "type": "function"
    },
    {
      "inputs": [
        {
          "internalType": "uint256",
          "name": "",
          "type": "uint256"
        }
      ],
      "name": "s_assignedGroup",
      "outputs": [
        {
          "internalType": "uint256",
          "name": "",
          "type": "uint256"
        }
      ],
      "stateMutability": "view",
      "type": "function"
    },
    {
      "inputs": [
        {
          "internalType": "uint256",
          "name": "",
          "type": "uint256"
        }
      ],
      "name": "s_requests",
      "outputs": [
        {
          "internalType": "uint256",
          "name": "orgId",
          "type": "uint256"
        },
        {
          "internalType": "uint256",
          "name": "reviewId",
          "type": "uint256"
        },
        {
          "internalType": "uint256",
          "name": "requestId",
          "type": "uint256"
        },
        {
          "internalType": "uint256",
          "name": "randomWord",
          "type": "uint256"
        },
        {
          "internalType": "uint256",
          "name": "groupId",
          "type": "uint256"
        },
        {
          "internalType": "bool",
          "name": "isConsumed",
          "type": "bool"
        }
      ],
      "stateMutability": "view",
      "type": "function"
    },
    {
      "inputs": [
        {
          "internalType": "address",
          "name": "reviewerAddr_",
          "type": "address"
        }
      ],
      "name": "setReviewerAddr",
      "outputs": [],
      "stateMutability": "nonpayable",
      "type": "function"
    },
    {
      "inputs": [
        {
          "internalType": "address",
          "name": "newOwner",
          "type": "address"
        }
      ],
      "name": "transferOwnership",
      "outputs": [],
      "stateMutability": "nonpayable",
      "type": "function"
    }
  ],
  "bytecode": "0x60a06040527fd89b2bf150e3b9e13446986e571fb9cab24b13cea0a43ea20a6049a85cc807cc600355600480546001600160501b03191666010003000186a017905534801561004d57600080fd5b50604051610a6f380380610a6f83398101604081905261006c91610141565b6001600160a01b038116608052610082336100d5565b600180546001600160a01b03199081166001600160a01b0393841617909155600280546001600160e01b031916600160a01b6001600160401b039690961695909502909116939093179116179055610192565b600080546001600160a01b038381166001600160a01b0319831681178455604051919092169283917f8be0079c531659141344cd1fd0a4f28419497f9722a3daafe3b4186f6b6457e09190a35050565b80516001600160a01b038116811461013c57600080fd5b919050565b60008060006060848603121561015657600080fd5b83516001600160401b038116811461016d57600080fd5b925061017b60208501610125565b915061018960408501610125565b90509250925092565b6080516108bb6101b460003960008181610343015261038501526108bb6000f3fe608060405234801561001057600080fd5b50600436106100885760003560e01c80638da5cb5b1161005b5780638da5cb5b146100f05780639e0cb9441461010b578063a168fa891461011e578063f2fde38b1461019357600080fd5b80631b739ef11461008d5780631fe543e3146100a2578063488d0243146100b5578063715018a6146100e8575b600080fd5b6100a061009b366004610695565b6101a6565b005b6100a06100b03660046106cd565b610338565b6100d56100c3366004610797565b60056020526000908152604090205481565b6040519081526020015b60405180910390f35b6100a06103c5565b6000546040516001600160a01b0390911681526020016100df565b6100a06101193660046107b0565b6103fb565b61016461012c366004610797565b600660205260009081526040902080546001820154600283015460038401546004850154600590950154939492939192909160ff1686565b6040805196875260208701959095529385019290925260608401526080830152151560a082015260c0016100df565b6100a06101a13660046107b0565b610447565b6002546001600160a01b0316336001600160a01b0316141580156101d557506000546001600160a01b03163314155b156101f35760405163811182e560e01b815260040160405180910390fd5b600154600354600254600480546040516305d3b1d360e41b815291820193909352600160a01b90910467ffffffffffffffff166024820152640100000000820461ffff16604482015263ffffffff8083166064830152660100000000000090920490911660848201526000916001600160a01b031690635d3b1d309060a401602060405180830381600087803b15801561028c57600080fd5b505af11580156102a0573d6000803e3d6000fd5b505050506040513d601f19601f820116820180604052508101906102c491906107d9565b6040805160c08101825294855260208086019485528582018381526000606088018181526080890182815260a08a0183815296835260069094529390209651875594516001870155935160028601555160038501559151600484015550516005909101805460ff1916911515919091179055565b336001600160a01b037f000000000000000000000000000000000000000000000000000000000000000016146103b75760405163073e64fd60e21b81523360048201526001600160a01b037f00000000000000000000000000000000000000000000000000000000000000001660248201526044015b60405180910390fd5b6103c182826104e2565b5050565b6000546001600160a01b031633146103ef5760405162461bcd60e51b81526004016103ae906107f2565b6103f960006105b1565b565b6000546001600160a01b031633146104255760405162461bcd60e51b81526004016103ae906107f2565b600280546001600160a01b0319166001600160a01b0392909216919091179055565b6000546001600160a01b031633146104715760405162461bcd60e51b81526004016103ae906107f2565b6001600160a01b0381166104d65760405162461bcd60e51b815260206004820152602660248201527f4f776e61626c653a206e6577206f776e657220697320746865207a65726f206160448201526564647265737360d01b60648201526084016103ae565b6104df816105b1565b50565b6000610507826000815181106104fa576104fa610827565b6020026020010151610601565b6000848152600660209081526040808320815160c0810183528154815260018201549381019390935260028101549183019190915260038101546060830152600481015460808301526005015460ff16151560a082015284519293509184919061057357610573610827565b6020908102919091018101516000868152600683526040902060038101919091556004018390558151908201516105ab919084610621565b50505050565b600080546001600160a01b038381166001600160a01b0319831681178455604051919092169283917f8be0079c531659141344cd1fd0a4f28419497f9722a3daafe3b4186f6b6457e09190a35050565b60008061060f60058461083d565b61061a90600161085f565b9392505050565b6002546040516347b4501960e01b81526004810185905260248101849052604481018390526001600160a01b039091169081906347b4501990606401600060405180830381600087803b15801561067757600080fd5b505af115801561068b573d6000803e3d6000fd5b5050505050505050565b600080604083850312156106a857600080fd5b50508035926020909101359150565b634e487b7160e01b600052604160045260246000fd5b600080604083850312156106e057600080fd5b8235915060208084013567ffffffffffffffff8082111561070057600080fd5b818601915086601f83011261071457600080fd5b813581811115610726576107266106b7565b8060051b604051601f19603f8301168101818110858211171561074b5761074b6106b7565b60405291825284820192508381018501918983111561076957600080fd5b938501935b828510156107875784358452938501939285019261076e565b8096505050505050509250929050565b6000602082840312156107a957600080fd5b5035919050565b6000602082840312156107c257600080fd5b81356001600160a01b038116811461061a57600080fd5b6000602082840312156107eb57600080fd5b5051919050565b6020808252818101527f4f776e61626c653a2063616c6c6572206973206e6f7420746865206f776e6572604082015260600190565b634e487b7160e01b600052603260045260246000fd5b60008261085a57634e487b7160e01b600052601260045260246000fd5b500690565b6000821982111561088057634e487b7160e01b600052601160045260246000fd5b50019056fea26469706673582212205aece503c177c011d7f57d57e098f7cf7431ef89efdba97af0207fb2c2b4a20664736f6c63430008090033",
  "linkReferences": {},
  "deployedLinkReferences": {}
}